:020000040800F2
:10000000C02900201D7A0008810700088307000826
:10001000870700088B0700088F0700080000000012
:10002000000000000000000000000000930700082E
:1000300095070008000000009707000899070008CE
:10004000377A0008377A0008377A0008DB0700089B
:10005000377A0008377A0008377A0008377A0008BC
:10006000377A0008377A0008377A0008377A0008AC
:10007000377A0008377A0008377A0008377A00089C
:10008000377A0008377A000825080008377A000810
:1000900001080008377A0008377A0008377A000824
:1000A000377A000827080008377A0008377A0008EE
:1000B000377A0008377A0008377A0008377A00085C
:1000C000377A0008377A0008377A0008377A00084C
:1000D000377A00089B070008377A0008377A00084B
:1000E000377A0008377A000819080008377A0008BC
:1000F000377A0008377A0008377A0008377A00081C
:10010000377A000809080008377A0008377A0008AB
:10011000377A0008377A0008377A0008377A0008FB
:10012000377A0008377A0008377A00081108000883
:1001300000F002F800F05EF80AA090E8000C82449B
:100140008344AAF10107DA4501D100F053F8AFF278
:10015000090EBAE80F0013F0010F18BFFB1A43F0A5
:10016000010318474C3E01006C3E01000A444FF069
:10017000000C10F8013B13F0070408BF10F8014B06
:100180001D1108BF10F8015B641E05D010F8016B4B
:10019000641E01F8016BF9D113F0080F1EBF10F8AF
:1001A000014BAD1C0C1B09D16D1E58BF01F801CBD2
:1001B000FAD505E014F8016B01F8016B6D1EF9D555
:1001C0009142D6D37047000000230024002500266A
:1001D000103A28BF78C1FBD8520728BF30C148BFAA
:1001E0000B6070471FB59DE8030011F031FB1FBD88
:1001F00010B510BD11F0BAFB1146FFF7F3FF00F088
:10020000B9F911F0D8FB03B4FFF7F2FF03BC11F00A
:1002100005FC000010B5002000F0F8F910BD08B58D
:100220000AF0B4F94FF480300AF0D0F900200090C1
:1002300002E00098401C00900098B0F5A04FF8D361
:100240000AF003FAC249087008460078012824D150
:1002500000200AF040FA00200AF04FFA4FF48060C4
:100260000AF042FA4FF400400AF062FA4FF4E0114B
:100270004FF480300AF012FA01200AF01BFA00BF96
:1002800039200AF0C6F90028FAD002200AF015FA3F
:1002900000BF0AF01BFA0828FBD108BD10B5FFF714
:1002A000BEFFFFF7B7FF10BD10B500200AF03CFA03
:1002B0000121C8050AF0E5FA10BD0320A549086030
:1002C000704710B5A44CA07A18B10520A149086068
:1002D00002E001209F490860FFF7E0FF10BD08B56C
:1002E0004FF4A06008F090FF14208DF80000022069
:1002F0008DF8010000208DF8020001208DF8030028
:10030000684608F086FF2A208DF8000000208DF84E
:10031000010001208DF80300684608F07AFF08BD4F
:1003200008B54FF4A06008F06FFF31208DF8000091
:1003300000208DF801008DF80200684608F069FF82
:100340003B208DF8000000208DF80100684608F081
:1003500060FF03208DF8000000208DF80100684642
:1003600008F057FF19208DF8000000208DF80100DB
:1003700001208DF802008DF80300684608F049FF5F
:1003800008BD10B500200BF077FD01200BF074FDC7
:1003900002200BF071FD00200BF090FD01200BF00E
:1003A0008DFD02200BF08AFD10BD7047704770472D
:1003B000704710B504462CB14FF48051674809F0DE
:1003C000C0FF04E04FF48051644809F0B8FF10BD4D
:1003D00008B5012104200AF047FA4FF48050ADF827
:1003E000000003208DF8020014208DF803006946F8
:1003F0005A4809F0F7FE08BD10B5FFF755FFFFF7A3
:100400006EFFFFF7E5FF4FF4802009F0A4FB4FF4E7
:1004100080205349086008204871012088710846EF
:1004200009F022FB08F0C2F810BD0EB50121C80288
:100430000AF01AFA4FF47A70ADF804004720ADF8CC
:1004400000000020ADF80600ADF802008DF80800AD
:10045000694644480AF0D2FC012142480BF0F0FA08
:10046000012211463F480BF040F801213D480BF0B6
:1004700021F80EBD1FB54FF4965000900020ADF846
:100480000400ADF80600ADF80800ADF80C000C2033
:10049000ADF80A00694600200BF031FD20213248FA
:1004A0000BF0D0FC802130480BF0CCFC20212E48F2
:1004B0000BF095FC80212C480BF091FC1FBD70B512
:1004C00005460E4600240BE0295D27480BF00CFC86
:1004D00000BF802124480BF075FC0028F9D0641C73
:1004E000B442F1D370BD30B50B46002100BF16E019
:1004F0000A24B4EB107F05D9302404EB107403F800
:10050000114005E0412404EB10740A3C03F811404B
:10051000000100254C00641C1D554C1CE1B29142A9
:10052000E6DB30BD70B511480468001D0568001D8C
:100530000668344454B108220D492046FFF7D3FF22
:1005400004220B4910312846FFF7CDFF70BD000093
:10055000000000205C010020541E00200008014023
:1005600004000020002C014000380140E8F7FF1F84
:100570005E000020FFF792FEFFF703FFFFF7D0FEBB
:10058000FFF753FF0BF01AFEFFF736FF03F00FFFE4
:1005900003F0BDFD0BF030FF09F07BFF04F098F88D
:1005A00004F097FC00BF1648007820B100201449E1
:1005B000087006F0D8FF13480078A0B10020114958
:1005C000087009F066FF04F0CFFB04F0BFF804F0F8
:1005D000E6F804F06DF904F0B0FA04F02AFE03F036
:1005E000A4FA04F059FF084800780028DBD0002066
:1005F0000549087005F04DF806F0A0FFD3E70000AC
:1006000015000020160000201700002070B50446D9
:10061000002524B90CF0FBFC5449086001E00120DE
:1006200070BD00BF2846FBE72DE9F8430446154698
:100630001E46DDE90878C4B92A4633463846CDF867
:1006400000800CF0C8FF494908600DF0C8F8474920
:10065000086000BF0CF06DFD0028FBD14348006826
:1006600010B10120BDE8F88301E00120FAE700BFE6
:100670000020F7E72DE9F843044615461E46DDE95C
:100680000878B4B92A4633463846CDF800800CF0D5
:100690006CFE0CF06DFF3549086000BF0CF049FDA1
:1006A0000028FBD13148006810B10120BDE8F88373
:1006B00001E00120FAE700BF0020F7E770B504462B
:1006C00000250026002C4ED10CF0A1FC00284AD1B8
:1006D00027480CF0FCF82649B1F8541008040CF037
:1006E000DEF82348007E851C214890F85600022839
:1006F00006D11F480069401C80021E49086012E0B4
:100700001B490A7A012101FA02F0C11700EBD1510D
:100710004E1217480069401C0121A9404843710846
:100720008840144908604FF400701349086010496C
:10073000B1F8541008040CF0B2F80C4908604FF4FA
:1007400000600CF05AF8094908600846006808B1D2
:10075000012070BD074800680749096848430749F8
:1007600008600020F5E70120F3E7000040000020CA
:1007700068030020380000203000002028000020FE
:10078000704700BFFEE700BFFEE700BFFEE700BF07
:10079000FEE7704770477047704710B540F225512B
:1007A0003A480BF025FB20B140F2255137480BF0B9
:1007B00009FB40F2277135480BF01AFB20B140F2DB
:1007C000277132480BF0FEFA082130480BF0FAFA94
:1007D00010B12E480BF08CFA10BD10B501200AF0B4
:1007E0003CF928B101200AF048F9012028490860A5
:1007F00002200AF032F910B102200AF03EF910BDD1
:1008000010B500F077F910BD10B50DF094F910BDDA
:1008100010B50DF0E1F910BD10B54FF4802009F0CE
:100820009AF910BD704710B501211A480BF01CF958
:1008300001201949087019480078401C17490870B0
:10084000084600780A281FDB0020087001201449A0
:10085000087014480078401C124908700846007857
:10086000322811DB0020087001200F4908700F4862
:10087000007808B9012000E000200C490870084603
:10088000007808B104F0F8FA10BD0000003801400B
:10089000A4020020002C014015000020450000208B
:1008A000160000204400002017000020180000203F
:1008B0000CB50020019000906C48006840F4803036
:1008C0006A49086000BF6948006800F40030009081
:1008D0000198401C0190009818B90198B0F5A06FDC
:1008E000F1D16248006800F4003010B1012000909E
:1008F00001E0002000900098012843D15C48006886
:1009000040F010005A4908600846006820F00300D3
:1009100008600846006840F00200086053484068DC
:10092000524948600846406848600846406840F4BC
:10093000806048600846406820F47C1048600846A3
:10094000406840F4E81048600846006840F0807055
:10095000086000BF4548006800F000700028F9D02A
:100960004248406820F0030040494860084640681B
:1009700040F00200486000BF3C48406800F00C00B6
:100980000828F9D10CBD10B5FFF792FF10BD10B5C6
:100990003648006840F00100344908600846406865
:1009A00034490840314948600846006832490840E7
:1009B0002E4908600846006820F480200860084638
:1009C000406820F4FE0048604FF41F008860FFF785
:1009D000DAFF4FF000602949086010BD10B5002112
:1009E00000200022214B5B6803F00C0121B1042997
:1009F00006D0082928D107E0214B224C236027E0AC
:100A00001F4B204C236023E0184B5B6803F47010ED
:100A1000164B5B6803F48032022303EB904022B94B
:100A2000194B4343174C23600DE0104B5B6803F4F4
:100A3000003323B1144B4343124C236003E0104BAB
:100A40004343104C236003E00D4B0E4C236000BF6A
:100A500000BF064B5B68C3F303130C4CE15C094B0E
:100A60001B68CB40074C236010BD00000010024003
:100A7000002002400000FFF8FFFFF6FE08ED00E056
:100A800000127A004800002000093D004C000020C0
:100A90002DE9F0414FF00008002500261149012002
:100AA00008F097FB0746402F10D10F48007868B92F
:100AB0000C4E0E4D002404E0306828602D1D361DBC
:100AC000641C102CF8D30120074908704FF44051E2
:100AD000012007F0C4FFBDE8F0810120044908703F
:100AE00070470000C00300206D02002000040020B9
:100AF0001400002010B588B00024664800686649DC
:100B000008800846008800F40040644909880840CD
:100B100008B107F069FD6048008800F480605F4913
:100B20000988084030B14FF6FF305A4908605C49E7
:100B3000486880475848008800F4005057490988A1
:100B4000084018B14DF6FF705249086052480088BD
:100B500000F4805051490988084030B14EF6FF70CA
:100B60004C490860002000F089FA4B48008800F4E6
:100B700000604A490988084048B14A48007810B9DD
:100B8000022000F07BFA4FF2FF70424908604248B1
:100B9000008800F4007041490988084040B14FF6D0
:100BA000FF503C49086040480078401C3E490870AE
:100BB0003948008800F480703849098808400028C6
:100BC00066D04FF6FF6033490860081D006800F4E6
:100BD0000040002856D035480068401C3349086062
:100BE00008460068032850D92A48001F006800F012
:100BF0000800002849D12748001F006880B22C490E
:100C00000860002408E02B4901EB8400D0F8000CB8
:100C100080B24DF82400641C082CF4D324480068EA
:100C200040F00100224908600846006880B2194976
:100C3000091F08601E48006820F001001C49086078
:100C40000846006880B21349091F086000BF1148B8
:100C5000006800F480600028F9D04FF6FF300D499D
:100C60000860002408E05DF8240080B2114A02EB1D
:100C70008401C1F8000C641C082CF4D300200B493B
:100C8000086002E0002009490860072000F0F6F93A
:100C900008B010BD445C00407800002086020020AF
:100CA000C8000020600100207A0000207C000020A5
:100CB000800000200050004010B5FFF733FC0020FA
:100CC0008A490968887200F029F908F05DFA002065
:100CD0008749086010BD10B50020844909688872F2
:100CE00082490968C8728348C07980490968487296
:100CF000002007F063FE4FF40071002007F078FE3B
:100D00001021002007F08DFE1821002008F047F880
:100D10005821002008F037F8002007F03FFF764800
:100D200090F82C10002008F080F8002007F0FAFE60
:100D30004FF4C061012007F05BFE4FF48071012089
:100D400008F021F84FF48271012008F028F84021C2
:100D5000012008F048F84021012008F066F84FF41F
:100D60004051012007F07BFE2021012007F059FEB1
:100D7000002007F08CFB01205D49086010BD5B4836
:100D80000068807A10B10520594908607047042036
:100D900057490860704770477047014629B90220DB
:100DA000524A12681082002070475448FCE70146FE
:100DB00029B901204D4A126810820020704750481E
:100DC000FCE710B504464F49204607F056F810BD21
:100DD00010B504464C49204607F04FF810BD70B5D9
:100DE000054642480068808808B1022070BD002492
:100DF000062D16D13D480068007800F07F000128DC
:100E00000FD13A4800688078222802D1AFF23F041F
:100E10001EE0364800688078212819D1AFF25D04C1
:100E200016E032480068007800F07F0021280FD1DA
:100E3000032D02D0092D09D102E0AFF28D0406E0A6
:100E4000AFF2A90409203149087000E000BF00BFDB
:100E50000CB90220CAE725480068846100212348B4
:100E6000006841820020A0470020BFE71F480068BB
:100E7000C178234801600020704700B502461B4836
:100E80000068007800F07F00212804D10B2A02D1ED
:100E9000FFF7ECFF00BD0220FCE710B504461C493B
:100EA000204606F0EAFF10BD10B504461949204659
:100EB00006F0E3FF10BD70B505460C480068C47825
:100EC000042C01DD002070BD134800EBC40128464E
:100ED00006F0D3FFF7E70246002901DD0220704744
:100EE000002A01DD0220FAE70020F8E77C0200205A
:100EF0005C0100207A1A0108C8000020C20000200E
:100F0000BC000020340100202C010020C100002082
:100F10001C010020240100203C01002010B501200C
:100F2000FFF747FA012486480460002085490880BD
:100F300008460088824908600020091D08604FF4B7
:100F4000E05080490880084600887D4908600020FC
:100F500010BD10B501207A4908600020091D086005
:100F6000FFF727FA032076490860002010BD38B546
:100F70000021002200230093714B1B6898B200BF30
:100F800009E0714C04EB8103D3F8003C9BB26F4C39
:100F900044F82130491C0829F3D340F48060684BA1
:100FA000186040F00100186020F00100186000BFD8
:100FB000634B1B1D1B6803F48063002BF8D04FF6B6
:100FC000FF335F4C241D2360002109E05F4B53F881
:100FD00021309BB25C4D05EB8104C4F8003C491CF8
:100FE0000829F3D340F00800554B18601B6898B2ED
:100FF00040F00400524B1860554B1B680093544B53
:101000001A6822F0030242F001021A60514B1B6879
:1010100043F004034F4C2360494B1B1D1B6803F432
:10102000805333B930BF23461B6823F00403236089
:1010300014E04EF6FF73424C241D2360231F1B68EF
:1010400098B220F00800231F1860414C009B2360D9
:10105000404B1B6823F004033E4C236038BD10B5A1
:101060003748006884B224F0040435480460FFF770
:1010700028F94FF43F403249086010BD70B505466D
:10108000072D01D0344805703348007808284ED227
:10109000DFE800F004111A202B384E4F2F4800686B
:1010A00028B9FFF7DCFF06202B49087002E0052075
:1010B0002949087041E0FFF7D2FF04202649087053
:1010C00001202649086038E00220234948700320A7
:1010D000087032E020484078401E1F49487008469A
:1010E000407808B90420087027E01548006884B2E9
:1010F00044F01004124804600520174908700A20C3
:1011000048701AE014484078401E13494870084659
:10111000407858B90A48006884B224F0100408489E
:1011200004600620087000200C49086005E000BF3C
:1011300000BF06200849087000BF00BF70BD000056
:10114000405C004086020020005000404004002027
:101150000070004010ED00E06101002064010020FB
:10116000C1F16F0211B2FA4A1080FA4A1180704739
:1011700010B5702900DB10BD7822B2EBE00F00DC67
:10118000F9E7002901DB002800DAF4E7C1EB0112DE
:10119000F14B1A4402EBE002127800F00703EF4C27
:1011A000E35C1A43C1EB0113EB4C234403EBE00374
:1011B0001A7000BFDFE710B5C1F16F0211B27029DC
:1011C00000DB10BD7822B2EBE00F00DCF9E700296C
:1011D00001DB002800DAF4E7C1EB0112DE4B1A4410
:1011E00002EBE002127800F00703DC4CE35C1A43E8
:1011F000C1EB0113D84C234403EBE0031A7000BF8A
:10120000DFE730B5702900DB30BD7823B3EBE00FAA
:1012100000DCF9E7002901DB002800DAF4E79AB9DD
:10122000C1EB0113CC4C234403EBE0031B7800F02B
:101230000704CA4D2C5D2343C1EB0114C64D2C4459
:1012400004EBE00423702AE0012A13D1C1EB01135F
:10125000C14C234403EBE0031B7800F00704BF4DAF
:101260002C5DA343C1EB0114BB4D2C4404EBE00403
:10127000237014E0022A12D1C1EB0113B64C2344AF
:1012800003EBE0031B7800F00704B44D2C5D6340D2
:10129000C1EB0114B04D2C4404EBE004237000BFFB
:1012A000B2E730B5C1F16F0319B2702900DB30BD70
:1012B0007823B3EBE00F00DCF9E7002901DB00281D
:1012C00000DAF4E79AB9C1EB0113A34C234403EB12
:1012D000E0031B7800F00704A04D2C5D2343C1EB15
:1012E00001149D4D2C4404EBE00423702AE0012AF4
:1012F00013D1C1EB0113984C234403EBE0031B789B
:1013000000F00704954D2C5DA343C1EB0114924DF1
:101310002C4404EBE004237014E0022A12D1C1EB48
:1013200001138D4C234403EBE0031B7800F007040A
:101330008A4D2C5D6340C1EB0114874D2C4404EBB6
:10134000E004237000BFB2E72DE9F04104460D46EA
:1013500016461F46AC4202DDA8462546444606E036
:10136000FAB231462046FFF74CFF601C04B2AC4293
:10137000F6DDBDE8F0812DE9F04180460C461546CA
:101380001E46AC4202DD2F4625463C4606E0F2B240
:1013900021464046FFF735FF601C04B2AC42F6DD43
:1013A000BDE8F0812DE9F74F84B080460F464FF03D
:1013B000000B002003906648B0F9000002906548D9
:1013C000B0F90090C7F16F0007B26148A0F8008043
:1013D000604807800298A8EB000005B2A7EB09005F
:1013E00006B2002D02DD012001900CE045B93A461D
:1013F0004946069B0298FFF7BEFF07B0BDE8F08F95
:101400004FF0FF300190002E02DD012000900AE035
:1014100036B94A464146069B0298FFF795FFECE72E
:101420004FF0FF300090002D01DA684205B2002E27
:1014300001DA704206B2B54201DD2C4600E03446C6
:101440004946069A0298FFF7DCFE4FF0000A26E0B4
:101450004946069A0298FFF7D4FE0BEB05000FFAF7
:1014600080FB0398304400B20390A34508DDABEB4A
:1014700004000FFA80FBDDE90110084400B202907D
:101480000398A04207DD0398001B00B20390009868
:1014900048440FFA80F90AF101000FFA80FA601C43
:1014A0008245D5DD00BFA8E72DE9FF4F80460F46F6
:1014B0004FF0000B002003902548B0F90000029087
:1014C0002448B0F90090C7F16F0007B22048A0F897
:1014D0000080204807800298A8EB000005B2A7EB27
:1014E000090006B2002D02DD012001900BE03DB99C
:1014F00000233A4649460298FFF73DFFBDE8FF8FBB
:101500004FF0FF300190002E02DD012000900AE034
:1015100036B900234A4641460298FFF715FFEDE72A
:101520004FF0FF300090002D01DA684205B2002E26
:1015300001DA704206B2B54201DD2C4600E03446C5
:1015400049460298FFF714FE4FF0000A2EE0000013
:101550008001002082010020080600202A1E0108C8
:1015600049460298FFF704FE0BEB05000FFA80FBDB
:101570000398304400B20390A34508DDABEB0400B0
:101580000FFA80FBDDE90110084400B202900398D5
:10159000A04207DD0398001B00B203900098484466
:1015A0000FFA80F90AF101000FFA80FA601C8245F7
:1015B000D6DD00BFA2E72DE9FF4F83B081460F467D
:1015C00098464FF0000A00200190C7F16F0007B263
:1015D000C8F16F000FFA80F80598A0EB090005B27A
:1015E000A8EB070006B2002D02DD012000900CE000
:1015F00045B90023424639464846FFF7BCFE07B0CE
:10160000BDE8F08F4FF0FF300090002E02DD4FF06C
:10161000010B09E036B900233A4648460599FFF721
:1016200093FEECE74FF0FF3B002D01DA684205B274
:10163000002E01DA704206B2B54201DD2C4600E010
:10164000344639464846FFF793FD0020029023E0D8
:1016500039464846FFF78CFD0AEB05000FFA80FA81
:101660000198304400B20190A24507DDAAEB0400C6
:101670000FFA80FA009848440FFA80F90198A042C6
:1016800006DD0198001B00B2019007EB0B0007B2CA
:101690000298401C00B20290611C02988842D7DD7B
:1016A00000BFACE7F0B5C0100D46FE4E06EB0214CD
:1016B00000230BE02678C5EB0517DFF8ECC3674481
:1016C0003E546E1CF5B2641C5E1CF3B2102BF1DBB1
:1016D000F0BD2DE9F0410B461446C010471CFEB288
:1016E0001A46F24F07EB4411002513E00F78C2EBC6
:1016F000021CDFF8B483C4440CF80070491C0F7856
:10170000C2EB021CC4440CF80670491C571CFAB208
:101710006F1CFDB2102DE9DBBDE8F0812DE9F84327
:1017200003460E461746D8100F2801DBBDE8F883A4
:1017300003F007053146DFF86CC30CEB07120024F9
:1017400055E0C5B300F1010CBCF10F0F34DA92F88B
:1017500000C08DF801C04FF0000C8DF800C0BDF83E
:1017600000C04CFA05FCCDF800C0C1EB011CDFF84D
:101770003883C4441CF800C09DF801804CEA080C72
:10178000C1EB0118DFF82093C84408F800C0C1EB92
:10179000011CC846E04400F1010C18F80CC09DF88B
:1017A00000804CEA080CC1EB0118C14400F10108AB
:1017B00009F808C012E0FFE7C1EB011CDFF8E8827E
:1017C000C4441CF800C092F800804CEA080CC1EB3D
:1017D0000118DFF8D492C84408F800C001F1010CE8
:1017E0000CF0FF01521C04F1010C0CF0FF04102C52
:1017F000A7DB00BF9AE72DE9F84303460E461746DC
:10180000D8100F2801DBBDE8F88303F00705314647
:10181000DFF890C20CEB0712002459E0E5B300F1A9
:10182000010CBCF10F0F38DA92F800C06FEA0C0C13
:101830000CF0FF0C8DF801C04FF0000C8DF800C0CB
:10184000BDF800C04CFA05FCCDF800C0C1EB011C8E
:10185000DFF85482C4441CF800C09DF801804CEAB3
:10186000080CC1EB0118DFF84092C84408F800C02A
:10187000C1EB011CC846E04400F1010C18F80CC093
:101880009DF800804CEA080CC1EB0118C14400F13E
:10189000010809F808C012E0FFE7C1EB011CDFF8FE
:1018A0000882C4441CF800C092F800806CEA080C5E
:1018B000C1EB0118DFF8F091C84408F800C001F14D
:1018C000010C0CF0FF01521C04F1010C0CF0FF04A0
:1018D000102CA3DB00BF96E72DE9F84304460E4623
:1018E0001746E0100F2801DBBDE8F88304F007037A
:1018F0003146C7EBC70CDFF8B8810CEB08020025B6
:101900006DE0E3B3022B04DD00F1010CBCF10F0F1D
:1019100014DBC1EB011CDFF89081C4441CF800C04B
:1019200092F8008048FA03F84CEA080CC1EB011861
:10193000DFF87491C84408F800C047E092F800C08E
:101940008DF801C04FF0000C8DF800C0BDF800C04C
:101950004CFA03FCCDF800C0C1EB011CDFF8488154
:10196000C4441CF800C09DF801804CEA080CC1EB8F
:101970000118DFF83491C84408F800C000E013E013
:10198000C1EB011CC846E04400F1010C18F80CC082
:101990009DF800804CEA080CC1EB0118C14400F12D
:1019A000010809F808C011E0C1EB011CDFF8F8805C
:1019B000C4441CF800C092F800804CEA080CC1EB4B
:1019C0000118DFF8E490C84408F800C001F1010CE8
:1019D0000CF0FF01521C05F1010C0CF0FF05072D66
:1019E0008FDB00BF80E72DE9F84304460E4617461B
:1019F000E0100F2801DBBDE8F88304F0070331464F
:101A000007EB870CDFF8AC800CEB0802002578E0D0
:101A1000F3B3012B04DD00F1010CBCF10F0F14DB5B
:101A2000C1EB011CDFF88080C4441CF800C092F8B0
:101A3000008048FA03F84CEA080CC1EB0118DFF803
:101A40006890C84408F800C052E092F800C08DF8D1
:101A500001C04FF0000C8DF800C0BDF800C04CFA7A
:101A600003FCCDF800C0C1EB011CDFF83C80C4448E
:101A70001CF800C09DF801804CEA080CC1EB01186D
:101A8000DFF82490C84408F800C0C1EB011C00E056
:101A90001CE0C846E04400F1010C18F80CC09DF8A9
:101AA000008009E0321E01080806002062220108B9
:101AB00062240108E02401084CEA080CC1EB01187B
:101AC000C14400F1010809F808C011E0C1EB011C94
:101AD000DFF8E085C4441CF800C092F800804CEAAE
:101AE000080CC1EB0118DFF8CC95C84408F800C019
:101AF00001F1010C0CF0FF01521C05F1010C0CF07E
:101B0000FF05052D84DB00BF75E72DE9F84304468A
:101B10000E461746E0100F2801DBBDE8F88304F0FD
:101B20000703314607EB870CDFF88C85C4440CF1C2
:101B3000040200256DE0E3B3012B04DD00F1010C8C
:101B4000BCF10F0F14DBC1EB011CDFF86885C44446
:101B50001CF800C092F8008048FA03F84CEA080C20
:101B6000C1EB0118DFF84C95C84408F800C047E005
:101B700092F800C08DF801C04FF0000C8DF800C045
:101B8000BDF800C04CFA03FCCDF800C0C1EB011C4D
:101B9000DFF82085C4441CF800C09DF801804CEAA1
:101BA000080CC1EB0118DFF80C95C84408F800C018
:101BB00000E013E0C1EB011CC846E04400F1010C59
:101BC00018F80CC09DF800804CEA080CC1EB011815
:101BD000C14400F1010809F808C011E0C1EB011C83
:101BE000DFF8D084C4441CF800C092F800804CEAAE
:101BF000080CC1EB0118DFF8BC94C84408F800C019
:101C000001F1010C0CF0FF01521E05F1010C0CF06A
:101C1000FF05052D8FDB00BF7FE70146302905DB7F
:101C2000392903DCA1F12B00C0B27047612905DB23
:101C30007A2903DCA1F13800C0B2F6E7412905DBBF
:101C40005A2903DCA1F13200C0B2EEE75F2901D1CD
:101C50000220EAE72D2901D10120E6E70020E4E790
:101C60002DE9F04107210846FFF77AFA072177208E
:101C7000FFF71AFC04217420FFF716FC07217720D8
:101C8000FFF76EFA0A217420FFF70EFC1B2410E008
:101C900008212046FFF78FFA282094FBF0F100FB83
:101CA000114018B909212046FFF785FA04F1140004
:101CB000C4B2702CECDB082269210720FFF70CFE70
:101CC000042269216E20FFF707FEFC4800780228F5
:101CD0001DD0FB4805886420454305EB85053C2065
:101CE000B5FBF0F5692400BF0A20B5FBF0F100FB5D
:101CF000115000F10808424669212046FFF7ECFD2B
:101D00000A20B5FBF0F5601FC4B2002DECD107210D
:101D10000846FFF725FA6F210720FFF7C5FB6C2166
:101D20000A20FFF7C1FB6F210720FFF719FA6C218A
:101D30000420FFF7B9FB0024072714E039460820E8
:101D4000FFF739FA204604EBD0714910A4EB4101AA
:101D500019B939460920FFF72EFADA4800783844D5
:101D6000C7B2601CC4B2702FE8DB0322042100203C
:101D7000FFF739FED1480078022852D0D2480588B2
:101D8000642400271BE00A20B5FBF0F100FB115092
:101D900000F10808424621460020FFF724FE012FEB
:101DA00006D1601FC4B2012221460020FFF71BFEAE
:101DB000781CC7B20A20B5FBF0F5601FC4B2022F31
:101DC000E1DD002DDFD16825C04800884543BE48CD
:101DD000008805440A2442F2107620E0B54201D280
:101DE000642E18DCB5FBF6F00A21B0FBF1F201FB22
:101DF000120000F10808424621460020FFF7F3FDDB
:101E0000642E06D1601DC4B2012221460020FFF7D6
:101E1000EAFD601DC4B20A2096FBF0F086B2002EE7
:101E2000DCD107217020FFF79BF96F217020FFF7AD
:101E30003BFB6C217320FFF737FB6F217020FFF70E
:101E40008FF96C216D20FFF72FFB0024072714E08A
:101E500039466F20FFF7AFF9204604EBD0714910E7
:101E6000A4EB410119B939466E20FFF7A4F998484F
:101E700000783844C7B2601CC4B2702FE8DB02227D
:101E800004217120FFF741FE8C480078022852D0CF
:101E900068259048008845438F48008805440A24F7
:101EA00000271BE00A20B5FBF0F100FB115000F108
:101EB0000808424621467120FFF727FE012F06D170
:101EC000601DC4B2012221467120FFF71EFE781C5E
:101ED000C7B20A20B5FBF0F5601DC4B2022FE1DDE8
:101EE000002DDFD17C480588612442F2107620E085
:101EF000B54201D2642E18DCB5FBF6F00A21B0FB26
:101F0000F1F201FB120000F108084246214671205F
:101F1000FFF7FBFD642E06D1601FC4B201222146EB
:101F20007120FFF7F2FD601FC4B20A2096FBF0F0AB
:101F300086B2002EDCD1BDE8F08168490988684A84
:101F4000118068490988684A1180654909885E4A94
:101F5000118065490988604A1180012031E05F499C
:101F600031F810105E4A1288914204DD5B4931F865
:101F700010105B4A1180594931F81010524A1288EA
:101F8000914204DA554931F810104F4A11805549F1
:101F900031F81010544A1288914204DD514931F849
:101FA0001010514A11804F4931F810104A4A1288D6
:101FB000914204DA4B4931F81010474A1180411C14
:101FC000C8B24A4909788842C9DB454909883E4A6E
:101FD000128891420AD13C49098819B96821404ABE
:101FE000118023E00021384A11801FE03C49098814
:101FF000354A1288891A891C692291FBF2F1491C21
:10200000324A11801146098849002F4A12889142AC
:1020100009DA2D4909882D4A1288022303FB12117F
:10202000294A118002E00021274A11802C490988A1
:10203000254A1288891A692291FBF2F1491C234A28
:10204000118029490988244A1288914215D12249D0
:10205000098819B96821244A118002E000211E4A2A
:102060001180214909881C4A1288891A692291FB2A
:10207000F2F1491C174A11803DE01B490988164AB4
:102080001288891A891C692291FBF2F1491C114AB4
:1020900011801146098849000F4A1288914227DAB7
:1020A0000D4909880B4A1288022303FB12110A4AC0
:1020B000118020E0080600203A2501086C0100206C
:1020C000AA01002090010020A2010020AC01002004
:1020D00094010020AE010020A60100206004002031
:1020E000A401002034050020A80100209C0100204C
:1020F0000021F84A1180F8490988F64A1288891A9D
:10210000692291FBF2F1491CF44A118000201BE086
:10211000F34931F81010F34A1288891AF24A1288EA
:1021200091FBF2F1EE4A22F81010F04931F810104C
:10213000E84A1288891AE94A128891FBF2F1EB4ABF
:1021400022F81010411CC8B2E94909788842DFDB47
:102150001421E84A1170E84A117070471CB5E7482D
:102160000068E7490988B0FBF1F0E1490870DF48F1
:10217000DB49CDE90010E2480388DD480278002100
:10218000E048008804F0B1FCFFF7D7FE1CBD2DE944
:10219000F843804600250027DB48007818B9DB4863
:1021A0000078042803D0D848007803287ED1D64888
:1021B0000078032813D1D6480088401CD1490880F4
:1021C0006A460021CF48008804F052FDD1490860DA
:1021D0000846006870B9C949009808600AE0CE480E
:1021E0000068C6490860CD480088C64908800020BC
:1021F000C8490860C748006800287CD10120C04950
:1022000008806A20009007E000986A300090BC487F
:102210000088401CBA490880B84800680099884284
:10222000F2D2FFF79BFFAE480088C01D01B2072025
:10223000FEF796FF01240AE0A94830F81400C01DFB
:1022400001B24246E01DFFF7ADF8601CC4B2A848D9
:1022500000788442F0DBA6480078401EC4B2A04853
:1022600030F81400C01D01B20222E01DFFF719F87A
:102270009B4830F81400C01D01B2002204F1080090
:10228000FFF70FF8964A32F81420D21D11B2A01DA4
:102290000022FFF706F8924830F81400083001B227
:1022A0000022E01DFEF7FDFF8D4800E024E030F83D
:1022B0001400801D01B20022E01DFEF7F2FF8B48E2
:1022C0000088C01D01B20720FEF74AFF01240AE082
:1022D000864830F81400C01D01B24246E01DFFF7E9
:1022E00061F8601CC4B2824800788442F0DB804808
:1022F0000078401EC4B271E08348007802286DD196
:1023000084480068002869D100268548408B08B1C0
:1023100046F001068248008C08B146F0020606EB42
:10232000C60000EB06107F4901EB800506EBC600F6
:1023300000EB06107C4901EB8007287800F10901C9
:102340000920FEF70DFF012409E0285D00F10901D5
:10235000424604F10900FFF725F8601CC4B2642C62
:10236000F3DB63242A5D02F1090104F10900022272
:10237000FEF797FF2A5D02F1090104F10A0000222D
:10238000FEF78FFF2A5D02F1090104F10800002227
:10239000FEF787FF2A5D02F10A0104F1090000221D
:1023A000FEF77FFF2A5D02F1080104F10900002217
:1023B000FEF777FF387800F109010920FEF7D0FE1B
:1023C000012409E03A5D02F1090104F109004246E5
:1023D000FEF7E8FF601CC4B2642CF3DBBDE8F883B1
:1023E0002DE9F05F48480078002872D11B220021B7
:1023F0000846FFF793F9372200210820FFF78EF9EE
:102400002C2200211020FFF789F92D22002118200D
:10241000FFF784F9342200212020FFF77FF90322FF
:1024200000212620FFF77AF91E2200212C20FFF739
:1024300075F9202200213420FFF770F91D220021B8
:102440003C20FFF76BF9002211464420FFF766F9A4
:102450000C2200214C20FFF761F90A2200215420B0
:10246000FFF75CF9052200215C20FFF757F91022E5
:1024700011460020FFF752F9292210210820FFF70A
:102480004DF93C2210210846FFF748F93C22102163
:102490001820FFF743F92D2210212020FFF73EF9E5
:1024A0003A2210212820FFF739F94122102130204B
:1024B000FFF734F9032210213620FFF72FF91B48CC
:1024C0000078A8B301283FD0022848D003285CD167
:1024D00050E0FDE3A6010020A8010020AE0100208D
:1024E00060040020A2010020AC010020340500207F
:1024F0009C0100209001002094010020B8010020E0
:10250000AA010020BC0100206C010020D80100209D
:102510007A010020C0010020640200205E02002039
:10252000380F00200A1B01089A1C0108260200200F
:10253000FFE7062210213C20FFF7F0F807221021C8
:102540004420FFF7EBF820E0072210213C20FFF7A2
:10255000E5F8092210214420FFF7E0F815E00822F1
:1025600010213C20FFF7DAF80B2210214420FFF75E
:10257000D5F80AE0092210213C20FFF7CFF80D2200
:1025800010214420FFF7CAF800BF00BF2422102109
:102590004C20FFF7C3F8F7480078062841D2DFE85F
:1025A00000F00309141F2A350A2210216420FFF7C6
:1025B000B5F836E0062210215C20FFF7AFF80522BF
:1025C00010216420FFF7AAF82BE0062210215C20DE
:1025D000FFF7A4F80A2210216420FFF79FF820E0FB
:1025E000072210215C20FFF799F8052210216420B2
:1025F000FFF794F815E0072210215C20FFF78EF812
:102600000A2210216420FFF789F80AE0082210212D
:102610005C20FFF783F8052210216420FFF77EF885
:1026200000BF00BF0F2210216C20FFF777F81122A6
:1026300020210020FFF772F8302220210820FFF728
:102640006DF82F2220211020FFF768F81122202199
:102650001820FFF763F82E2220210846FFF75EF8C6
:102660002F2220212820FFF759F8032220212E2095
:10267000FFF754F8002611E0BF48805D00B90FE075
:10268000BD49885DFFF7C9FA8346F11DC900091FDE
:10269000C8B25A462021FFF741F8761C082EEBD32A
:1026A00000BF212230210020FFF738F83C223021E2
:1026B0000820FFF733F8292230211020FFF72EF8E9
:1026C0003C2230211820FFF729F83D22302120201C
:1026D000FFF724F83B2230212820FFF71FF80322C0
:1026E00030212E20FFF71AF8A4480078062818D2C7
:1026F000DFE800F003183C657AF321223021442002
:10270000FFF70CF83C2230214C20FFF707F8372266
:1027100030215420FFF702F8382230215C20FEF7E8
:10272000FDFF5FE1212230213420FEF7F7FF3C223C
:1027300030211046FEF7F2FF292230214420FEF717
:10274000EDFF362230214C20FEF7E8FF2C2230210D
:102750005420FEF7E3FF2A2230216420FEF7DEFF3B
:10276000412230216C20FEF7D9FF3BE121223021AC
:102770003420FEF7D3FF2D2230213C20FEF7CEFF80
:10278000342230214420FEF7C9FF2E2230214C2074
:10279000FEF7C4FF3C2230215420FEF7BFFF2D225C
:1027A00030215C20FEF7BAFF3B2230216420FEF787
:1027B000B5FF3C2230216C20FEF7B0FF12E122224F
:1027C00030214420FEF7AAFF2D2230214C20FEF7B5
:1027D000A5FF3B2230215420FEF7A0FF3C223021F0
:1027E0005C20FEF79BFFFDE065480078062875D267
:1027F000DFE800F00318283843581E223021442017
:10280000FEF78CFF3A2230214C20FEF787FF2D2265
:1028100030215420FEF782FF3E2230215C20FEF75B
:102820007DFF6BE0112230214C20FEF777FF112253
:1028300030215420FEF772FF062230215C20FEF783
:102840006DFF5BE0112230214C20FEF767FF112263
:1028500030215420FEF762FF072230215C20FEF772
:102860005DFF4BE0112230214C20FEF757FF242260
:1028700030215420FEF752FF40E00F223021442047
:10288000FEF74CFF2A2230214C20FEF747FF3B2267
:1028900030215420FEF742FF372230215C20FEF722
:1028A0003DFF2BE0142230213C20FEF737FF34227D
:1028B00030214420FEF732FF372230214C20FEF732
:1028C0002DFF292230215420FEF728FF3C22302101
:1028D0005C20FEF723FF11E000E011E0042230212C
:1028E0004C20FEF71BFF042230215420FEF716FF78
:1028F000042230215C20FEF711FF00BF00BF71E011
:10290000132230213420FEF709FF3A2230213C20E7
:10291000FEF704FF3A2230214420FEF7FFFE372263
:1029200030214C20FEF7FAFE3A2230215420FEF7E7
:10293000F5FE14480078072852D2DFE800F0510471
:102940000F25303B4600212230216420FEF7E6FEB1
:10295000222230216C20FEF7E1FE41E022223021CC
:102960006420FEF7DBFE1E2230216C20FEF7D6FE2F
:1029700036E00000270200205C0F0020D801002074
:10298000D9010020DA010020102230216420FEF756
:10299000C5FE1A2230216C20FEF7C0FE20E0102276
:1029A00030216420FEF7BAFE202230216C20FEF791
:1029B000B5FE15E0112230216420FEF7AFFE14228F
:1029C00030216C20FEF7AAFE0AE02122302164208B
:1029D000FEF7A4FE122230216C20FEF79FFE00BFFE
:1029E00000BF00BF00BF232240210020FEF796FE5B
:1029F000032240210620FEF791FEFE4800780428BD
:102A000003D0FC480078032857D1FB4804880A20EB
:102A100094FBF0F100FB1140052801DB601C84B23F
:102A200042F21070844209DB94FBF0F0401D00F08C
:102A3000FF0B5A4640210C20FEF770FEB4F57A7F5A
:102A400010DB4FF47A7094FBF0F00A2190FBF1F266
:102A500001FB1200401D00F0FF0B5A4640211420DC
:102A6000FEF75CFE642094FBF0F00A2190FBF1F28B
:102A700001FB1200401D00F0FF0B5A4640211C20B4
:102A8000FEF74CFE042240212420FEF747FE0A20D8
:102A900094FBF0F00A2190FBF1F201FB1200401DC3
:102AA00000F0FF0B5A4640212820FEF737FE242273
:102AB00040213020FEF732FE09E00422402114209C
:102AC000FEF72CFE042240211C20FEF727FE1722D1
:102AD00040210846FEF722FE032240214620FEF751
:102AE0001DFEC4480078042803D0C248007803289B
:102AF00057D1C24804880A2094FBF0F100FB114032
:102B0000052801DB601C84B242F21070844209DBAC
:102B100094FBF0F0401D00F0FF0B5A4640214C2082
:102B2000FEF7FCFDB4F57A7F10DB4FF47A7094FB6E
:102B3000F0F00A2190FBF1F201FB1200401D00F0C1
:102B4000FF0B5A4640215420FEF7E8FD642094FB19
:102B5000F0F00A2190FBF1F201FB1200401D00F0A1
:102B6000FF0B5A4640215C20FEF7D8FD042240218D
:102B70006420FEF7D3FD0A2094FBF0F00A2190FBBD
:102B8000F1F201FB1200401D00F0FF0B5A464021FC
:102B90006820FEF7C3FD0F2240217020FEF7BEFD26
:102BA00009E0042240215420FEF7B8FD0422402110
:102BB0005C20FEF7B3FD112250210020FEF7AEFD90
:102BC000292250210820FEF7A9FD3822502110208B
:102BD000FEF7A4FD292250211820FEF79FFD2B228D
:102BE00050212020FEF79AFD312250212820FEF7A7
:102BF00095FD3C2250213020FEF790FD41225021CE
:102C00003820FEF78BFD032250213E20FEF786FD83
:102C10007848007804287DD1794806687948B6FB61
:102C2000F0F602460023764903C90EF035FD48F65A
:102C3000A041511A73F1000300D3761C42F20F70C9
:102C4000864223D30E2250214420FEF767FD0E2238
:102C500050214C20FEF762FD0E2250215420FEF739
:102C60005DFD042250215C20FEF758FD0E2250210C
:102C70006020FEF753FD0F2250216820FEF74EFD25
:102C8000162250217020FEF749FD5DE0B6F57A7FEF
:102C90000BD34FF47A70B6FBF0F0401D00F0FF0B41
:102CA0005A4650214420FEF739FD642E0ED364208D
:102CB000B6FBF0F00A21B0FBF1F201FB120000F1CB
:102CC000050B5A4650214C20FEF728FD0A2000E053
:102CD000EEE0B6FBF0F00A21B0FBF1F201FB1200CE
:102CE00000F1050B5A4650215420FEF717FD04222F
:102CF00050215C20FEF712FD0A20B6FBF0F100FB2C
:102D0000116000F1050B5A4650216020FEF706FDC8
:102D10000F2200E009E050216820FEF7FFFC162298
:102D200050217020FEF7FAFC0EE0042250210846E4
:102D3000FEF7F4FC042250215820FEF7EFFC042299
:102D400050216020FEF7EAFC07F012FE06462E48EE
:102D50000068361A4FF46160B6FBF0F087B23C2091
:102D6000B6FBF0F03C21B0FBF1F201FB12093C2074
:102D7000B6FBF0F100FB1168222260210020FEF773
:102D8000CDFC312260210820FEF7C8FC35226021ED
:102D90001020FEF7C3FC2D2260211820FEF7BEFC98
:102DA000032260211E20FEF7B9FCB7F57A7F01DB14
:102DB00040F2E737642F0ADB642097FBF0F0401DF8
:102DC00000F0FF0B5A4660212820FEF7A7FC0A2FCF
:102DD0000FDB0A2097FBF0F00A2190FBF1F201FBD8
:102DE0001200401D00F0FF0B5A4660213020FEF714
:102DF00095FC0BE0D80100201C0200201E020020E0
:102E00001002002040190100680200200A2097FBF0
:102E1000F0F100FB1170401D00F0FF0B5A466021DD
:102E20003820FEF77BFC032260214020FEF776FC71
:102E30000A2099FBF0F00A2190FBF1F201FB12004D
:102E4000401D00F0FF0B5A4660214820FEF766FC4B
:102E50000A2099FBF0F100FB1190401D00F0FF0BE0
:102E60005A4660215020FEF759FC03226021582069
:102E7000FEF754FC0A2098FBF0F00A2190FBF1F2D7
:102E800001FB1200401D00F0FF0B5A46602108466E
:102E9000FEF744FC0A2098FBF0F100FB1180401D76
:102EA00000F0FF0B5A4660216820FEF737FCFDE377
:102EB000FE48007801287CD1FD48008800287AD19E
:102EC000112200210846FEF796FC3022002108203E
:102ED000FEF791FC292200211020FEF78CFC3A22FB
:102EE00000211820FEF787FC2F2200212020FEF76A
:102EF00082FC2D2200212820FEF77DFC00221146B5
:102F00003020FEF778FC112200213820FEF773FCF8
:102F1000372200214020FEF76EFC36220021482097
:102F2000FEF769FC2E2200215020FEF764FC3122BE
:102F300000215820FEF75FFC2F2200216020FEF7C1
:102F40005AFC112210210020FEF7E8FB302210214C
:102F50000820FEF7E3FB292210210846FEF7DEFBDE
:102F60003A2210211820FEF7D9FB2F221021202011
:102F7000FEF7D4FB2D2210212820FEF7CFFB0022E4
:102F800010213020FEF7CAFB122210213820FEF754
:102F9000C5FB292210214020FEF7C0FB3C22102156
:102FA0004820FEF7BBFB292210215020FEF7B6FB7C
:102FB0007DE779E0FFE7112200210846FEF7AEFB2E
:102FC000302200210820FEF7A9FB29220021102031
:102FD000FEF7A4FB3A2200211820FEF79FFB2F22C8
:102FE00000212020FEF79AFB2D2200212820FEF749
:102FF00095FB002211463020FEF790FB11220021A4
:103000003820FEF78BFB372200214020FEF786FB9D
:10301000362200214820FEF781FB2E22002150207D
:10302000FEF77CFB312200215820FEF777FB2F2290
:1030300000216020FEF772FB112210210020FEF714
:10304000DAFB302210210820FEF7D5FB29221021BF
:103050000846FEF7D0FB3A2210211820FEF7CBFBE2
:103060002F2210212020FEF7C6FB2D221021282020
:10307000FEF7C1FB002210213020FEF7BCFB12221C
:1030800010213820FEF7B7FB292210214020FEF73F
:10309000B2FB3C2210214820FEF7ADFB2922102173
:1030A0005020FEF7A8FB02E78048007802287DD177
:1030B000112200210846FEF731FB372200210820AB
:1030C000FEF72CFB362200211020FEF727FB2E22D4
:1030D00000211820FEF722FB312200212020FEF7DC
:1030E0001DFB2F2200212820FEF718FB002211468D
:1030F0003020FEF713FB212200213820FEF70EFBC3
:103100002D2200214020FEF709FB34220021482017
:10311000FEF704FB032200215020FEF7FFFA65486A
:103120000088401C0A2190FBF1F090FBF1F201FBBA
:103130001200401D00F0FF0B5A4600215820FEF7F8
:103140005AFB5C480088401C0A2190FBF1F201FB0D
:103150001200401D00F0FF0B5A4600216020FEF7D0
:103160004AFB55480088401C0A2190FBF1F090FB77
:10317000F1F201FB1200401D00F0FF0B5A46102136
:103180000020FEF7CBFA4C480088401C0A2190FB37
:10319000F1F201FB1200401D00F0FF0B5A46102116
:1031A0000820FEF7BBFA0322102100E0D0E2084617
:1031B000FEF7B4FA002610E04048805D00B90EE04A
:1031C0003E49885DFEF729FD8346F11CC906080EBD
:1031D0005A461021FEF7A2FA761C082EECD300BF47
:1031E0004FF0200A0025112251462846FEF796FA94
:1031F0000835112251462846FEF790FA2F48243808
:10320000808838B105F10800C5B20622514628462B
:10321000FEF784FA05F10800C5B20322514628469C
:10322000FEF77CFA25482438448842F21070844224
:103230000EDB05F10800C5B242F2107094FBF0F00D
:10324000401D00F0FF0B5A4651462846FEF766FA2D
:10325000B4F57A7F13DB05F10800C5B24FF47A703C
:1032600094FBF0F00A2190FBF1F201FB1200401DEB
:1032700000F0FF0B5A4651462846FEF74FFA05F17B
:103280000800C5B2642094FBF0F00A2190FBF1F233
:1032900001FB1200401D00F0FF0B5A465146284624
:1032A000FEF73CFA05F10800C5B209E06C01002008
:1032B0006E010020740100205A0200205C0F0020E3
:1032C000042251462846FEF729FA05F10800C5B246
:1032D0000A2094FBF0F00A2190FBF1F201FB1200AE
:1032E000401D00F0FF0B5A4651462846FEF716FADD
:1032F00005F10800C5B20F2251462846FEF70EFA26
:10330000FE48808800287FD00AF1100000F0FF0AF4
:103310000025112251462846FEF700FA08351122F1
:1033200051462846FEF7FAF9083507225146284645
:10333000FEF7F4F90835032251462846FEF7EEF968
:10334000EE48848842F2107084420EDB05F10800DA
:10335000C5B242F2107094FBF0F0401D00F0FF0B7C
:103360005A4651462846FEF7D9F9B4F57A7F13DB61
:1033700005F10800C5B24FF47A7094FBF0F00A2111
:1033800090FBF1F201FB1200401D00F0FF0B5A46CA
:1033900051462846FEF7C2F905F10800C5B264207F
:1033A00094FBF0F00A2190FBF1F201FB1200401DAA
:1033B00000F0FF0B5A4651462846FEF7AFF905F1DB
:1033C0000800C5B2042251462846FEF7A7F905F1C8
:1033D0000800C5B20A2094FBF0F00A2190FBF1F23C
:1033E00001FB1200401D00F0FF0B5A4651462846D3
:1033F000FEF794F905F10800C5B20F2251462846A0
:1034000000E001E0FEF78AF90AF1100000F0FF0A7F
:103410000025112251462846FEF780F9083524225E
:1034200051462846FEF77AF90835032251462846C8
:10343000FEF774F9B148048A42F2107084420EDB40
:1034400005F10800C5B242F2107094FBF0F0401D87
:1034500000F0FF0B5A4651462846FEF75FF9B4F5D7
:103460007A7F13DB05F10800C5B24FF47A7094FB44
:10347000F0F00A2190FBF1F201FB1200401D00F078
:10348000FF0B5A4651462846FEF748F905F1080059
:10349000C5B2642094FBF0F00A2190FBF1F201FB2D
:1034A0001200401D00F0FF0B5A4651462846FEF719
:1034B00035F905F10800C5B2042251462846FEF749
:1034C0002DF905F10800C5B20A2094FBF0F00A219D
:1034D00090FBF1F201FB1200401D00F0FF0B5A4679
:1034E00051462846FEF71AF905F10800C5B2242214
:1034F00051462846FEF712F98048008C00287DD0FE
:103500000AF1100000F0FF0A002524225146284647
:10351000FEF704F90835292251462846FEF7FEF841
:1035200008352A2251462846FEF7F8F808353B228E
:1035300051462846FEF7F2F808353722514628460C
:10354000FEF7ECF805F10800C5B203225146284603
:10355000FEF7E4F86948448A42F2107084420EDBB8
:1035600005F10800C5B242F2107094FBF0F0401D66
:1035700000F0FF0B5A4651462846FEF7CFF8B4F547
:103580007A7F13DB05F10800C5B24FF47A7094FB23
:10359000F0F00A2190FBF1F201FB1200401D00F057
:1035A000FF0B5A4651462846FEF7B8F805F10800C9
:1035B000C5B2642094FBF0F00A2190FBF1F201FB0C
:1035C0001200401D00F0FF0B5A4651462846FEF7F8
:1035D000A5F805F10800C5B2042251462846FEF7B9
:1035E0009DF805F10800C5B20A2094FBF0F00A210D
:1035F00090FBF1F201FB1200401D00E00EE000F034
:10360000FF0B5A4651462846FEF788F805F1080098
:10361000C5B2242251462846FEF780F80AF1100070
:1036200000F0FF0A0025242251462846FEF776F8CE
:1036300008352E2251462846FEF770F80835342208
:1036400051462846FEF76AF8083537225146284683
:10365000FEF764F80835292251462846FEF75EF841
:1036600005F10800C5B23C2251462846FEF756F83F
:1036700005F10800C5B2032251462846FEF74EF870
:103680001E48848A42F2107084420EDB05F1080065
:10369000C5B242F2107094FBF0F0401D00F0FF0B39
:1036A0005A4651462846FEF739F800E052E1B4F593
:1036B0007A7F13DB05F10800C5B24FF47A7094FBF2
:1036C000F0F00A2190FBF1F201FB1200401D00F026
:1036D000FF0B5A4651462846FEF720F805F1080030
:1036E000C5B2642094FBF0F00A2190FBF1F201FBDB
:1036F0001200401D00F0FF0B5A4601E0380F002079
:1037000051462846FEF70AF805F10800C5B2042222
:1037100051462846FEF702F805F10800C5B20A2016
:1037200094FBF0F00A2190FBF1F201FB1200401D26
:1037300000F0FF0B5A4651462846FDF7EFFF05F112
:103740000800C5B2242251462846FDF7E7FFD1E123
:10375000FE48007803287DD1112200210846FDF79C
:10376000DDFF302200210820FDF7D8FF29220021AB
:103770001020FDF7D3FF3A2200211820FDF7CEFFDD
:103780002F2200212020FDF7C9FF2D220021282013
:10379000FDF7C4FF002211463020FDF7BFFF1C22B9
:1037A00000213820FDF7BAFF1D2200214020FDF73F
:1037B000B5FF042200214820FDF7B0FF03220021BD
:1037C0005020FDF7ABFFE2480088401C84B24FF464
:1037D0007A7094FBF0F00A2190FBF1F201FB1200E9
:1037E000401D00F0FF0B5A4600215820FEF703F859
:1037F000642094FBF0F00A2190FBF1F201FB12002F
:10380000401D00F0FF0B5A4600216020FDF7F3FF3A
:103810000A2094FBF0F00A2190FBF1F201FB120068
:10382000401D00F0FF0B5A4600216820FDF7E3FF22
:103830000A2094FBF0F100FB1140401D00F0FF0B4B
:103840005A4600217020FDF7D6FFC2480068401C90
:10385000002800E04BE17DD0BF480068401C0028F4
:10386000F9D0112210210020FDF758FF2922102144
:103870000820FDF753FF382210210846FDF74EFFC0
:10388000292210211820FDF749FF2B22102120208A
:10389000FDF744FF312210212820FDF73FFF3C2295
:1038A00010213020FDF73AFF412210213820FDF78A
:1038B00035FF032210213E20FDF730FFA5480668A2
:1038C00042F20F70864223D30E2210214420FDF7CE
:1038D00025FF0E2210214C20FDF720FF0E22102183
:1038E0005420FDF71BFF042210215C20FDF716FF7A
:1038F0000E2210216020FDF711FF0F2210216820F9
:10390000FDF70CFF162210217020FDF707FF4BE09A
:10391000B6F57A7F0BD34FF47A70B6FBF0F0401D0A
:1039200000F0FF0B5A4610214420FDF7F7FE642EED
:103930000ED36420B6FBF0F00A21B0FBF1F201FBDC
:10394000120000F1050B5A4610214C20FDF7E6FE4F
:103950000A2000E0CEE0B6FBF0F00A21B0FBF1F265
:1039600001FB120000F1050B5A4610215420FDF70F
:10397000D5FE042210215C20FDF7D0FE0A20B6FB04
:10398000F0F100FB116000F1050B5A461021602098
:10399000FDF7C4FE0F2210216820FDF7BFFE16229E
:1039A00010217020FDF7BAFE6B4806684FF4616085
:1039B000B6FBF0F087B23C20B6FBF0F03C21B0FB48
:1039C000F1F201FB12093C20B6FBF0F100FB11689B
:1039D000222220210020FDF7A1FE312220210820F3
:1039E000FDF79CFE352220211020FDF797FE2D22A9
:1039F00020211820FDF792FE032220211E20FDF732
:103A00008DFEB7F57A7F01DB40F2E737642F0ADBE2
:103A1000642097FBF0F0401D00F0FF0B5A46202178
:103A20002820FDF77BFE0A2F0FDB0A2097FBF0F022
:103A30000A2190FBF1F201FB1200401D00F0FF0B88
:103A40005A4620213020FDF769FE0A2097FBF0F14D
:103A500000FB1170401D00F0FF0B5A46202138205A
:103A6000FDF75CFE032220214020FDF757FE0A20CF
:103A700099FBF0F00A2190FBF1F201FB1200401DCE
:103A800000F0FF0B5A4620214820FDF747FE0A2090
:103A900099FBF0F100FB1190401D00F0FF0B5A461E
:103AA00020215020FDF73AFE032220215820FDF767
:103AB00035FE0A2098FBF0F00A2190FBF1F201FBA1
:103AC0001200401D00F0FF0B5A4620216020FDF738
:103AD00025FE0A2098FBF0F100FB1180401D00F04C
:103AE000FF0B5A4620216820FDF718FE02E0002057
:103AF00016490870BDE8F09F00204FF4D2611748C6
:103B000004E04A1E91B200220270401C0029F8D144
:103B1000704700214FF4D262104903E0531E9AB25D
:103B20000870491C002AF9D1704738B50C48007854
:103B3000422802DB00200A4908700948007808285A
:103B400022DA0748007840000CE000006C010020F9
:103B50007A010020C8010020C401002008060020CE
:103B6000D0010020C0EB0010394901EB400000906B
:103B7000384800784000C0F17E0081B20223F02274
:103B8000002000F06DFB3FE032480078082804D1A7
:103B9000FFF7B2FFFEF724FC36E02E480078252818
:103BA00007D1FFF7A9FFFEF75BF80020FEF7EFFA59
:103BB0002AE028480078252813DD26480078263892
:103BC000C4B2A000C0EB0010234908440090C4F127
:103BD0001B008004010C04237822002000F040FB2D
:103BE00012E01C4800780938C4B2A000C0EB0010F5
:103BF000194908440090C4F11B008004010C0423FF
:103C00007822104600F02CFB12480078401C114925
:103C1000087038BD10B50346B3F57A7F08D20F4857
:103C200030F8130008800E4830F81300108007E0C9
:103C30000A48B0F8CE0708800948B0F8CE071080CF
:103C40000888084C20801088074C2080002010BD78
:103C500094250108D0010020080600209A300108B0
:103C6000CA2801081C0200201E02002070B505466B
:103C7000002414E04FF4FA6094FBF0F100FB1140D3
:103C800008B906F006FC002603E000F085FB701C76
:103C900086B242F210708642F7DB601C84B2AC42FE
:103CA000E8DB70BD10B504464FF40050FE490860D3
:103CB00000F072FB8020FD4908604020086000F0A1
:103CC0006BFB04F08000802803D1C001F649086036
:103CD00004E04FF48040F449091D08604FF400509F
:103CE000F149091D086000F057FB4FF40050EE4900
:103CF000086000F051FB04F04000402803D10002AE
:103D0000E949086004E04FF48040E749091D086074
:103D10004FF40050E449091D086000F03DFB4FF4EA
:103D20000050E149086000F037FB04F02000202833
:103D300003D14002DC49086004E04FF48040DA49D6
:103D4000091D08604FF40050D749091D086000F0B4
:103D500023FB4FF40050D449086000F01DFB04F031
:103D60001000102803D18002CF49086004E04FF40E
:103D70008040CD49091D08604FF40050CA49091D13
:103D8000086000F009FB4FF40050C749086000F0DC
:103D900003FB04F00800082803D1C002C2490860F0
:103DA00004E04FF48040C049091D08604FF4005002
:103DB000BD49091D086000F0EFFA4FF40050BA4900
:103DC000086000F0E9FA04F00400042803D10003BD
:103DD000B549086004E04FF48040B349091D08600C
:103DE0004FF40050B049091D086000F0D5FA4FF4B7
:103DF0000050AD49086000F0CFFA04F0020002283C
:103E000003D14003A849086004E04FF48040A6496C
:103E1000091D08604FF40050A349091D086000F017
:103E2000BBFA4FF40050A049086000F0B5FA04F066
:103E3000010020B14FF480409B49086004E04FF43A
:103E400080409949091D08604FF400509649091DAA
:103E5000086000F0A1FA4FF400509349086000F0A8
:103E60009BFA40209149091F086010BD10B5044617
:103E70004FF400508C49086000F08EFA80208B4986
:103E8000091F08604020091D086000F085FA04F051
:103E90008000802803D1C0018349086004E04FF40A
:103EA00080408149091D08604FF400507E49091D7A
:103EB000086000F071FA4FF400507B49086000F090
:103EC0006BFA04F04000402803D1000276490860F4
:103ED00004E04FF480407449091D08604FF400501D
:103EE0007149091D086000F057FA4FF400506E49FF
:103EF000086000F051FA04F02000202803D14002AD
:103F00006949086004E04FF480406749091D086072
:103F10004FF400506449091D086000F03DFA4FF469
:103F200000506149086000F037FA04F010001028D2
:103F300003D180025C49086004E04FF480405A4994
:103F4000091D08604FF400505749091D086000F032
:103F500023FA4FF400505449086000F01DFA04F0B1
:103F60000800082803D1C0024F49086004E04FF45C
:103F700080404D49091D08604FF400504A49091D11
:103F8000086000F009FA4FF400504749086000F05B
:103F900003FA04F00400042803D100034249086036
:103FA00004E04FF480404049091D08604FF4005080
:103FB0003D49091D086000F0EFF94FF400503A49FF
:103FC000086000F0E9F904F00200022803D1400380
:103FD0003549086004E04FF480403349091D08600A
:103FE0004FF400503049091D086000F0D5F94FF436
:103FF00000502D49086000F0CFF904F0010020B115
:104000004FF480402849086004E04FF4804026497E
:10401000091D08604FF400502349091D086000F095
:10402000BBF94FF400502049086000F0B5F940207A
:104030001E49091F086010BD08B50121042006F0C3
:1040400013FC8020ADF8000003208DF80200102042
:104050008DF8030069461548143806F0C3F808BD0A
:104060002DE9F04118250024F420FFF71BFE284617
:10407000FFF718FEF520FFF715FE04F11400FFF717
:1040800011FEF620FFF70EFE05F14F01C8B2FFF753
:1040900009FEF720FFF706FE04F19301C8B2FFF70F
:1040A00001FEF82004E00000100C0140140801405B
:1040B000FFF7F8FD05F00F00FFF7F4FD102141EACE
:1040C0002510FFF7EFFD04F16000FFF7EBFD702115
:1040D00001EB2410FFF7E6FD002614E000270EE0B8
:1040E0004FF0000806E00020FFF7C0FE08F10100D5
:1040F00000F0FF08B8F1040FF5DB781CC7B21E2FE3
:10410000EEDB701CC6B2802EE8DBBDE8F08110B596
:10411000FFF792FF20209F490860C820FFF7A6FD07
:1041200020209C49091F0860C820FFF79FFD25201B
:10413000FFF7B8FD2B20FFF7B5FDC420FFF7B2FD58
:10414000A020FFF7AFFDD120FFF7ACFDD520FFF792
:10415000A9FDC820FFF7A6FD0020FFF7A3FDEB2077
:10416000FFF7A0FDA620FFF79DFDA420FFF79AFD15
:104170008120FFF797FD2520FFF794FDD820FFF75A
:1041800091FDF120FFF78EFD9320FFF78BFDF220CC
:10419000FFF788FD1420FFF785FDF320FFF782FD70
:1041A0009320FFF77FFD8520FFF77CFDFFF758FF89
:1041B000AD20FFF777FD6420FFF758FD10BD2DE916
:1041C000F04118250024F420FFF76CFD2846FFF786
:1041D00069FDF520FFF766FD04F11400FFF762FDAD
:1041E000F620FFF75FFD05F14F01C8B2FFF75AFD5A
:1041F000F720FFF757FD04F19301C8B2FFF752FD16
:10420000F820FFF74FFD05F00F00FFF74BFD1021E1
:1042100041EA2510FFF746FD04F16000FFF742FD7B
:10422000702101EB2410FFF73DFD002614E000276C
:104230000EE04FF0000806E0FF20FFF717FE08F140
:10424000010000F0FF08B8F1040FF5DB781CC7B2DD
:104250001E2FEEDB701CC6B2802EE8DBBDE8F081BD
:104260002DE9FE4F05460E4614461F46032095FBDA
:10427000F0F085B205F1180085B200BFF420FFF719
:1042800011FDE8B2FFF70EFDF520FFF70BFD06F17B
:104290001401C8B2FFF706FDF620FFF703FD032067
:1042A00094FBF0F02844401EC0B20090FFF7FAFCE7
:1042B000F720FFF7F7FC06F114013944491EC8B294
:1042C000FFF7F0FCF820FFF7EDFC05F00F00FFF71B
:1042D000E9FC102141EA2511C8B2FFF7E3FC06F022
:1042E0000F0101F16000FFF7DDFC702101EB2611E9
:1042F000C8B2FFF7D7FC2046E11704EB51714FEA33
:10430000E10808FB07F8A8F101084FF000093CE0BC
:104310004FF0000A2FE04046A8F101080C9911F86F
:1043200000B0002002901FE00BF0030030B1012824
:1043300007D0022808D003280CD108E00020019003
:1043400008E0F020019005E00F20019002E0FF203E
:10435000019000BF00BF0198FFF788FD4FEAAB0B4B
:104360000298401CC0B2029002980428DCDB0AF1DB
:10437000010000F0FF0AE11704EB5171BAEBE10F05
:10438000C9DB09F1010000F0FF09B945C0DBBDE858
:10439000FE8F0000140C014008B50020009002E0E0
:1043A0000098401C009000980228F9DB08BD08B571
:1043B0000121042006F058FA4020ADF80000032047
:1043C0008DF8020010208DF8030069462A4805F098
:1043D00009FF0121082006F047FA46F22000ADF857
:1043E000000003208DF8020010208DF803006946BC
:1043F000224805F0F7FE08BD10B502460C4622B96A
:1044000040201D4B1033186003E040201A4B14333A
:104410001860FFF7C1FF00211EE080200841204006
:1044200028B14FF48040154B1033186004E04FF46E
:104430008040124B143318604FF400500F4B14336C
:104440001860FFF7A9FF4FF400500C4B10331860B1
:10445000FFF7A2FF481CC1B20829DEDB4FF4005071
:10446000064B143318604020034B103318600002D1
:10447000024B1033186010BD00080140000C0140D1
:1044800008B50121042006F0EFF90720ADF800007F
:1044900003208DF8020000208DF803006946F648DD
:1044A00005F0A0FE4FF4C660ADF8000003208DF8C3
:1044B000020048208DF803006946EF4805F092FE9F
:1044C0004FF48470ADF8000003208DF80200102036
:1044D0008DF803006946E84805F084FE01210820B4
:1044E00006F0C2F90320ADF800008DF802000020AC
:1044F0008DF803006946E14805F074FEC020ADF870
:10450000000003208DF8020028208DF80300694682
:10451000DA4805F067FE4FF41040ADF800000320C4
:104520008DF8020010208DF803006946D34805F08D
:1045300059FE4FF44070ADF8000003208DF80200E2
:1045400018208DF803006946CC4805F04BFE012188
:10455000102006F089F93F20ADF8000003208DF807
:10456000020000208DF803006946C54805F03AFEB8
:104570004020ADF8000003208DF8020010208DF8D7
:1045800003006946BE4805F02DFE4FF40050ADF81B
:10459000000003208DF8020028208DF803006946F2
:1045A000B74805F01FFE08BD00B585B001214802DF
:1045B00006F05AF94FF4404006F0BAF800208DF8A2
:1045C00005008DF80400039000904FF460200290E5
:1045D00000208DF810006946AA4804F0AAFE0121C7
:1045E000A84804F0D2FEA74804F0F1FE00BFA54899
:1045F00004F0F2FE0028FAD1A24804F0F7FE00BF52
:10460000A04804F0F8FE0028FAD105B000BD00B5BE
:1046100087B00121042006F034F90121042006F0BE
:104620004AF90021042006F046F90020ADF81000F8
:10463000ADF81600ADF812004FF41650ADF81400A6
:1046400000208DF8180004A98F4806F0D7FB01213F
:104650008D4807F02FF86020ADF8000041F6FF709C
:10466000ADF806000020ADF808000120ADF802000A
:104670000020ADF80C00ADF80E00ADF80A00ADF862
:1046800004006946804806F085FC04217E4807F056
:1046900083F808217C4807F053F869467A4806F009
:1046A000C4FC0421784807F080F80821764807F018
:1046B00050F800220121744806F017FF01217248CA
:1046C00007F0BEF90121704806F0F4FE07B000BD06
:1046D00010B5FFF7D5FEFFF767FFFFF798FF10BD96
:1046E00010B50446002301222146664804F0B9FEB5
:1046F0000121644804F089FE00BF0221614804F0F2
:10470000F5FF0028F9D05F4804F012FF10BD024603
:104710005E4B1B88934201DCE22016E05B4BB3F852
:104720003A31934201DB7F200FE000210AE0574B32
:1047300033F81130934203DCA1F11E03D8B203E039
:104740004B1C19B29E29F2DB00BF704710B5002048
:10475000FFF7C6FF044640F60C60844203DD0020EC
:104760004B4908701AE040F60C20844203DD01201A
:104770004749087012E040F21E60844203DD0220C7
:10478000434908700AE040F21E20844203DD032002
:104790003F49087002E004203D49087010BD3C48C4
:1047A00000783C4908703C48007848B908460078D1
:1047B0003A49087000203A4908703A490870704731
:1047C0003448007835490978884214D03348007855
:1047D00030B901203249087000203349087002E0E6
:1047E00000202F49087000203049088029480078AF
:1047F0002A49087009E02D480088B0F57F4F04DA97
:104800002A480088401C2949088000202549087052
:104810002048007800B9D2E72148007800B9CEE7F7
:10482000224800880C2825D11A480078012804D194
:104830001C4908701C4908701CE0164800780228C2
:1048400005D11849087001201749087012E0114875
:104850000078032805D11349087001201249087017
:1048600008E00C480078042804D10E4908700120A3
:104870000D49087000BFA2E700080140000C01408C
:104880000010014000240140000800408E2701086C
:104890002E02002031020020DB0100203002002027
:1048A0002F0200202D0200204C02002034020020A4
:1048B00038B5FA480078042803D10020F849087078
:1048C00038BDF848007800B9FAE7F548007888B9AB
:1048D000F448007803280CD10120F1490870002029
:1048E000F14908804FF6FF70F04908800220F04936
:1048F000088020E1EA48007801285AD1E948007888
:10490000032803D10020E649087014E1E548007847
:1049100001280ED1E4480088401CE349088008467D
:104920000088E34909888842E3DB0020DE490880EB
:1049300001E1DC48007802280ED1DB48008828B16C
:10494000D9480088401ED8490880F4E0D84800883B
:10495000401ED5490880EEE0D24800780428C8D12E
:10496000D148008850B90220CD4908703220D14981
:104970000880D1480088D1490880DCE0CA48008816
:104980000128B6D10320C6490870CD48008828B157
:10499000CB480088401ECB49088002E00020C9496E
:1049A0000880C8480088C84908800420C7490870A2
:1049B000C1E0BB48007802286CD1BA4800780328CF
:1049C00009D10120B64908700020B74908800220AB
:1049D000B7490880AFE0B348007801281DD1002412
:1049E00000BF601CC4B2B5480088401CB3490880B1
:1049F00008460088AF490988884202DB0020AF4999
:104A000008806946AD48008802F071FC9DF80000FE
:104A100000288DD1322CE4DB8DE0A24800780228FA
:104A20001DD1002400BF601CC4B2A448008828B176
:104A3000A2480088401EA149088004E09D480088E3
:104A4000401E9E49088069469C48008802F04FFC41
:104A50009DF8000000286ED1322CE4DB6BE0914819
:104A60000078042867D195480088994908809949B9
:104A70009248008802F0B0FB974908600846006839
:104A800018B98E4800888C4908808B48008802F04D
:104A90007FFC50E08248007803284CD181480078A0
:104AA000032808D101207E4908707F490880022030
:104AB0007F4908803FE07B480078012816D1042018
:104AC00082490870401F85490860854908607E4812
:104AD0000088401C7C49088008460088794909887C
:104AE000884228DD00207849088024E06D4800785D
:104AF000022815D1042075490870401F77490860C5
:104B0000774908607048008828B16F480088401EC7
:104B10006D4908800FE06B4800886B4908800AE007
:104B200060480078042806D16648008818B16648B5
:104B300000886C49088000BFC2E610B56A4800785A
:104B4000B8B14FF40071694805F0DFFB68B16848FF
:104B50000078401C6649087008460078052820DB6C
:104B600000200870604908701BE000206049087050
:104B700017E04FF400715D4805F0C7FB70B95C4861
:104B80000078401C5A49087008460078052808DB60
:104B90000020087001205449087002E000205449A8
:104BA000087054480078B8B14FF480614F4805F060
:104BB000ACFB68B150480078401C4F49087008466B
:104BC0000078052820DB002008704A4908701BE0A7
:104BD00000204949087017E04FF48061434805F010
:104BE00094FB70B944480078401C4349087008465B
:104BF0000078052808DB0020087001203D49087076
:104C000002E000203C4908703C480078B0B1202107
:104C1000364805F07AFB68B139480078401C3849BD
:104C200008700846007805281FDB0020087033490B
:104C300008701AE000203249087016E020212B4845
:104C400005F063FB70B92E480078401C2C490870B1
:104C500008460078052808DB002008700120274955
:104C6000087002E00020264908702648007890B1BC
:104C700010211E4805F049FB70B923480078401CFC
:104C8000214908700846007805285ADB0020087082
:104C90001C49087055E03DE038E00000D8010020D4
:104CA0006C0100202D0200206E0100207201002006
:104CB00070010020760100205A02002074010020BB
:104CC0005E0200207C0100207A01002037020020D3
:104CD00078010020380F0020C0010020C80100200A
:104CE000C40100207E010020F001002000080140E6
:104CF0004D020020F10100204E020020F2010020B0
:104D000050020020F30100204F0200200020FE4945
:104D1000087016E01021FD4805F0F7FA70B1FA4866
:104D20000078401CF849087008460078052808DB20
:104D3000002008700120F649087002E00020F249C6
:104D40000870F448007838B1F34800783C280ADA53
:104D50000020F049087006E0EF480078502802DD96
:104D60000120EC49087010BD10B5EC48007800B97E
:104D700010BDEB480078032803DD0020E8490870E7
:104D8000F6E7002407E0E749085DFFF7A9FCE649DC
:104D900021F81400641C052CF5DBE1480078D0B93B
:104DA0000120DF490870002412E0DF4830F81400C9
:104DB000DE4921F81400DC4830F81400DC4921F801
:104DC0001400D94830F81400DA4941F82400641C72
:104DD000052CEADBCCE7002426E0D34830F81400A9
:104DE000D24931F81410884205DDCF4830F814005C
:104DF000CE4921F81400CC4830F81400CC4931F8E1
:104E00001410884205DAC84830F81400C84921F85F
:104E10001400C84850F82400C34931F8141008445D
:104E2000C44941F82400641C052CD6DBBC4800783A
:104E300003281AD1002410E0BE4850F82400BB49D2
:104E400031F81410401ABA4931F81410401AC0F35E
:104E50004F00B94921F81400641C052CECDB00203C
:104E6000AE490870AE49087082E7AD480078401C32
:104E7000AB49087000BF7BE7B048007800B17047CD
:104E8000AF480068401CAE49086000BFF7E700204B
:104E9000AB490860A94908707047A9480068704785
:104EA00070B50920FFF71CFC05460120FFF718FC30
:104EB00004460120A34908700420A349087070BD6E
:104EC00010B50220FFF70CFC044600209F49087033
:104ED00010BD70B58CB0FFF7E3FF01209C4908704E
:104EE00005F046FD9B4908609B499C4802F001FB88
:104EF00038B140F667309949088040F24D609649D4
:104F0000088001F056FB00287ED00024C7E004EBA7
:104F1000440000EBC400924931F82000ADF80000D5
:104F200004EB440000EBC40001EB80004088ADF8C6
:104F3000020004EB440000EBC40001EB8000808819
:104F4000ADF8040004EB440000EBC40001EB80006A
:104F5000C088ADF8060004EB440000EBC40001EB90
:104F600080000089ADF8080004EB440000EBC400A9
:104F700001EB80004089ADF80A0004EB440000EB2F
:104F8000C40001EB80008089ADF80C0004EB440004
:104F900000EBC40001EB8000C089ADF80E0004EB0B
:104FA000440000EBC40001EB8000008AADF8100063
:104FB00004EB440000EBC40001EB8000408AADF834
:104FC000120004EB440000EBC40001EB8000808A77
:104FD000ADF8140004EB440000EBC40001EB8000CA
:104FE000C08BADF81E0004EB440000EBC40001EBE5
:104FF0008000C08AADF8160004EB440000EBC4004A
:1050000001EB8000008B00E0CFE0ADF8180004EB6E
:10501000440000EBC40001EB8000408BADF81A00A7
:1050200004EB440000EBC40001EB8000808BADF882
:105030001C0004EB440000EBC40001EB8000008C7A
:10504000ADF8200004EB440000EBC40001EB80004D
:10505000408CADF8220004EB440000EBC4000A468B
:1050600002EB800000F12401082209A801F04CFAAB
:105070005520ADF82C002E21684601F05CFAADF801
:105080002E00A0B2694601F0FAFF064606B109E01B
:10509000052C03D1002002F07BF90646641C062C87
:1050A000FFF635AF00BF01F084FA00287DD005205F
:1050B0002C49087024480078451CC5EB051000EB0E
:1050C00080002949088005EB4500C0EBC5104FF66C
:1050D000FF7101EA80002449488000208880C5EBE8
:1050E000051000EB8000C880C5EB051000EB8000C8
:1050F0000881C5EB051000EB80004881114800785D
:10510000451C40F28F1031E04F02002000080140A2
:10511000F3010020F401002018020020E401002027
:10512000E501002074270108980C0020A20C002043
:10513000AC0C0020B80C0020CC0C0020F5010020A5
:105140003C02002026020020270200202802002026
:10515000DC0100206802002024020020220200203E
:105160006A380108D8010020380F002068434FF644
:10517000FF7101EA4000FA49888140F23D2068430E
:105180004FF6FF7101EA4000F549C881C5EB0510F3
:1051900000EB40004FF6FF7101EA4010F049088231
:1051A00005EB851000EB400000E020E04FF6FF71BA
:1051B00001EAC000EA49488240F2591068434FF6BC
:1051C000FF7101EA8000E64988824FF43470C88399
:1051D0007820C8824FF407700883002048834FF47A
:1051E000D2708883002008844EF66020488409200D
:1051F000FFF776FA0546C82D03DA0320D94908706F
:1052000002E00120D74908700120D7490870FFF754
:105210003EFE0CB070BD10B504462146D34806F0E2
:10522000E5FB10BD10B504462146D04806F0E0FB72
:1052300010BD10B5CE48007888B3CE480078092854
:105240002ED2DFE800F00506072D142D1D222700C1
:1052500027E026E0C8480088C8490880C848008878
:10526000C8490880C6480088C749088019E0C7486F
:105270000078C7490870C7480078C749087010E02F
:10528000C6480078C64908700BE0C6480078C64991
:10529000087006E0C5480078C549087001E001E0E3
:1052A00000BF4FE0C348007878B3B248007830B10F
:1052B000012805D0022804D0042824D10AE023E0E4
:1052C00022E0B2480078B2490870B4480078B44986
:1052D000087019E0AF480078AF490870B34800780B
:1052E000B3490870AF480078AF490870A2480088F9
:1052F000A2490880A2480088A2490880A0480088E6
:10530000A149088000E000BF1CE0FFE79F4800784B
:105310009F490870A1480078A14908709D4800780D
:105320009D490870A1480078A14908709D480078FF
:105330009D490870904800889049088090480088EE
:10534000904908809848007828B14FF480519A48D5
:1053500004F0F5FF04E04FF48051974804F0F1FFAA
:105360008F48007828B14FF48071944804F0E7FF2B
:1053700004E04FF48071914804F0E3FF8448007822
:1053800020B140218E4804F0DAFF03E040218C4830
:1053900004F0D7FF8648007820B10821874804F040
:1053A000CEFF03E00821854804F0CBFF7A4800785F
:1053B00028B14FF40041804804F0C1FF04E04FF4ED
:1053C00000417D4804F0BDFF7E48007818B1002000
:1053D00006F06CFD02E0002006F070FD7A480078CF
:1053E00018B1012006F062FD02E0012006F066FD22
:1053F0007648007818B1022006F058FD02E002203D
:1054000006F05CFD72480078401C7149087008463F
:1054100000780A2800DA10BD00206D4908705A484B
:1054200000885849098888420FDA57480088603058
:10543000554908800846008852490988884221DD7C
:1054400050480088504908801CE04F4800884D496A
:105450000988884216DD4C480088602805DB4A48E8
:10546000008860384849088002E0002046490880EA
:105470004548008843490988884203DA4148008842
:105480004149088040480088FFF7C5FE3B48008836
:10549000FFF7C8FE00BFBEE74E480078401C4D49EC
:1054A000087008460078322809DB002008704A4856
:1054B000007808B9012000E000204749087000206A
:1054C00040490870404908704049087025480078F4
:1054D000062843D2DFE800F003070C0D35A10120B8
:1054E0003A490870D3E03C48007837490870CEE06C
:1054F000CDE03A480078401C3849087008460078EA
:1055000032280CDB0020087035480078401C3449F4
:10551000087008460078032801DB00200870304836
:10552000007818B901202749087009E02C48007854
:10553000012802D12449087002E0012023490870A3
:10554000A5E028480078062864D2DFE800F0034D83
:105550005155595F01201C4908705CE096E000003D
:10556000380F0020D8010020DB0100200008004097
:10557000DF010020DE010020E8010020FE01002004
:10558000EA01002000020020EC010020FC010020C4
:1055900006020020F901002003020020FA01002089
:1055A00004020020FB01002005020020F801002079
:1055B00002020020E0010020000C01400008014030
:1055C000001001400702002008020020090200200C
:1055D00051020020550200205402002052020020F7
:1055E00053020020D90100200120FE49087012E07A
:1055F0000120FC4908700EE00120FA4908700AE019
:105600000120F8490870F849087004E00120F649C3
:10561000087000E000BF00BF39E0F44800780428BB
:105620001CD006DC01280BD0022816D003282BD171
:1056300019E005281BD006281AD0FF2824D118E02D
:10564000EB480078EB490870E9480078E5490870B4
:10565000E7480078E449087016E015E0E44800786F
:10566000E449087010E00120E24908700CE000BF36
:1056700000BFDF48007818B10120DE49087002E061
:105680000120D849087000BF00BF00E000BF00BF84
:1056900070477CB5D848007898B1D7480078401E4C
:1056A000D5490870D548007803280AD10846007803
:1056B00038B9D3490988491C88B2D24AD24901F085
:1056C0008EFBD248007868B1D1480078401CD049A0
:1056D000087008460078082814DB00200870CB49C1
:1056E00008700FE0CB48007860B1C9480078401CD2
:1056F000C749087008460078052803DB00200870B9
:10570000C2490870C4480078002844D10120C34928
:105710000870C14908700020C1490870C14800786C
:10572000042802DB0020BF490870BF48C488BF4876
:10573000BC49097830F811004443BD480088B4FBE7
:10574000F0F4BC490C80B8480489B848B5490978D8
:1057500030F811004443B6480088B4FBF0F4B64971
:105760000C80B1480488B548B549097830F8110073
:105770004443B4480088B4FBF0F4B3490C80AA4910
:105780004888FEF7C4FFB1490870A7498888FEF72A
:10579000BEFFAF4908700020AE490870AE490870DE
:1057A000AE490870AE490870AE490870AE4908802D
:1057B000AE4908809948007800B97CBDAC480078B3
:1057C00006287DD2DFE800F00327C4FEFDFC0020A0
:1057D000A8490870A848007858B10520A449087065
:1057E000042082490870FFF752FB0120A14908708C
:1057F00010E0A248007810B9A148007850B1052007
:105800009B490870FF2079490870FFF740FB012091
:1058100098490870F2E39948007870B99848007880
:1058200058B99548007840B99648007828B9FFF7EC
:105830002EFB01208F49087089E0904800780028ED
:1058400077D18F480078002873D18B4800780028E2
:105850006FD18C48007800286BD0FFF71EFB022820
:1058600075D372486F49097830F811004000032160
:1058700090FBF1F06F49098888420BDD05207C49D7
:105880000870032059490870FFF701FB012079498E
:1058900008705CE07C480078002858D104207449E6
:1058A0000870FFF7F4FA0120724908707748008801
:1058B000401C764908800846008842F2107100E0DA
:1058C000FCE3884202DD01207049088070480088AE
:1058D00042F21071884204DA6D480088401C6C491D
:1058E00008806C480088401C6A49088000206A498A
:1058F00008606A4908706A4908706A496348008804
:1059000000F027FE05F034F8674908600021674A77
:10591000116051600020664908803D4908703D498A
:1059200008700120394908700020624908700EE0B3
:10593000FFE75148007850B105204D490870042018
:105940002A490870FFF7A3FA01204A49087061E765
:105950005948048A4FF4E1404443344831490978B6
:1059600030F81100B4FBF0F4C4F38F003E49088016
:1059700042F28A503D490880084600884F49088015
:105980000120364908703B48007818B10020394999
:1059900008709EE04848008A00EBC0000A2190FB96
:1059A000F1F025490988884210DC4348008A00EB61
:1059B000400101EBC0000A2190FBF1F01E4902E01A
:1059C000FEE3C1E086E0098888427ADA05202849AA
:1059D0000870012005490870FFF759FA0120254990
:1059E000087076E00802002009020020DA01002099
:1059F0005402002007020020370200206C01002022
:105A00007A010020C4010020C8010020DF0100202D
:105A1000DE010020E0010020E40100202902002036
:105A2000E501002026020020CC0C00207A27010886
:105A3000220200201C0200201A02002082270108F6
:105A400027020020240200201E020020180200204D
:105A500019020020FB010020FA010020FC010020B7
:105A6000F8010020F9010020E8010020EA010020EF
:105A7000D8010020DC010020F1010020F20100200B
:105A8000F3010020F0010020DD0100205E02002073
:105A9000600200206202002064020020D901002080
:105AA0002A020020640F002068020020100200205B
:105AB000200200202C020020380F0020EC010020E2
:105AC000FFE70120F8490870FFF7E1F90120F749E5
:105AD00008709FE6F648048A4FF4E1404443F548D5
