:020000040800F2
:10000000C0290020D979000881070008830700086B
:10001000870700088B0700088F0700080000000012
:10002000000000000000000000000000930700082E
:1000300095070008000000009707000899070008CE
:10004000F3790008F3790008F3790008DB0700086A
:10005000F3790008F3790008F3790008F3790008D0
:10006000F3790008F3790008F3790008F3790008C0
:10007000F3790008F3790008F3790008F3790008B0
:10008000F3790008F379000825080008F3790008DF
:1000900001080008F3790008F3790008F3790008F3
:1000A000F379000827080008F3790008F3790008BD
:1000B000F3790008F3790008F3790008F379000870
:1000C000F3790008F3790008F3790008F379000860
:1000D000F37900089B070008F3790008F37900081A
:1000E000F3790008F379000819080008F37900088B
:1000F000F3790008F3790008F3790008F379000830
:10010000F379000809080008F3790008F37900087A
:10011000F3790008F3790008F3790008F37900080F
:10012000F3790008F3790008F37900081108000852
:1001300000F002F800F05EF80AA090E8000C82449B
:100140008344AAF10107DA4501D100F053F8AFF278
:10015000090EBAE80F0013F0010F18BFFB1A43F0A5
:1001600001031847183D0100383D01000A444FF0D3
:10017000000C10F8013B13F0070408BF10F8014B06
:100180001D1108BF10F8015B641E05D010F8016B4B
:10019000641E01F8016BF9D113F0080F1EBF10F8AF
:1001A000014BAD1C0C1B09D16D1E58BF01F801CBD2
:1001B000FAD505E014F8016B01F8016B6D1EF9D555
:1001C0009142D6D37047000000230024002500266A
:1001D000103A28BF78C1FBD8520728BF30C148BFAA
:1001E0000B6070471FB59DE8030011F097FA1FBD23
:1001F00010B510BD11F020FB1146FFF7F3FF00F022
:10020000B9F911F03EFB03B4FFF7F2FF03BC11F0A4
:100210006BFB000010B5002000F0F8F910BD08B528
:100220000AF008F94FF480300AF024F90020009019
:1002300002E00098401C00900098B0F5A04FF8D361
:100240000AF057F9C249087008460078012824D1FD
:1002500000200AF094F900200AF0A3F94FF480601E
:100260000AF096F94FF400400AF0B5F94FF4E011A6
:100270004FF480300AF066F901200AF06FF900BFF0
:1002800039200AF01AF90028FAD002200AF069F998
:1002900000BF0AF06FF90828FBD108BD10B5FFF7C1
:1002A000BEFFFFF7B7FF10BD10B500200AF090F9B0
:1002B0000121C8050AF035FA10BD0320A5490860E0
:1002C000704710B5A44CA07A18B10520A149086068
:1002D00002E001209F490860FFF7E0FF10BD08B56C
:1002E0004FF4A06008F0E8FE14208DF80000022012
:1002F0008DF8010000208DF8020001208DF8030028
:10030000684608F0DEFE2A208DF8000000208DF8F7
:10031000010001208DF80300684608F0D2FE08BDF8
:1003200008B54FF4A06008F0C7FE31208DF800003A
:1003300000208DF801008DF80200684608F0C1FE2B
:100340003B208DF8000000208DF80100684608F081
:10035000B8FE03208DF8000000208DF801006846EB
:1003600008F0AFFE19208DF8000000208DF8010084
:1003700001208DF802008DF80300684608F0A1FE08
:1003800008BD10B500200BF0CBFC01200BF0C8FC21
:1003900002200BF0C5FC00200BF0E4FC01200BF068
:1003A000E1FC02200BF0DEFC10BD70477047704787
:1003B000704710B504462CB14FF48051674809F0DE
:1003C00014FF04E04FF48051644809F00CFF10BDA5
:1003D00008B5012104200AF097F94FF48050ADF8D8
:1003E000000003208DF8020014208DF803006946F8
:1003F0005A4809F04DFE08BD10B5FFF755FFFFF74D
:100400006EFFFFF7E5FF4FF4802009F0FAFA4FF492
:1004100080205349086008204871012088710846EF
:1004200009F078FA08F074F810BD0EB50121C80281
:100430000AF06AF94FF47A70ADF804004720ADF87D
:1004400000000020ADF80600ADF802008DF80800AD
:10045000694644480AF026FC012142480BF044FA60
:10046000012211463F480AF094FF01213D480AF05D
:1004700075FF0EBD1FB54FF4965000900020ADF8EB
:100480000400ADF80600ADF80800ADF80C000C2033
:10049000ADF80A00694600200BF085FC20213248A7
:1004A0000BF024FC802130480BF020FC20212E484A
:1004B0000BF0E9FB80212C480BF0E5FB1FBD70B56C
:1004C00005460E4600240BE0295D27480BF060FB33
:1004D00000BF802124480BF0C9FB0028F9D0641C20
:1004E000B442F1D370BD30B50B46002100BF16E019
:1004F0000A24B4EB107F05D9302404EB107403F800
:10050000114005E0412404EB10740A3C03F811404B
:10051000000100254C00641C1D554C1CE1B29142A9
:10052000E6DB30BD70B511480468001D0568001D8C
:100530000668344454B108220D492046FFF7D3FF22
:1005400004220B4910312846FFF7CDFF70BD000093
:10055000050000205C010020541E0020000801401E
:1005600008000020002C014000380140E8F7FF1F80
:100570005A000020FFF792FEFFF703FFFFF7D0FEBF
:10058000FFF753FF0BF06EFDFFF736FF03F0E5FEBC
:1005900003F093FD0BF084FE09F0CFFE04F06EF83B
:1005A00004F06DFC00BF1648007820B1002014490B
:1005B000087006F0B6FF13480078A0B1002011497A
:1005C000087009F0BAFE04F0A5FB04F095F804F0F9
:1005D000BCF804F043F904F086FA04F000FE03F0DE
:1005E0007AFA04F02FFF084800780028DBD00020BA
:1005F0000549087005F023F806F07EFFD3E70000F8
:1006000011000020120000201300002070B50446E5
:10061000002524B90CF05CFC5449086001E001207D
:1006200070BD00BF2846FBE72DE9F8430446154698
:100630001E46DDE90878C4B92A4633463846CDF867
:1006400000800CF02BFF494908600DF02FF8474956
:10065000086000BF0CF0CDFC0028FBD143480068C7
:1006600010B10120BDE8F88301E00120FAE700BFE6
:100670000020F7E72DE9F843044615461E46DDE95C
:100680000878B4B92A4633463846CDF800800CF0D5
:10069000CBFD0CF0D0FE3549086000BF0CF0A9FC82
:1006A0000028FBD13148006810B10120BDE8F88373
:1006B00001E00120FAE700BF0020F7E770B504462B
:1006C00000250026002C4ED10CF002FC00284AD157
:1006D00027480CF04CF82649B1F8541008040CF0E7
:1006E0002EF82348007E851C214890F856000228E9
:1006F00006D11F480069401C80021E49086012E0B4
:100700001B490A7A012101FA02F0C11700EBD1510D
:100710004E1217480069401C0121A9404843710846
:100720008840144908604FF400701349086010496C
:10073000B1F8541008040CF002F80C4908604FF4AA
:1007400000600BF0AAFF094908600846006808B17C
:10075000012070BD074800680749096848430749F8
:1007600008600020F5E70120F3E7000024000020E6
:1007700068030020380000203000002028000020FE
:10078000704700BFFEE700BFFEE700BFFEE700BF07
:10079000FEE7704770477047704710B540F225512B
:1007A0003A480BF079FA20B140F2255137480BF066
:1007B0005DFA40F2277135480BF06EFA20B140F235
:1007C000277132480BF052FA082130480BF04EFAEC
:1007D00010B12E480BF0E0F910BD10B501200AF061
:1007E0008EF828B101200AF09AF801202849086003
:1007F00002200AF084F810B102200AF090F810BD2F
:1008000010B500F075F910BD10B50DF0FAF810BD77
:1008100010B50DF047F910BD10B54FF4802009F068
:10082000F0F810BD704710B501211A480BF070F8B0
:1008300001201949087019480078401C17490870B0
:10084000084600780A281FDB0020087001201449A0
:10085000087014480078401C124908700846007857
:10086000322811DB0020087001200F4908700F4862
:10087000007808B9012000E000200C490870084603
:10088000007808B104F0CEFA10BD00000038014035
:10089000A4020020002C0140110000204100002093
:1008A000120000204000002013000020140000204F
:1008B0000CB50020019000906B48006840F4803037
:1008C0006949086000BF6848006800F40030009083
:1008D0000198401C0190009818B90198B0F5A06FDC
:1008E000F1D16148006810F4003F02D0012000906F
:1008F00001E0002000900098012842D15B48006888
:1009000040F01000594908600846006820F00300D4
:1009100008600846006840F00200086052484068DD
:10092000514948600846406848600846406840F4BD
:10093000806048600846406820F47C1048600846A3
:10094000406840F4E81048600846006840F0807055
:10095000086000BF4448006810F0007FFAD04248A9
:10096000406820F00300404948600846406840F075
:100970000200486000BF3C48406800F00C000828B6
:10098000F9D10CBD10B5FFF793FF10BD10B5364877
:10099000006840F001003449086008464068344966
:1009A00008403149486008460068324908402E49ED
:1009B00008600846006820F4802008600846406807
:1009C00020F4FE0048604FF41F008860FFF7DAFF54
:1009D0004FF000602849086010BD10B500210020CC
:1009E0000022214B5B6803F00C0121B1042906D0E1
:1009F000082928D107E0214B214C236027E01F4B19
:100A00001F4C236023E0184B5B6803F47010164BF7
:100A10005B6803F48032022303EB904022B9194B48
:100A20004343174C23600DE00F4B5B6813F4003F0A
:100A300004D0144B4343124C236003E00F4B434359
:100A40000F4C236003E00D4B0D4C236000BF00BF33
:100A5000054B5B68C3F303130B4CE15C084B1B684D
:100A6000CB40074C236010BD001002400020024024
:100A70000000FFF8FFFFF6FE08ED00E000127A002C
:100A80004400002000093D00480000202DE9F0410D
:100A90004FF00008002500261149012008F0F1FA66
:100AA0000746402F10D10F48007868B90C4E0E4D04
:100AB000002404E0306828602D1D361D641C102CB5
:100AC000F8D30120074908704FF44051012007F086
:100AD00052FFBDE8F0810120044908707047000012
:100AE000C00300206D020020000400201000002040
:100AF00010B588B000246348006863490880084640
:100B0000008800F4004061490988084201D007F0DC
:100B10001DFD5D48008800F480605C49098808423A
:100B200006D04FF6FF30574908605949486880475A
:100B30005548008800F4005054490988084203D001
:100B40004DF6FF704F4908604F48008800F4805010
:100B50004E490988084206D04EF6FF7049490860A0
:100B6000002000F07EFA4848008800F40060474901
:100B70000988084209D04748007810B9022000F0DF
:100B800070FA4FF2FF703F4908603F48008800F458
:100B900000703E490988084208D04FF6FF50394995
:100BA00008603D480078401C3B4908703648008882
:100BB00000F4807035490988084261D04FF6FF6023
:100BC00030490860081D006810F4004F52D03348C7
:100BD0000068401C314908600846006803284CD969
:100BE0002848001F006810F0080F46D12548001F54
:100BF000006880B22A490860002407E02148443890
:100C000050F8240080B24DF82400641C082CF5D361
:100C10002348006840F00100214908600846006848
:100C200080B21849091F08601D48006820F00100C3
:100C30001B4908600846006880B21249091F086015
:100C400000BF1048006810F4806FFAD04FF6FF30F4
:100C50000C490860002407E05DF8240080B20949CF
:100C6000443941F82400641C082CF5D300200B49BA
:100C7000086002E0002009490860072000F0F1F94F
:100C800008B010BD445C0040B8000020860200207F
:100C9000C0000020600100207400002078000020C7
:100CA0007C00002010B5FFF73DFC00208A49096850
:100CB000887200F029F908F0BFF900208749086020
:100CC00010BD10B5002084490968887282490968FE
:100CD000C8728348C079804909684872002007F0CB
:100CE00001FE4FF40071002007F014FE10210020D7
:100CF00007F025FE1821002007F0B0FF5821002042
:100D000007F09FFF002007F0C5FE764890F82C10F2
:100D1000002007F0EEFF002007F087FE4FF4C061CF
:100D2000012007F0F7FD4FF48071012007F089FFE3
:100D30004FF48271012007F091FF4021012007F05C
:100D4000B7FF4021012007F0D4FF4FF440510120AC
:100D500007F011FE2021012007F0F1FD002007F02F
:100D60004CFB01205D49086010BD5B480068807A3B
:100D700010B10520594908607047042057490860A0
:100D8000704770477047014629B90220524A1268DD
:100D90001082002070475448FCE7014629B9012021
:100DA0004D4A12681082002070475048FCE710B589
:100DB00004464F49204607F00FF810BD10B5044611
:100DC0004C49204607F008F810BD70B5054642486A
:100DD0000068808808B1022070BD0024062D16D15D
:100DE0003D480068007800F07F0001280FD13A48A4
:100DF00000688078222802D1AFF23F041EE0364816
:100E000000688078212819D1AFF25D0416E03248DD
:100E10000068007800F07F0021280FD1032D02D058
:100E2000092D09D102E0AFF28D0406E0AFF2A9046A
:100E300009203149087000E000BF00BF0CB9022052
:100E4000CAE7254800688461002123480068418280
:100E50000020A0470020BFE71F480068C178234852
:100E600001600020704700B502461B48006800780A
:100E700000F07F00212804D10B2A02D1FFF7ECFFFC
:100E800000BD0220FCE710B504461C49204606F0D0
:100E9000A3FF10BD10B504461949204606F09CFF7B
:100EA00010BD70B505460C480068C478042C01DDFF
:100EB000002070BD134800EBC401284606F08CFFEB
:100EC000F7E70246002901DD02207047002A01DD14
:100ED0000220FAE70020F8E77C0200205C010020F5
:100EE00046190108C00000205901002054010020CB
:100EF0002C01002024010020BC000020140100204F
:100F00001C0100203401002010B50120FFF751FA28
:100F10000124844804600020834908800846008832
:100F2000804908600020091D08604FF4E0507E49A8
:100F30000880084600887B490860002010BD10B575
:100F40000120784908600020091D0860FFF731FA88
:100F5000032074490860002010BD18B5002100224C
:100F6000002300936F4B1B6898B200BF08E06D4BE5
:100F7000403B53F821309BB26C4C44F82130491C63
:100F80000829F4D340F48060664B186040F00100FB
:100F9000186020F00100186000BF624B1B1D1B6829
:100FA00013F4806FF9D04FF6FF335E4C241D23609D
:100FB000002108E05D4B53F821309BB2594C403C76
:100FC00044F82130491C0829F4D340F00800554B5F
:100FD00018601B6898B240F00400524B1860544BE4
:100FE0001B680093524B1A6822F0030242F0010280
:100FF0001A60504B1B6843F004034E4C2360494B6E
:101000001B1D1B6813F4805F06D130BF23461B688D
:1010100023F00403236014E04EF6FF73414C241DBB
:101020002360231F1B6898B220F00800231F18605C
:101030003F4C009B23603F4B1B6823F004033D4C57
:10104000236018BD10B53748006884B224F004044A
:1010500034480460FFF735F94FF43F4031490860E8
:1010600010BD70B50546072D01D0334805703248D4
:10107000007808284ED2DFE800F004111A202B383F
:101080004E4F2E48006828B9FFF7DCFF06202A499A
:10109000087002E005202849087041E0FFF7D2FF00
:1010A00004202549087001202449086038E0022006
:1010B000214948700320087032E01F484078401EE4
:1010C0001D4948700846407808B90420087027E098
:1010D0001448006884B244F01004124804600520EB
:1010E000154908700A2048701AE013484078401EDD
:1010F000114948700846407858B90A48006884B2D7
:1011000024F01004074804600620087000200B49F2
:10111000086005E000BF00BF06200749087000BF57
:1011200000BF70BD405C00408602002040040020EB
:101130000070004010ED00E0680100206401002014
:10114000C1F16F0211B2FA4A1080FA4A1180704759
:1011500010B5702900DB10BD7822B2EBE00F00DC87
:10116000F9E7002901DB002800DAF4E7C1EB0112FE
:10117000F14B1A4402EBE002127800F00703EF4C47
:10118000E35C1A43C1EB0113EB4C234403EBE00394
:101190001A7000BFDFE710B5C1F16F0211B27029FC
:1011A00000DB10BD7822B2EBE00F00DCF9E700298C
:1011B00001DB002800DAF4E7C1EB0112DE4B1A4430
:1011C00002EBE002127800F00703DC4CE35C1A4308
:1011D000C1EB0113D84C234403EBE0031A7000BFAA
:1011E000DFE730B5702900DB30BD7823B3EBE00FCB
:1011F00000DCF9E7002901DB002800DAF4E79AB9FE
:10120000C1EB0113CC4C234403EBE0031B7800F04B
:101210000704CA4D2C5D2343C1EB0114C64D2C4479
:1012200004EBE00423702AE0012A13D1C1EB01137F
:10123000C14C234403EBE0031B7800F00704BF4DCF
:101240002C5DA343C1EB0114BB4D2C4404EBE00423
:10125000237014E0022A12D1C1EB0113B64C2344CF
:1012600003EBE0031B7800F00704B44D2C5D6340F2
:10127000C1EB0114B04D2C4404EBE004237000BF1B
:10128000B2E730B5C1F16F0319B2702900DB30BD90
:101290007823B3EBE00F00DCF9E7002901DB00283D
:1012A00000DAF4E79AB9C1EB0113A34C234403EB32
:1012B000E0031B7800F00704A04D2C5D2343C1EB35
:1012C00001149D4D2C4404EBE00423702AE0012A14
:1012D00013D1C1EB0113984C234403EBE0031B78BB
:1012E00000F00704954D2C5DA343C1EB0114924D12
:1012F0002C4404EBE004237014E0022A12D1C1EB69
:1013000001138D4C234403EBE0031B7800F007042A
:101310008A4D2C5D6340C1EB0114874D2C4404EBD6
:10132000E004237000BFB2E72DE9F04104460D460A
:1013300016461F46AC4202DDA8462546444606E056
:10134000FAB231462046FFF74CFF601C04B2AC42B3
:10135000F6DDBDE8F0812DE9F04180460C461546EA
:101360001E46AC4202DD2F4625463C4606E0F2B260
:1013700021464046FFF735FF601C04B2AC42F6DD63
:10138000BDE8F0812DE9F74F84B080460F464FF05D
:10139000000B002003906648B0F9000002906548F9
:1013A000B0F90090C7F16F0007B26148A0F8008063
:1013B000604807800298A8EB000005B2A7EB09007F
:1013C00006B2002D02DD012001900CE045B93A463D
:1013D0004946069B0298FFF7BEFF07B0BDE8F08FB5
:1013E0004FF0FF300190002E02DD012000900AE056
:1013F00036B94A464146069B0298FFF795FFECE74F
:101400004FF0FF300090002D01DA684205B2002E47
:1014100001DA704206B2B54201DD2C4600E03446E6
:101420004946069A0298FFF7DCFE4FF0000A26E0D4
:101430004946069A0298FFF7D4FE0BEB05000FFA17
:1014400080FB0398304400B20390A34508DDABEB6A
:1014500004000FFA80FBDDE90110084400B202909D
:101460000398A04207DD0398001B00B20390009888
:1014700048440FFA80F90AF101000FFA80FA601C63
:101480008245D5DD00BFA8E72DE9FF4F80460F4616
:101490004FF0000B002003902548B0F900000290A7
:1014A0002448B0F90090C7F16F0007B22048A0F8B7
:1014B0000080204807800298A8EB000005B2A7EB47
:1014C000090006B2002D02DD012001900BE03DB9BC
:1014D00000233A4649460298FFF73DFFBDE8FF8FDB
:1014E0004FF0FF300190002E02DD012000900AE055
:1014F00036B900234A4641460298FFF715FFEDE74B
:101500004FF0FF300090002D01DA684205B2002E46
:1015100001DA704206B2B54201DD2C4600E03446E5
:1015200049460298FFF714FE4FF0000A2EE0000033
:10153000840100208601002008060020F61C010816
:1015400049460298FFF704FE0BEB05000FFA80FBFB
:101550000398304400B20390A34508DDABEB0400D0
:101560000FFA80FBDDE90110084400B202900398F5
:10157000A04207DD0398001B00B203900098484486
:101580000FFA80F90AF101000FFA80FA601C824517
:10159000D6DD00BFA2E72DE9FF4F83B081460F469D
:1015A00098464FF0000A00200190C7F16F0007B283
:1015B000C8F16F000FFA80F80598A0EB090005B29A
:1015C000A8EB070006B2002D02DD012000900CE020
:1015D00045B90023424639464846FFF7BCFE07B0EE
:1015E000BDE8F08F4FF0FF300090002E02DD4FF08D
:1015F000010B09E036B900233A4648460599FFF742
:1016000093FEECE74FF0FF3B002D01DA684205B294
:10161000002E01DA704206B2B54201DD2C4600E030
:10162000344639464846FFF793FD0020029023E0F8
:1016300039464846FFF78CFD0AEB05000FFA80FAA1
:101640000198304400B20190A24507DDAAEB0400E6
:101650000FFA80FA009848440FFA80F90198A042E6
:1016600006DD0198001B00B2019007EB0B0007B2EA
:101670000298401C00B20290611C02988842D7DD9B
:1016800000BFACE7F0B5C0100D46FE4E06EB0214ED
:1016900000230BE02678C5EB0517DFF8ECC36744A1
:1016A0003E546E1CF5B2641C5E1CF3B2102BF1DBD1
:1016B000F0BD2DE9F0410B461446C010461C1A46F9
:1016C000F24F07EB4411002513E00F78C2EB021C28
:1016D000DFF8B483C4440CF80070491C0F78C2EBE7
:1016E000021CC4440CF80670491C571CFAB26F1C4B
:1016F000FDB2102DE9DBBDE8F0812DE9F84303468A
:101700000E461746D8100F2801DBBDE8F88303F01A
:1017100007053146DFF86CC30CEB0712002455E0D7
:10172000C5B300F1010CBCF10F0F34DA92F800C020
:101730008DF801C04FF0000C8DF800C0BDF800C05E
:101740004CFA05FCCDF800C0C1EB011CDFF8388372
:10175000C4441CF800C09DF801804CEA080CC1EBA1
:101760000118DFF82493C84408F800C0C1EB011C3D
:10177000C846E04400F1010C18F80CC09DF8008048
:101780004CEA080CC1EB0118C14400F1010809F84A
:1017900008C012E0FFE7C1EB011CDFF8EC82C44493
:1017A0001CF800C092F800804CEA080CC1EB01184C
:1017B000DFF8D492C84408F800C001F1010C0CF025
:1017C000FF01521C04F1010C0CF0FF04102CA7DBEC
:1017D00000BF9AE72DE9F84303460E461746D81096
:1017E0000F2801DBBDE8F88303F007053146DFF879
:1017F00094C20CEB0712002459E0E5B300F1010C90
:10180000BCF10F0F38DA92F800C06FEA0C0C0CF044
:10181000FF0C8DF801C04FF0000C8DF800C0BDF832
:1018200000C04CFA05FCCDF800C0C1EB011CDFF88C
:101830005882C4441CF800C09DF801804CEA080C92
:10184000C1EB0118DFF84092C84408F800C0C1EBB2
:10185000011CC846E04400F1010C18F80CC09DF8CA
:1018600000804CEA080CC1EB0118C14400F10108EA
:1018700009F808C012E0FFE7C1EB011CDFF808829D
:10188000C4441CF800C092F800806CEA080CC1EB5C
:101890000118DFF8F491C84408F800C001F1010C08
:1018A0000CF0FF01521C04F1010C0CF0FF04102C91
:1018B000A3DB00BF96E72DE9F84304460E46174622
:1018C000E0100F2801DBBDE8F88304F00703314680
:1018D000C7EBC70CDFF8B8810CEB080200256DE000
:1018E000F3B3022B04DD00F1010CBCF10F0F14DB8C
:1018F000C1EB011CDFF89081C4441CF800C092F8D1
:10190000008048FA03F84CEA080CC1EB0118DFF834
:101910007891C84408F800C047E092F800C08DF8FC
:1019200001C04FF0000C8DF800C0BDF800C04CFAAB
:1019300003FCCDF800C0C1EB011CDFF84C81C444AE
:101940001CF800C09DF801804CEA080CC1EB01189E
:10195000DFF83491C84408F800C0C1EB011C00E076
:1019600011E0C846E04400F1010C18F80CC09DF8E5
:1019700000804CEA080CC1EB0118C14400F10108D9
:1019800009F808C011E0C1EB011CDFF8FC80C44479
:101990001CF800C092F800804CEA080CC1EB01185A
:1019A000DFF8E490C84408F800C001F1010C0CF025
:1019B000FF01521C05F1010C0CF0FF05072D8FDB18
:1019C00000BF80E72DE9F84304460E461746E010B5
:1019D0000F2801DBBDE8F88304F00703314607EB6D
:1019E000870CDFF8B0800CEB0802002579E0E3B348
:1019F000012B04DD00F1010CBCF10F0F14DBC1EB76
:101A0000011CDFF88480C4441CF800C092F80080F8
:101A100048FA03F84CEA080CC1EB0118DFF86890AB
:101A2000C84408F800C053E092F800C08DF801C027
:101A30004FF0000C8DF800C0BDF800C04CFA03FC5C
:101A4000CDF800C0C1EB011CDFF83C80C4441CF899
:101A500000C09DF801804CEA080CC1EB0118DFF8CA
:101A60002890C84408F800C000E01FE0C1EB011C4A
:101A7000C846E04400F1010C18F80CC09DF8008045
:101A80000AE00000FE1C0108080600202E210108C3
:101A90002E230108AC2301084CEA080CC1EB011805
:101AA000C14400F1010809F808C011E0C1EB011CB4
:101AB000DFF8E085C4441CF800C092F800804CEACE
:101AC000080CC1EB0118DFF8CC95C84408F800C039
:101AD00001F1010C0CF0FF01521C05F1010C0CF09E
:101AE000FF05052D83DB00BF74E72DE9F8430446AD
:101AF0000E461746E0100F2801DBBDE8F88304F01E
:101B00000703314607EB870CDFF88C85C4440CF1E2
:101B1000040200256DE0E3B3012B04DD00F1010CAC
:101B2000BCF10F0F14DBC1EB011CDFF86885C44466
:101B30001CF800C092F8008048FA03F84CEA080C40
:101B4000C1EB0118DFF84C95C84408F800C047E025
:101B500092F800C08DF801C04FF0000C8DF800C065
:101B6000BDF800C04CFA03FCCDF800C0C1EB011C6D
:101B7000DFF82085C4441CF800C09DF801804CEAC1
:101B8000080CC1EB0118DFF80C95C84408F800C038
:101B900000E013E0C1EB011CC846E04400F1010C79
:101BA00018F80CC09DF800804CEA080CC1EB011835
:101BB000C14400F1010809F808C011E0C1EB011CA3
:101BC000DFF8D084C4441CF800C092F800804CEACE
:101BD000080CC1EB0118DFF8BC94C84408F800C039
:101BE00001F1010C0CF0FF01521E05F1010C0CF08B
:101BF000FF05052D8FDB00BF7FE70146302905DBA0
:101C0000392903DCA1F12B00C0B27047612905DB43
:101C10007A2903DCA1F13800C0B2F6E7412905DBDF
:101C20005A2903DCA1F13200C0B2EEE75F2901D1ED
:101C30000220EAE72D2901D10120E6E70020E4E7B0
:101C40002DE9F04107210846FFF77AFA07217720AE
:101C5000FFF71AFC04217420FFF716FC07217720F8
:101C6000FFF76EFA0A217420FFF70EFC1B2410E028
:101C700008212046FFF78FFA282094FBF0F100FBA3
:101C8000114018B909212046FFF785FA04F1140024
:101C9000C4B2702CECDB082269210720FFF70BFE91
:101CA000042269216E20FFF706FEFC480078022816
:101CB0001DD0FB4805886420454305EB85053C2085
:101CC000B5FBF0F5692400BF0A20B5FBF0F100FB7D
:101CD000115000F10808424669212046FFF7EBFD4C
:101CE0000A20B5FBF0F5601FC4B2002DECD107212E
:101CF0000846FFF725FA6F210720FFF7C5FB6C2187
:101D00000A20FFF7C1FB6F210720FFF719FA6C21AA
:101D10000420FFF7B9FB0024072714E03946082008
:101D2000FFF739FA204604EBD0714910B4EB4101BA
:101D300003D139460920FFF72EFADA4800783844F3
:101D4000C7B2601CC4B2702FE8DB0322042100205C
:101D5000FFF738FED1480078022852D0D2480588D3
:101D6000642400271BE00A20B5FBF0F100FB1150B2
:101D700000F10808424621460020FFF723FE012F0C
:101D800006D1601FC4B2012221460020FFF71AFECF
:101D9000781CC7B20A20B5FBF0F5601FC4B2022F51
:101DA000E1DD002DDFD16825C04800884543BE48ED
:101DB000008805440A2442F2107620E0B54201D2A0
:101DC000642E18DCB5FBF6F00A21B0FBF1F201FB42
:101DD000120000F10808424621460020FFF7F2FDFC
:101DE000642E06D1601DC4B2012221460020FFF7F7
:101DF000E9FD601DC4B20A2096FBF0F086B2002E09
:101E0000DCD107217020FFF79BF96F217020FFF7CD
:101E10003BFB6C217320FFF737FB6F217020FFF72E
:101E20008FF96C216D20FFF72FFB0024072714E0AA
:101E300039466F20FFF7AFF9204604EBD071491007
:101E4000B4EB410103D139466E20FFF7A4F998485D
:101E500000783844C7B2601CC4B2702FE8DB02229D
:101E600004217120FFF741FE8C480078022852D0EF
:101E700068259048008845438F48008805440A2417
:101E800000271BE00A20B5FBF0F100FB115000F128
:101E90000808424621467120FFF727FE012F06D190
:101EA000601DC4B2012221467120FFF71EFE781C7E
:101EB000C7B20A20B5FBF0F5601DC4B2022FE1DD08
:101EC000002DDFD17C480588612442F2107620E0A5
:101ED000B54201D2642E18DCB5FBF6F00A21B0FB46
:101EE000F1F201FB120000F1080842462146712080
:101EF000FFF7FBFD642E06D1601FC4B2012221460C
:101F00007120FFF7F2FD601FC4B20A2096FBF0F0CB
:101F100086B2002EDCD1BDE8F08168490988684AA4
:101F2000118068490988684A1180654909885E4AB4
:101F3000118065490988604A1180012031E05F49BC
:101F400031F810105E4A1288914204DD5B4931F885
:101F500010105B4A1180594931F81010524A12880A
:101F6000914204DA554931F810104F4A1180554911
:101F700031F81010544A1288914204DD514931F869
:101F80001010514A11804F4931F810104A4A1288F6
:101F9000914204DA4B4931F81010474A1180411C34
:101FA000C8B24A4909788842C9DB454909883E4A8E
:101FB000128891420AD13C49098819B96821404ADE
:101FC000118023E00021384A11801FE03C49098834
:101FD000354A1288891A891C692291FBF2F1491C41
:101FE000324A11801146098849002F4A12889142CD
:101FF00009DA2D4909882D4A1288022303FB1211A0
:10200000294A118002E00021274A11802C490988C1
:10201000254A1288891A692291FBF2F1491C234A48
:10202000118029490988244A1288914215D12249F0
:10203000098819B96821244A118002E000211E4A4A
:102040001180214909881C4A1288891A692291FB4A
:10205000F2F1491C174A11803DE01B490988164AD4
:102060001288891A891C692291FBF2F1491C114AD4
:1020700011801146098849000F4A1288914227DAD7
:102080000D4909880B4A1288022303FB12110A4AE0
:10209000118020E0080600200624010870010020BD
:1020A000AE01002094010020A6010020B001002014
:1020B00098010020B2010020AA0100206004002045
:1020C000A801002034050020AC010020A001002060
:1020D0000021F84A1180F8490988F64A1288891ABD
:1020E000692291FBF2F1491CF44A118000201BE0A7
:1020F000F34931F81010F34A1288891AF24A12880B
:1021000091FBF2F1EE4A22F81010F04931F810106C
:10211000E84A1288891AE94A128891FBF2F1EB4ADF
:1021200022F81010411CC8B2E94909788842DFDB67
:102130001421E84A1170E84A117070471CB5E7484D
:102140000068E7490988B0FBF1F0E1490870DF4811
:10215000DB49CDE90010E2480388DD480278002120
:10216000E048008804F09FFCFFF7D7FE1CBD2DE976
:10217000F843804600250027DB48007818B9DB4883
:102180000078042803D0D848007803287ED1D648A8
:102190000078032813D1D6480088401CD149088014
:1021A0006A460021CF48008804F040FDD14908600C
:1021B0000846006870B9C949009808600AE0CE482E
:1021C0000068C6490860CD480088C64908800020DC
:1021D000C8490860C748006800287CD10120C04970
:1021E00008806A20009007E000986A300090BC48A0
:1021F0000088401CBA490880B848006800998842A5
:10220000F2D2FFF79BFFAE480088C01D01B2072045
:10221000FEF796FF01240AE0A94830F81400C01D1B
:1022200001B24246E01DFFF7ADF8601CC4B2A848F9
:1022300000788442F0DBA6480078401EC4B2A04873
:1022400030F81400C01D01B20222E01DFFF719F89A
:102250009B4830F81400C01D01B2002204F10800B0
:10226000FFF70FF8964A32F81420D21D11B2A01DC4
:102270000022FFF706F8924830F81400083001B247
:102280000022E01DFEF7FDFF8D4800E024E030F85D
:102290001400801D01B20022E01DFEF7F2FF8B4802
:1022A0000088C01D01B20720FEF74AFF01240AE0A2
:1022B000864830F81400C01D01B24246E01DFFF709
:1022C00061F8601CC4B2824800788442F0DB804828
:1022D0000078401EC4B271E08348007802286DD1B6
:1022E00084480068002869D100268548408B08B1E1
:1022F00046F001068248008C08B146F0020606EB63
:10230000C60000EB06107F4901EB800506EBC60016
:1023100000EB06107C4901EB8007287800F10901E9
:102320000920FEF70DFF012409E0285D00F10901F5
:10233000424604F10900FFF725F8601CC4B2642C82
:10234000F3DB63242A5D02F1090104F10900022292
:10235000FEF797FF2A5D02F1090104F10A0000224D
:10236000FEF78FFF2A5D02F1090104F10800002247
:10237000FEF787FF2A5D02F10A0104F1090000223D
:10238000FEF77FFF2A5D02F1080104F10900002237
:10239000FEF777FF387800F109010920FEF7D0FE3B
:1023A000012409E03A5D02F1090104F10900424605
:1023B000FEF7E8FF601CC4B2642CF3DBBDE8F883D1
:1023C0002DE9F05F48480078002872D11B220021D7
:1023D0000846FFF792F9372200210820FFF78DF910
:1023E0002C2200211020FFF788F92D22002118202F
:1023F000FFF783F9342200212020FFF77EF9032222
:1024000000212620FFF779F91E2200212C20FFF75A
:1024100074F9202200213420FFF76FF91D220021DA
:102420003C20FFF76AF9002211464420FFF765F9C6
:102430000C2200214C20FFF760F90A2200215420D1
:10244000FFF75BF9052200215C20FFF756F9102207
:1024500011460020FFF751F9292210210820FFF72B
:102460004CF93C2210210846FFF747F93C22102185
:102470001820FFF742F92D2210212020FFF73DF907
:102480003A2210212820FFF738F94122102130206C
:10249000FFF733F9032210213620FFF72EF91B48EE
:1024A0000078A8B301283FD0022848D003285CD187
:1024B00050E0FDE3AA010020AC010020B2010020A1
:1024C00060040020A6010020B00100203405002097
:1024D000A00100209401002098010020BC010020F0
:1024E000AE010020C001002070010020D8010020B2
:1024F0007E010020C4010020640200205E02002052
:10250000380F0020D6190108661B01080E020020B2
:10251000FFE7062210213C20FFF7EFF807221021E9
:102520004420FFF7EAF820E0072210213C20FFF7C3
:10253000E4F8092210214420FFF7DFF815E0082213
:1025400010213C20FFF7D9F80B2210214420FFF77F
:10255000D4F80AE0092210213C20FFF7CEF80D2222
:1025600010214420FFF7C9F800BF00BF242210212A
:102570004C20FFF7C2F8F7480078062841D2DFE880
:1025800000F00309141F2A350A2210216420FFF7E6
:10259000B4F836E0062210215C20FFF7AEF80522E1
:1025A00010216420FFF7A9F82BE0062210215C20FF
:1025B000FFF7A3F80A2210216420FFF79EF820E01D
:1025C000072210215C20FFF798F8052210216420D3
:1025D000FFF793F815E0072210215C20FFF78DF834
:1025E0000A2210216420FFF788F80AE0082210214F
:1025F0005C20FFF782F8052210216420FFF77DF8A8
:1026000000BF00BF0F2210216C20FFF776F81122C7
:1026100020210020FFF771F8302220210820FFF749
:102620006CF82F2220211020FFF767F811222021BB
:102630001820FFF762F82E2220210846FFF75DF8E8
:102640002F2220212820FFF758F8032220212E20B6
:10265000FFF753F8002611E0BF48805D00B90FE096
:10266000BD49885DFFF7C9FA8346F11DC900091FFE
:10267000C8B25A462021FFF740F8761C082EEBD34B
:1026800000BF212230210020FFF737F83C22302103
:102690000820FFF732F8292230211020FFF72DF80B
:1026A0003C2230211820FFF728F83D22302120203D
:1026B000FFF723F83B2230212820FFF71EF80322E2
:1026C00030212E20FFF719F8A4480078062818D2E8
:1026D000DFE800F003183C657AF321223021442022
:1026E000FFF70BF83C2230214C20FFF706F8372289
:1026F00030215420FFF701F8382230215C20FEF70A
:10270000FCFF5FE1212230213420FEF7F6FF3C225E
:1027100030211046FEF7F1FF292230214420FEF738
:10272000ECFF362230214C20FEF7E7FF2C2230212F
:102730005420FEF7E2FF2A2230216420FEF7DDFF5D
:10274000412230216C20FEF7D8FF3BE121223021CD
:102750003420FEF7D2FF2D2230213C20FEF7CDFFA2
:10276000342230214420FEF7C8FF2E2230214C2095
:10277000FEF7C3FF3C2230215420FEF7BEFF2D227E
:1027800030215C20FEF7B9FF3B2230216420FEF7A8
:10279000B4FF3C2230216C20FEF7AFFF12E1222271
:1027A00030214420FEF7A9FF2D2230214C20FEF7D6
:1027B000A4FF3B2230215420FEF79FFF3C22302112
:1027C0005C20FEF79AFFFDE065480078062875D288
:1027D000DFE800F00318283843581E223021442037
:1027E000FEF78BFF3A2230214C20FEF786FF2D2288
:1027F00030215420FEF781FF3E2230215C20FEF77D
:102800007CFF6BE0112230214C20FEF776FF112275
:1028100030215420FEF771FF062230215C20FEF7A4
:102820006CFF5BE0112230214C20FEF766FF112285
:1028300030215420FEF761FF072230215C20FEF793
:102840005CFF4BE0112230214C20FEF756FF242282
:1028500030215420FEF751FF40E00F223021442068
:10286000FEF74BFF2A2230214C20FEF746FF3B2289
:1028700030215420FEF741FF372230215C20FEF743
:102880003CFF2BE0142230213C20FEF736FF34229F
:1028900030214420FEF731FF372230214C20FEF753
:1028A0002CFF292230215420FEF727FF3C22302123
:1028B0005C20FEF722FF11E000E011E0042230214D
:1028C0004C20FEF71AFF042230215420FEF715FF9A
:1028D000042230215C20FEF710FF00BF00BF71E032
:1028E000132230213420FEF708FF3A2230213C2009
:1028F000FEF703FF3A2230214420FEF7FEFE372286
:1029000030214C20FEF7F9FE3A2230215420FEF708
:10291000F4FE14480078072852D2DFE800F0510492
:102920000F25303B4600212230216420FEF7E5FED2
:10293000222230216C20FEF7E0FE41E022223021ED
:102940006420FEF7DAFE1E2230216C20FEF7D5FE51
:1029500036E000000F0200205C0F0020D8010020AC
:10296000D9010020DA010020102230216420FEF776
:10297000C4FE1A2230216C20FEF7BFFE20E0102298
:1029800030216420FEF7B9FE202230216C20FEF7B2
:10299000B4FE15E0112230216420FEF7AEFE1422B1
:1029A00030216C20FEF7A9FE0AE0212230216420AC
:1029B000FEF7A3FE122230216C20FEF79EFE00BF20
:1029C00000BF00BF00BF232240210020FEF795FE7C
:1029D000032240210620FEF790FEFE4800780428DE
:1029E00003D0FC480078032857D1FB4804880A200C
:1029F00094FBF0F100FB1140052801DB601C84B260
:102A000042F21070844209DB94FBF0F0401D00F0AC
:102A1000FF0B5A4640210C20FEF76FFEB4F57A7F7B
:102A200010DB4FF47A7094FBF0F00A2190FBF1F286
:102A300001FB1200401D00F0FF0B5A4640211420FC
:102A4000FEF75BFE642094FBF0F00A2190FBF1F2AC
:102A500001FB1200401D00F0FF0B5A4640211C20D4
:102A6000FEF74BFE042240212420FEF746FE0A20FA
:102A700094FBF0F00A2190FBF1F201FB1200401DE3
:102A800000F0FF0B5A4640212820FEF736FE242294
:102A900040213020FEF731FE09E0042240211420BD
:102AA000FEF72BFE042240211C20FEF726FE1722F3
:102AB00040210846FEF721FE032240214620FEF772
:102AC0001CFEC4480078042803D0C24800780328BC
:102AD00057D1C24804880A2094FBF0F100FB114052
:102AE000052801DB601C84B242F21070844209DBCD
:102AF00094FBF0F0401D00F0FF0B5A4640214C20A3
:102B0000FEF7FBFDB4F57A7F10DB4FF47A7094FB8F
:102B1000F0F00A2190FBF1F201FB1200401D00F0E1
:102B2000FF0B5A4640215420FEF7E7FD642094FB3A
:102B3000F0F00A2190FBF1F201FB1200401D00F0C1
:102B4000FF0B5A4640215C20FEF7D7FD04224021AE
:102B50006420FEF7D2FD0A2094FBF0F00A2190FBDE
:102B6000F1F201FB1200401D00F0FF0B5A4640211C
:102B70006820FEF7C2FD0F2240217020FEF7BDFD48
:102B800009E0042240215420FEF7B7FD0422402131
:102B90005C20FEF7B2FD112250210020FEF7ADFDB2
:102BA000292250210820FEF7A8FD382250211020AC
:102BB000FEF7A3FD292250211820FEF79EFD2B22AF
:102BC00050212020FEF799FD312250212820FEF7C8
:102BD00094FD3C2250213020FEF78FFD41225021F0
:102BE0003820FEF78AFD032250213E20FEF785FDA6
:102BF0007848007804287DD1794806687948B6FB82
:102C0000F0F602460023764903C90EF0ABFC48F605
:102C1000A041511A73F1000300D3761C42F20F70E9
:102C2000864223D30E2250214420FEF766FD0E2259
:102C300050214C20FEF761FD0E2250215420FEF75A
:102C40005CFD042250215C20FEF757FD0E2250212E
:102C50006020FEF752FD0F2250216820FEF74DFD47
:102C6000162250217020FEF748FD5DE0B6F57A7F10
:102C70000BD34FF47A70B6FBF0F0401D00F0FF0B61
:102C80005A4650214420FEF738FD642E0ED36420AE
:102C9000B6FBF0F00A21B0FBF1F201FB120000F1EB
:102CA000050B5A4650214C20FEF727FD0A2000E074
:102CB000EEE0B6FBF0F00A21B0FBF1F201FB1200EE
:102CC00000F1050B5A4650215420FEF716FD042250
:102CD00050215C20FEF711FD0A20B6FBF0F100FB4D
:102CE000116000F1050B5A4650216020FEF705FDEA
:102CF0000F2200E009E050216820FEF7FEFC1622BA
:102D000050217020FEF7F9FC0EE004225021084605
:102D1000FEF7F3FC042250215820FEF7EEFC0422BB
:102D200050216020FEF7E9FC07F076FD06462E48AC
:102D30000068361A4FF46160B6FBF0F087B23C20B1
:102D4000B6FBF0F03C21B0FBF1F201FB12093C2094
:102D5000B6FBF0F100FB1168222260210020FEF793
:102D6000CCFC312260210820FEF7C7FC352260210F
:102D70001020FEF7C2FC2D2260211820FEF7BDFCBA
:102D8000032260211E20FEF7B8FCB7F57A7F01DB35
:102D900040F2E737642F0ADB642097FBF0F0401D18
:102DA00000F0FF0B5A4660212820FEF7A6FC0A2FF0
:102DB0000FDB0A2097FBF0F00A2190FBF1F201FBF8
:102DC0001200401D00F0FF0B5A4660213020FEF734
:102DD00094FC0BE0D80100204402002046020020B1
:102DE0003802002040190100680200200A2097FBE9
:102DF000F0F100FB1170401D00F0FF0B5A466021FE
:102E00003820FEF77AFC032260214020FEF775FC93
:102E10000A2099FBF0F00A2190FBF1F201FB12006D
:102E2000401D00F0FF0B5A4660214820FEF765FC6C
:102E30000A2099FBF0F100FB1190401D00F0FF0B00
:102E40005A4660215020FEF758FC0322602158208A
:102E5000FEF753FC0A2098FBF0F00A2190FBF1F2F8
:102E600001FB1200401D00F0FF0B5A46602108468E
:102E7000FEF743FC0A2098FBF0F100FB1180401D97
:102E800000F0FF0B5A4660216820FEF736FCFCE399
:102E9000FE48007801287CD1FD48008800287AD1BE
:102EA000112200210846FEF795FC3022002108205F
:102EB000FEF790FC292200211020FEF78BFC3A221D
:102EC00000211820FEF786FC2F2200212020FEF78B
:102ED00081FC2D2200212820FEF77CFC00221146D7
:102EE0003020FEF777FC112200213820FEF772FC1B
:102EF000372200214020FEF76DFC362200214820B9
:102F0000FEF768FC2E2200215020FEF763FC3122E0
:102F100000215820FEF75EFC2F2200216020FEF7E2
:102F200059FC112210210020FEF7E7FB302210216E
:102F30000820FEF7E2FB292210210846FEF7DDFB00
:102F40003A2210211820FEF7D8FB2F221021202032
:102F5000FEF7D3FB2D2210212820FEF7CEFB002206
:102F600010213020FEF7C9FB122210213820FEF775
:102F7000C4FB292210214020FEF7BFFB3C22102178
:102F80004820FEF7BAFB292210215020FEF7B5FB9E
:102F90007DE779E0FFE7112200210846FEF7ADFB4F
:102FA000302200210820FEF7A8FB29220021102052
:102FB000FEF7A3FB3A2200211820FEF79EFB2F22EA
:102FC00000212020FEF799FB2D2200212820FEF76A
:102FD00094FB002211463020FEF78FFB11220021C6
:102FE0003820FEF78AFB372200214020FEF785FBC0
:102FF000362200214820FEF780FB2E22002150209F
:10300000FEF77BFB312200215820FEF776FB2F22B2
:1030100000216020FEF771FB112210210020FEF735
:10302000D9FB302210210820FEF7D4FB29221021E1
:103030000846FEF7CFFB3A2210211820FEF7CAFB04
:103040002F2210212020FEF7C5FB2D221021282041
:10305000FEF7C0FB002210213020FEF7BBFB12223E
:1030600010213820FEF7B6FB292210214020FEF760
:10307000B1FB3C2210214820FEF7ACFB2922102195
:103080005020FEF7A7FB02E78048007802287DD198
:10309000112200210846FEF730FB372200210820CC
:1030A000FEF72BFB362200211020FEF726FB2E22F6
:1030B00000211820FEF721FB312200212020FEF7FD
:1030C0001CFB2F2200212820FEF717FB00221146AF
:1030D0003020FEF712FB212200213820FEF70DFBE5
:1030E0002D2200214020FEF708FB34220021482039
:1030F000FEF703FB032200215020FEF7FEFA65488D
:103100000088401C0A2190FBF1F090FBF1F201FBDA
:103110001200401D00F0FF0B5A4600215820FEF718
:1031200059FB5C480088401C0A2190FBF1F201FB2E
:103130001200401D00F0FF0B5A4600216020FEF7F0
:1031400049FB55480088401C0A2190FBF1F090FB98
:10315000F1F201FB1200401D00F0FF0B5A46102156
:103160000020FEF7CAFA4C480088401C0A2190FB58
:10317000F1F201FB1200401D00F0FF0B5A46102136
:103180000820FEF7BAFA0322102100E0B8E2084650
:10319000FEF7B3FA002610E04048805D00B90EE06B
:1031A0003E49885DFEF729FD8346F11CC906080EDD
:1031B0005A461021FEF7A1FA761C082EECD300BF68
:1031C0004FF0200A0025112251462846FEF795FAB5
:1031D0000835112251462846FEF78FFA2F48243829
:1031E000808828B10835062251462846FEF785FA20
:1031F0000835032251462846FEF77FFA274824382F
:10320000448842F2107084420ADB083594FBF0F0E7
:10321000401D00F0FF0B5A4651462846FEF76DFA56
:10322000B4F57A7F13DB05F10800C5B24FF47A706C
:1032300094FBF0F00A2190FBF1F201FB1200401D1B
:1032400000F0FF0B5A4651462846FEF756FA05F1A4
:103250000800C5B2642094FBF0F00A2190FBF1F263
:1032600001FB1200401D00F0FF0B5A465146284654
:10327000FEF743FA05F10800C5B20422514628467C
:10328000FEF73BFA05F10800C5B209E07001002025
:1032900072010020780100205A0200205C0F0020FB
:1032A0000A2094FBF0F00A2190FBF1F201FB1200DE
:1032B000401D00F0FF0B5A4651462846FEF71DFA06
:1032C00005F10800C5B20F2251462846FEF715FA4F
:1032D000FE488088002877D00AF1100A00251122C4
:1032E00051462846FEF709FA08351122514628466C
:1032F000FEF703FA0835072251462846FEF7FDF986
:103300000835032251462846FEF7F7F9EF4884882E
:1033100042F2107084420ADB083594FBF0F0401D45
:1033200000F0FF0B5A4651462846FEF7E6F9B4F581
:103330007A7F13DB05F10800C5B24FF47A7094FB75
:10334000F0F00A2190FBF1F201FB1200401D00F0A9
:10335000FF0B5A4651462846FEF7CFF905F1080003
:10336000C5B2642094FBF0F00A2190FBF1F201FB5E
:103370001200401D00F0FF0B5A4651462846FEF74A
:10338000BCF905F10800C5B2042251462846FEF7F3
:10339000B4F905F10800C5B20A2094FBF0F00A2147
:1033A00090FBF1F201FB1200401D00F0FF0B5A46AA
:1033B00051462846FEF7A1F905F10800C5B20F22D3
:1033C00051462846FEF799F90AF1100A0025112204
:1033D00051462846FEF791F90835242251462846E1
:1033E000FEF78BF90835032251462846FEF785F98A
:1033F000B648048A42F2107084420ADB083594FB16
:10340000F0F0401D00F0FF0B5A4651462846FEF7EB
:1034100074F9B4F57A7F11DB08354FF47A7094FBB8
:10342000F0F00A2190FBF1F201FB1200401D00F0C8
:10343000FF0B5A4651462846FEF75FF905F1080092
:10344000C5B2642094FBF0F00A2190FBF1F201FB7D
:103450001200401D00F0FF0B5A4651462846FEF769
:103460004CF905F10800C5B2042251462846FEF782
:1034700044F905F10800C5B20A2094FBF0F00A21D6
:1034800090FBF1F201FB1200401D00F0FF0B5A46C9
:1034900051462846FEF731F905F10800C5B224224D
:1034A00051462846FEF729F98848008C00287DD02F
:1034B0000AF1100000F0FF0A002524225146284698
:1034C000FEF71BF90835292251462846FEF715F963
:1034D00008352A2251462846FEF70FF908353B22C7
:1034E00051462846FEF709F9083537225146284645
:1034F000FEF703F905F10800C5B20322514628463C
:10350000FEF7FBF87148448A42F2107084420EDBE9
:1035100005F10800C5B242F2107094FBF0F0401DB6
:1035200000F0FF0B5A4651462846FEF7E6F8B4F580
:103530007A7F13DB05F10800C5B24FF47A7094FB73
:10354000F0F00A2190FBF1F201FB1200401D00F0A7
:10355000FF0B5A4651462846FEF7CFF805F1080002
:10356000C5B2642094FBF0F00A2190FBF1F201FB5C
:103570001200401D00F0FF0B5A4651462846FEF748
:10358000BCF805F10800C5B2042251462846FEF7F2
:10359000B4F805F10800C5B20A2094FBF0F00A2146
:1035A00090FBF1F201FB1200401D00E00EE000F084
:1035B000FF0B5A4651462846FEF79FF805F10800D2
:1035C000C5B2242251462846FEF797F80AF11000AA
:1035D00000F0FF0A0025242251462846FEF78DF808
:1035E00008352E2251462846FEF787F80835342242
:1035F00051462846FEF781F80835372251462846BD
:10360000FEF77BF80835292251462846FEF775F863
:1036100005F10800C5B23C2251462846FEF76DF878
:1036200005F10800C5B2032251462846FEF765F8A9
:103630002648848A42F2107084420EDB05F10800AD
:10364000C5B242F2107094FBF0F0401D00F0FF0B89
:103650005A4651462846FEF750F8B4F57A7F13DBF8
:1036600005F10800C5B24FF47A7094FBF0F00A211E
:1036700090FBF1F201FB1200401D00F0FF0B5A46D7
:1036800051462846FEF739F800E039E105F1080017
:10369000C5B2642094FBF0F00A2190FBF1F201FB2B
:1036A0001200401D00F0FF0B5A4651462846FEF717
:1036B00024F805F10800C5B2042251462846FEF759
:1036C0001CF805F10800C5B20A2001E0380F0020FF
:1036D00094FBF0F00A2190FBF1F201FB1200401D77
:1036E00000F0FF0B5A4651462846FEF706F805F152
:1036F0000800C5B2242251462846FDF7FEFFCFE15F
:10370000FE48007803287DD1112200210846FDF7EC
:10371000F4FF302200210820FDF7EFFF29220021CD
:103720001020FDF7EAFF3A2200211820FDF7E5FFFF
:103730002F2200212020FDF7E0FF2D22002128204C
:10374000FDF7DBFF002211463020FDF7D6FF1C22DB
:1037500000213820FDF7D1FF1D2200214020FDF778
:10376000CCFF042200214820FDF7C7FF03220021DF
:103770005020FDF7C2FFE2480088401C84B24FF49D
:103780007A7094FBF0F00A2190FBF1F201FB120039
:10379000401D00F0FF0B5A4600215820FEF71AF892
:1037A000642094FBF0F00A2190FBF1F201FB12007F
:1037B000401D00F0FF0B5A4600216020FEF70AF87A
:1037C0000A2094FBF0F00A2190FBF1F201FB1200B9
:1037D000401D00F0FF0B5A4600216820FDF7FAFF5C
:1037E0000A2094FBF0F100FB1140401D00F0FF0B9C
:1037F0005A4600217020FDF7EDFFC2480068401CCA
:103800007ED000E049E1C0480068401CF8D0112299
:1038100010210020FDF771FF292210210820FDF75B
:103820006CFF382210210846FDF767FF292210217E
:103830001820FDF762FF2B2210212020FDF75DFFED
:10384000312210212820FDF758FF3C221021302082
:10385000FDF753FF412210213820FDF74EFF0322D0
:1038600010213E20FDF749FFA648066842F20F707E
:10387000864223D30E2210214420FDF73EFF0E2264
:1038800010214C20FDF739FF0E2210215420FDF7A6
:1038900034FF042210215C20FDF72FFF0E2210219F
:1038A0006020FDF72AFF0F2210216820FDF725FF79
:1038B000162210217020FDF720FF4BE0B6F57A7F2D
:1038C0000BD34FF47A70B6FBF0F0401D00F0FF0B05
:1038D0005A4610214420FDF710FF642E0ED36420B9
:1038E000B6FBF0F00A21B0FBF1F201FB120000F18F
:1038F000050B5A4610214C20FDF7FFFE0A2000E080
:10390000CEE0B6FBF0F00A21B0FBF1F201FB1200B1
:1039100000F1050B5A4610215420FDF7EEFE04225B
:1039200010215C20FDF7E9FE0A20B6FBF0F100FB58
:10393000116000F1050B5A4610216020FDF7DDFEF5
:103940000F2210216820FDF7D8FE162210217020CA
:10395000FDF7D3FE6C4806684FF46160B6FBF0F0EB
:1039600087B23C20B6FBF0F03C21B0FBF1F201FB4A
:1039700012093C20B6FBF0F100FB11682222202145
:103980000020FDF7BAFE312220210820FDF7B5FE08
:10399000352220211020FDF7B0FE2D2220211820F5
:1039A000FDF7ABFE032220211E20FDF7A6FEB7F592
:1039B0007A7F01DB40F2E737642F0ADB642097FB54
:1039C000F0F0401D00F0FF0B5A4620212820FDF7A3
:1039D00094FE0A2F0FDB0A2097FBF0F00A2190FBE0
:1039E000F1F201FB1200401D00F0FF0B5A462021AE
:1039F0003020FDF782FE0A2097FBF0F100FB1170EA
:103A0000401D00F0FF0B5A4620213820FDF775FEBF
:103A1000032220214020FDF770FE0A2099FBF0F0E0
:103A20000A2190FBF1F201FB1200401D00F0FF0B98
:103A30005A4620214820FDF760FE0A2099FBF0F14C
:103A400000FB1190401D00F0FF0B5A462021502032
:103A5000FDF753FE032220215820FDF74EFE0A20D9
:103A600098FBF0F00A2190FBF1F201FB1200401DDF
:103A700000F0FF0B5A4620216020FDF73EFE0A2091
:103A800098FBF0F100FB1180401D00F0FF0B5A463F
:103A900020216820FDF731FE02E000201749087060
:103AA000BDE8F09F00204FF4D261184804E04A1EA0
:103AB00091B200220270401C0029F8D17047002109
:103AC0004FF4D262114903E0531E9AB20870491CA8
:103AD000002AF9D1704738B50D480078422802DB3A
:103AE00000200B4908700A480078082823DA0848A3
:103AF00000784000C0EB001006490DE07001002086
:103B00007E010020CC010020C80100200806002012
:103B1000D40100206024010801EB400000903848E7
:103B200000784000C0F17E0081B20223F022002024
:103B300000F06CFB3FE032480078082804D1FFF722
:103B4000B1FFFEF73DFC36E02D480078252807D16F
:103B5000FFF7A8FFFEF774F80020FEF708FB2AE045
:103B600027480078252813DD254800782638C4B278
:103B7000A000C0EB0010234908440090C4F11B00D2
:103B80008004010C04237822002000F03FFB12E0A7
:103B90001B4800780938C4B2A000C0EB00101949D6
:103BA00008440090C4F11B008004010C0423782217
:103BB000104600F02BFB12480078401C104908709A
:103BC00038BD10B50346B3F57A7F08D20E4830F8F9
:103BD000130008800D4830F81300108007E00A48F1
:103BE000B0F8CE0708800948B0F8CE0710800888E2
:103BF000074C20801088074C2080002010BD00005A
:103C0000D401002008060020662F0108962701082D
:103C1000440200204602002070B50546002414E04E
:103C20004FF4FA6094FBF0F100FB114008B906F084
:103C300084FB002603E000F085FB701C86B242F294
:103C400010708642F7DB601C84B2AC42E8DB70BDCA
:103C500010B504464FF40050FE49086000F072FBB6
:103C60008020FD4908604020086000F06BFB04F0F4
:103C70008000802803D1C001F649086004E04FF4B9
:103C80008040F449091D08604FF40050F149091DB6
:103C9000086000F057FB4FF40050EE49086000F058
:103CA00051FB04F04000402803D10002E9490860BC
:103CB00004E04FF48040E749091D08604FF40050CC
:103CC000E449091D086000F03DFB4FF40050E14954
:103CD000086000F037FB04F02000202803D14002E8
:103CE000DC49086004E04FF48040DA49091D0860AF
:103CF0004FF40050D749091D086000F023FB4FF432
:103D00000050D449086000F01DFB04F0100010289A
:103D100003D18002CF49086004E04FF48040CD49D0
:103D2000091D08604FF40050CA49091D086000F0E1
:103D300009FB4FF40050C749086000F003FB04F092
:103D40000800082803D1C002C249086004E04FF40B
:103D50008040C049091D08604FF40050BD49091D4D
:103D6000086000F0EFFA4FF40050BA49086000F024
:103D7000E9FA04F00400042803D10003B5490860FF
:103D800004E04FF48040B349091D08604FF400502F
:103D9000B049091D086000F0D5FA4FF40050AD4954
:103DA000086000F0CFFA04F00200022803D14003BB
:103DB000A849086004E04FF48040A649091D086046
:103DC0004FF40050A349091D086000F0BBFA4FF4FE
:103DD0000050A049086000F0B5FA14F0010F04D0BB
:103DE0004FF480409B49086004E04FF480409949BB
:103DF000091D08604FF400509649091D086000F045
:103E0000A1FA4FF400509349086000F09BFA40205B
:103E10009149091F086010BD10B504464FF40050C9
:103E20008C49086000F08EFA80208B49091F0860D9
:103E30004020091D086000F085FA04F08000802809
:103E400003D1C0018349086004E04FF480408149F8
:103E5000091D08604FF400507E49091D086000F0FC
:103E600071FA4FF400507B49086000F06BFA04F0DF
:103E70004000402803D100027649086004E04FF476
:103E800080407449091D08604FF400507149091DB4
:103E9000086000F057FA4FF400506E49086000F0D7
:103EA00051FA04F02000202803D14002694908603B
:103EB00004E04FF480406749091D08604FF400504A
:103EC0006449091D086000F03DFA4FF40050614953
:103ED000086000F037FA04F01000102803D18002C7
:103EE0005C49086004E04FF480405A49091D0860AD
:103EF0004FF400505749091D086000F023FA4FF4B1
:103F000000505449086000F01DFA04F00800082829
:103F100003D1C0024F49086004E04FF480404D498E
:103F2000091D08604FF400504A49091D086000F05F
:103F300009FA4FF400504749086000F003FA04F012
:103F40000400042803D100034249086004E04FF450
:103F500080404049091D08604FF400503D49091D4B
:103F6000086000F0EFF94FF400503A49086000F0A3
:103F7000E9F904F00200022803D140033549086042
:103F800004E04FF480403349091D08604FF40050AD
:103F90003049091D086000F0D5F94FF400502D4953
:103FA000086000F0CFF914F0010F04D04FF4804006
:103FB0002849086004E04FF480402649091D086044
:103FC0004FF400502349091D086000F0BBF94FF47D
:103FD00000502049086000F0B5F940201E49091F33
:103FE000086010BD08B50121042006F08DFB80207B
:103FF000ADF8000003208DF8020010208DF80300BA
:1040000069461548143806F043F808BD2DE9F0411B
:1040100018250024F420FFF71BFE2846FFF718FEA2
:10402000F520FFF715FE04F11400FFF711FEF6204E
:10403000FFF70EFE05F14F01C8B2FFF709FEF720AA
:10404000FFF706FE04F19301C8B2FFF701FEF82066
:1040500004E00000100C014014080140FFF7F8FDD7
:1040600005F00F00FFF7F4FD102141EA2510FFF7DE
:10407000EFFD04F16000FFF7EBFD702101EB241070
:10408000FFF7E6FD002614E000270EE04FF00008E1
:1040900006E00020FFF7C0FE08F1010000F0FF0875
:1040A000B8F1040FF5DB781CC7B21E2FEEDB701CD5
:1040B000C6B2802EE8DBBDE8F08110B5FFF792FFB5
:1040C00020209F490860C820FFF7A6FD20209C49BA
:1040D000091F0860C820FFF79FFD2520FFF7B8FDE6
:1040E0002B20FFF7B5FDC420FFF7B2FDA020FFF79E
:1040F000AFFDD120FFF7ACFDD520FFF7A9FDC8200B
:10410000FFF7A6FD0020FFF7A3FDEB20FFF7A0FDC2
:10411000A620FFF79DFDA420FFF79AFD8120FFF761
:1041200097FD2520FFF794FDD820FFF791FDF120A2
:10413000FFF78EFD9320FFF78BFDF220FFF788FD40
:104140001420FFF785FDF320FFF782FD9320FFF792
:104150007FFD8520FFF77CFDFFF758FFAD20FFF7BF
:1041600077FD6420FFF758FD10BD2DE9F0411825BB
:104170000024F420FFF76CFD2846FFF769FDF520C9
:10418000FFF766FD04F11400FFF762FDF620FFF76C
:104190005FFD05F14F01C8B2FFF75AFDF720FFF7A9
:1041A00057FD04F19301C8B2FFF752FDF820FFF765
:1041B0004FFD05F00F00FFF74BFD102141EA2510E0
:1041C000FFF746FD04F16000FFF742FD702101EBAF
:1041D0002410FFF73DFD002614E000270EE04FF00D
:1041E000000806E0FF20FFF717FE08F1010000F0CD
:1041F000FF08B8F1040FF5DB781CC7B21E2FEEDB09
:10420000701CC6B2802EE8DBBDE8F0812DE9FE4FC0
:1042100005460E4614461F46032095FBF0F085B276
:1042200005F1180085B200BFF420FFF711FDE8B2D8
:10423000FFF70EFDF520FFF70BFD06F11401C8B2E4
:10424000FFF706FDF620FFF703FD032094FBF0F0D7
:104250002844401EC0B20090FFF7FAFCF720FFF799
:10426000F7FC06F114013944491EC8B2FFF7F0FC0F
:10427000F820FFF7EDFC05F00F00FFF7E9FC102137
:1042800041EA2511C8B2FFF7E3FC06F00F0101F186
:104290006000FFF7DDFC702101EB2611C8B2FFF7CB
:1042A000D7FC2046E11704EB51714FEAE10808FB07
:1042B00007F8A8F101084FF000093CE04FF0000AB0
:1042C0002FE04046A8F101080C9911F800B0002039
:1042D00002901FE01BF0030006D0012807D002283F
:1042E00008D003280CD108E00020019008E0F0205D
:1042F000019005E00F20019002E0FF20019000BF37
:1043000000BF0198FFF788FD4FEAAB0B0298401CF5
:10431000C0B2029002980428DCDB0AF1010000F030
:10432000FF0AE11704EB5171BAEBE10FC9DB09F1A8
:10433000010000F0FF09B945C0DBBDE8FE8F0000B9
:10434000140C014008B50020009002E00098401CC9
:10435000009000980228F9DB08BD08B5012104206F
:1043600006F0D2F94020ADF8000003208DF80200DD
:1043700010208DF8030069462A4805F089FE0121C6
:10438000082006F0C1F946F22000ADF80000032035
:104390008DF8020010208DF803006946224805F0D0
:1043A00077FE08BD10B502460C4622B940201D4BD1
:1043B0001033186003E040201A4B14331860FFF7E5
:1043C000C1FF00211EE080200841204205D04FF4AB
:1043D0008040154B1033186004E04FF48040124BBE
:1043E000143318604FF400500F4B14331860FFF76C
:1043F000A9FF4FF400500C4B10331860FFF7A2FFD9
:10440000481CC1B20829DEDB4FF40050064B1433C0
:1044100018604020034B103318600002024B103329
:10442000186010BD00080140000C014008B50121D2
:10443000042006F069F90720ADF8000003208DF88C
:10444000020000208DF803006946F64805F020FEC2
:104450004FF4C660ADF8000003208DF8020048203C
:104460008DF803006946EF4805F012FE4FF48470A2
:10447000ADF8000003208DF8020010208DF8030035
:104480006946E84805F004FE0121082006F03CF9E1
:104490000320ADF800008DF8020000208DF8030025
:1044A0006946E14805F0F4FDC020ADF800000320A6
:1044B0008DF8020028208DF803006946DA4805F0DF
:1044C000E7FD4FF41040ADF8000003208DF8020026
:1044D00010208DF803006946D34805F0D9FD4FF44C
:1044E0004070ADF8000003208DF8020018208DF810
:1044F00003006946CC4805F0CBFD0121102006F0F1
:1045000003F93F20ADF8000003208DF802000020E1
:104510008DF803006946C54805F0BAFD4020ADF8A6
:10452000000003208DF8020010208DF8030069467A
:10453000BE4805F0ADFD4FF40050ADF8000003207B
:104540008DF8020028208DF803006946B74805F071
:104550009FFD08BD00B585B00121480206F0D4F8E2
:104560004FF4404006F037F800208DF805008DF834
:104570000400039000904FF46020029000208DF81A
:1045800010006946AA4804F02CFE0121A84804F056
:1045900054FEA74804F073FE00BFA54804F074FE63
:1045A0000028FAD1A24804F079FE00BFA04804F028
:1045B0007AFE0028FAD105B000BD00B587B0012110
:1045C000042006F0AEF80121042006F0C4F8002112
:1045D000042006F0C0F80020ADF81000ADF8160079
:1045E000ADF812004FF41650ADF8140000208DF80D
:1045F000180004A98F4806F055FB01218D4806F0EC
:10460000ADFF6020ADF8000041F6FF70ADF8060088
:104610000020ADF808000120ADF802000020ADF840
:104620000C00ADF80E00ADF80A00ADF804006946C4
:10463000804806F003FC04217E4807F001F80821B9
:104640007C4806F0D1FF69467A4806F042FC042116
:10465000784806F0FEFF0821764806F0CEFF0022DB
:104660000121744806F095FE0121724807F03CF9DB
:104670000121704806F072FE07B000BD10B5FFF7CB
:10468000D5FEFFF767FFFFF798FF10BD10B5044692
:10469000002301222146664804F03BFE01216448C4
:1046A00004F00BFE00BF0221614804F077FF0028F0
:1046B000F9D05F4804F094FE10BD02465E4B1B88A3
:1046C000934201DCE22016E05B4BB3F83A319342AF
:1046D00001DB7F200FE000210AE0574B33F8113057
:1046E000934203DCA1F11E03D8B203E04B1C19B2C4
:1046F0009E29F2DB00BF704710B50020FFF7C6FF10
:10470000044640F60C60844203DD00204B490870EB
:104710001AE040F60C20844203DD0120474908706E
:1047200012E040F21E60844203DD0220434908701B
:104730000AE040F21E20844203DD03203F49087056
:1047400002E004203D49087010BD3C4800783C4917
:1047500008703C48007848B9084600783A49087023
:1047600000203A4908703A49087070473448007888
:1047700035490978884214D03348007830B901208F
:104780003249087000203349087002E000202F49A8
:104790000870002030490880294800782A490870AC
:1047A00009E02D480088B0F57F4F04DA2A480088D8
:1047B000401C2949088000202549087020480078BD
:1047C00000B9D2E72148007800B9CEE72248008836
:1047D0000C2825D11A480078012804D11C490870FA
:1047E0001C4908701CE016480078022805D11849B9
:1047F000087001201749087012E01148007803285A
:1048000005D11349087001201249087008E00C48CE
:104810000078042804D10E49087001200D49087061
:1048200000BFA2E700080140000C01400010014059
:1048300000240140000800405A260108160200200A
:1048400018020020DB010020170200204A0200208D
:1048500015020020280200201A02002038B5FA486C
:104860000078042803D10020F849087038BDF848C2
:10487000007800B9FAE7F548007888B9F44800787C
:1048800003280CD10120F14908700020F14908806B
:104890004FF6FF70F04908800220F049088020E1BF
:1048A000EA48007801285AD1E9480078032803D162
:1048B0000020E649087014E1E548007801280ED18F
:1048C000E4480088401CE349088008460088E34922
:1048D00009888842E3DB0020DE49088001E1DC48EA
:1048E000007802280ED1DB48008828B1D94800881A
:1048F000401ED8490880F4E0D8480088401ED549B9
:104900000880EEE0D24800780428C8D1D148008859
:1049100050B90220CD4908703220D1490880D148D1
:104920000088D1490880DCE0CA4800880128B6D157
:104930000320C6490870CD48008828B1CB480088BC
:10494000401ECB49088002E00020C9490880C848C1
:104950000088C84908800420C7490870C1E0BB48E6
:10496000007802286CD1BA480078032809D10120C8
:10497000B64908700020B74908800220B74908806E
:10498000AFE0B348007801281DD1002400BF601CAF
:10499000C4B2B5480088401CB34908800846008866
:1049A000AF490988884202DB0020AF490880694688
:1049B000AD48008802F079FC9DF8000000288DD1F8
:1049C000322CE4DB8DE0A248007802281DD10024BF
:1049D00000BF601CC4B2A448008828B1A248008867
:1049E000401EA149088004E09D480088401E9E4961
:1049F000088069469C48008802F057FC9DF800003A
:104A000000286ED1322CE4DB6BE09148007804285A
:104A100067D195480088994908809949924800884B
:104A200002F0B8FB974908600846006818B98E483C
:104A300000888C4908808B48008802F087FC50E091
:104A40008248007803284CD181480078032808D197
:104A500001207E4908707F49088002207F49088034
:104A60003FE07B480078012816D104208249087075
:104A7000401F85490860854908607E480088401CC1
:104A80007C4908800846008879490988884228DDE1
:104A900000207849088024E06D480078022815D16C
:104AA000042075490870401F7749086077490860FD
:104AB0007048008828B16F480088401E6D49088002
:104AC0000FE06B4800886B4908800AE06048007876
:104AD000042806D16648008818B1664800886C49E9
:104AE000088000BFC2E610B56A480078B8B14FF43C
:104AF0000071694805F05DFB68B168480078401CAA
:104B00006649087008460078052820DB00200870F8
:104B1000604908701BE000206049087017E04FF4FE
:104B200000715D4805F045FB70B95C480078401C99
:104B30005A49087008460078052808DB00200870EC
:104B400001205449087002E000205449087054487C
:104B50000078B8B14FF480614F4805F02AFB68B186
:104B600050480078401C4F490870084600780528D6
:104B700020DB002008704A4908701BE000204949EA
:104B8000087017E04FF48061434805F012FB70B9DC
:104B900044480078401C43490870084600780528BE
:104BA00008DB0020087001203D49087002E0002069
:104BB0003C4908703C480078B0B12021364805F0E7
:104BC000F8FA68B139480078401C3849087008463E
:104BD000007805281FDB00200870334908701AE0B0
:104BE00000203249087016E020212B4805F0E1FA38
:104BF00070B92E480078401C2C490870084600788F
:104C0000052808DB0020087001202749087002E011
:104C10000020264908702648007890B110211E48CF
:104C200005F0C7FA70B923480078401C2149087084
:104C30000846007805285ADB002008701C490870D7
:104C400055E03DE038E00000D80100207001002070
:104C5000150200207201002076010020740100205E
:104C60007A0100205A020020780100205E02002014
:104C7000800100207E0100201D0200207C01002018
:104C8000380F0020C4010020CC010020C801002002
:104C900082010020F00100200008014029020020CC
:104CA000F10100202A020020F20100202C02002045
:104CB000F30100202B0200200020FE49087016E0BE
:104CC0001021FD4805F075FA70B1FA480078401CD3
:104CD000F849087008460078052808DB00200870AD
:104CE0000120F649087002E00020F2490870F448FB
:104CF000007838B1F34800783C280ADA0020F049FF
:104D0000087006E0EF480078502802DD0120EC49E9
:104D1000087010BD10B5EC48007800B910BDEB4824
:104D20000078032803DD0020E8490870F6E7002436
:104D300007E0E749085DFFF7A9FCE64921F8140000
:104D4000641C052CF5DBE1480078D0B90120DF496F
:104D50000870002412E0DF4830F81400DE4921F822
:104D60001400DC4830F81400DC4921F81400D9485C
:104D700030F81400DA4941F82400641C052CEADB01
:104D8000CCE7002426E0D34830F81400D24931F8AB
:104D90001410884205DDCF4830F81400CE4921F8C0
:104DA0001400CC4830F81400CC4931F81410884273
:104DB00005DAC84830F81400C84921F81400C8487A
:104DC00050F82400C34931F814100844C44941F88C
:104DD0002400641C052CD6DBBC48007803281AD1BB
:104DE000002410E0BE4850F82400BB4931F81410EC
:104DF000401ABA4931F81410401AC0F34F00B949AB
:104E000021F81400641C052CECDB0020AE4908706E
:104E1000AE49087082E7AD480078401CAB49087085
:104E200000BF7BE7B048007800B17047AF4800682A
:104E3000401CAE49086000BFF7E70020AB4908609E
:104E4000A94908707047A9480068704770B50920E3
:104E5000FFF71CFC05460120FFF718FC0446012063
:104E6000A34908700420A349087070BD10B5022042
:104E7000FFF70CFC044600209F49087010BD70B578
:104E80008CB0FFF7E3FF01209C49087005F0C4FCDB
:104E90009B4908609B499C4802F009FB38B140F6E9
:104EA00067309949088040F24D609649088001F0CA
:104EB0005EFB00287ED00024C7E004EB440000EB3A
:104EC000C400924931F82000ADF8000004EB440022
:104ED00000EBC40001EB80004088ADF8020004EB59
:104EE000440000EBC40001EB80008088ADF80400B2
:104EF00004EB440000EBC40001EB8000C088ADF877
:104F0000060004EB440000EBC40001EB80000089C4
:104F1000ADF8080004EB440000EBC40001EB800096
:104F20004089ADF80A0004EB440000EBC40001EB3B
:104F300080008089ADF80C0004EB440000EBC40055
:104F400001EB8000C089ADF80E0004EB440000EBDB
:104F5000C40001EB8000008AADF8100004EB4400AF
:104F600000EBC40001EB8000408AADF8120004EBB6
:104F7000440000EBC40001EB8000808AADF814000F
:104F800004EB440000EBC40001EB8000C08BADF8E3
:104F90001E0004EB440000EBC40001EB8000C08A5B
:104FA000ADF8160004EB440000EBC40001EB8000F8
:104FB000008B00E0CFE0ADF8180004EB440000EBFC
:104FC000C40001EB8000408BADF81A0004EB4400F4
:104FD00000EBC40001EB8000808BADF81C0004EBFB
:104FE000440000EBC40001EB8000008CADF8200011
:104FF00004EB440000EBC40001EB8000408CADF8F2
:10500000220004EB440000EBC4000A4602EB8000DF
:1050100000F12401082209A801F054FA5520ADF846
:105020002C002E21684601F064FAADF82E00A0B2E3
:10503000694602F002F8064606B109E0052C03D1E4
:10504000002002F083F90646641C062CFFF635AFFB
:1050500000BF01F08CFA00287DD005202C49087093
:1050600024480078451CC5EB051000EB8000294959
:10507000088005EB4500C0EBC5104FF6FF7101EA53
:1050800080002449488000208880C5EB051000EB93
:105090008000C880C5EB051000EB80000881C5EBDF
:1050A000051000EB8000488111480078451C40F253
:1050B0008F1031E02B02002000080140F301002096
:1050C000F401002040020020E4010020E50100205E
:1050D00040260108980C0020A20C0020AC0C0020F7
:1050E000B80C0020CC0C0020F50100202402002088
:1050F0000E0200200F02002010020020DC01002020
:10510000680200200C0200200A0200203637010845
:10511000D8010020380F002068434FF6FF7101EAE4
:105120004000FA49888140F23D2068434FF6FF7104
:1051300001EA4000F549C881C5EB051000EB4000CD
:105140004FF6FF7101EA4010F049088205EB851027
:1051500000EB400000E020E04FF6FF7101EAC000E4
:10516000EA49488240F2591068434FF6FF7101EA5C
:105170008000E64988824FF43470C8837820C88262
:105180004FF407700883002048834FF4D27088835F
:10519000002008844EF6602048840920FFF776FA44
:1051A0000546C82D03DA0320D949087002E0012022
:1051B000D74908700120D7490870FFF73EFE0CB0B0
:1051C00070BD10B504462146D34806F063FB10BD00
:1051D00010B504462146D04806F05EFB10BD10B560
:1051E000CE48007888B3CE48007809282ED2DFE870
:1051F00000F00506072D142D1D22270027E026E0CC
:10520000C8480088C8490880C8480088C84908803C
:10521000C6480088C749088019E0C7480078C749D0
:105220000870C7480078C749087010E0C648007881
:10523000C64908700BE0C6480078C649087006E009
:10524000C5480078C549087001E001E000BF4FE0A3
:10525000C348007878B3B248007830B1012805D04F
:10526000022804D0042824D10AE023E022E0B24836
:105270000078B2490870B4480078B449087019E061
:10528000AF480078AF490870B3480078B349087058
:10529000AF480078AF490870A2480088A24908804A
:1052A000A2480088A2490880A0480088A149088037
:1052B00000E000BF1CE0FFE79F4800789F490870AE
:1052C000A1480078A14908709D4800789D49087060
:1052D000A1480078A14908709D4800789D49087050
:1052E000904800889049088090480088904908803C
:1052F0009848007828B14FF480519A4804F073FF21
:1053000004E04FF48051974804F06FFF8F48007815
:1053100028B14FF48071944804F065FF04E04FF425
:105320008071914804F061FF8448007820B14021E9
:105330008E4804F058FF03E040218C4804F055FFEC
:105340008648007820B10821874804F04CFF03E02C
:105350000821854804F049FF7A48007828B14FF4C5
:105360000041804804F03FFF04E04FF400417D48D5
:1053700004F03BFF7E48007818B1002006F0EAFCFC
:1053800002E0002006F0EEFC7A48007818B1012017
:1053900006F0E0FC02E0012006F0E4FC764800782C
:1053A00018B1022006F0D6FC02E0022006F0DAFC7A
:1053B00072480078401C71490870084600780A2835
:1053C00000DA10BD00206D4908705A48008858491D
:1053D000098888420FDA57480088603055490880AC
:1053E0000846008852490988884221DD50480088D3
:1053F000504908801CE04F4800884D490988884280
:1054000016DD4C480088602805DB4A480088603873
:105410004849088002E00020464908804548008845
:1054200043490988884203DA414800884149088095
:1054300040480088FFF7C5FE3B480088FFF7C8FEDC
:1054400000BFBEE74E480078401C4D490870084632
:105450000078322809DB002008704A48007808B933
:10546000012000E0002047490870002040490870F2
:10547000404908704049087025480078062843D202
:10548000DFE800F003070C0D35A101203A49087050
:10549000D3E03C48007837490870CEE0CDE03A4888
:1054A0000078401C384908700846007832280CDB28
:1054B0000020087035480078401C344908700846C0
:1054C0000078032801DB002008703048007818B904
:1054D00001202749087009E02C480078012802D1F2
:1054E0002449087002E0012023490870A5E02848FB
:1054F0000078062864D2DFE800F0034D5155595F6B
:1055000001201C4908705CE096E00000380F002084
:10551000D8010020DB01002000080040DF0100204E
:10552000DE010020E8010020FE010020EA01002049
:1055300000020020EC010020FC01002006020020F7
:10554000F901002003020020FA01002004020020DB
:10555000FB01002005020020F801002002020020CB
:10556000E0010020000C0140000801400010014053
:105570000702002008020020090200202D0200205E
:1055800031020020300200202E0200202F020020D5
:10559000D90100200120FE49087012E00120FC49D9
:1055A00008700EE00120FA4908700AE00120F8496D
:1055B0000870F849087004E00120F649087000E01E
:1055C00000BF00BF39E0F448007804281CD006DC96
:1055D00001280BD0022816D003282BD119E005286A
:1055E0001BD006281AD0FF2824D118E0EB480078F9
:1055F000EB490870E9480078E5490870E748007809
:10560000E449087016E015E0E4480078E4490870C1
:1056100010E00120E24908700CE000BF00BFDF4845
:10562000007818B10120DE49087002E00120D84955
:10563000087000BF00BF00E000BF00BF70477CB52E
:10564000D848007898B1D7480078401ED5490870EE
:10565000D548007803280AD10846007838B9D349DC
:105660000988491C88B2D24AD24901F096FBD24837
:10567000007868B1D1480078401CD04908700846CD
:105680000078082814DB00200870CB4908700FE070
:10569000CB48007860B1C9480078401CC749087001
:1056A00008460078052803DB00200870C24908700E
:1056B000C4480078002844D10120C3490870C1497A
:1056C00008700020C1490870C1480078042802DB36
:1056D0000020BF490870BF48C488BF48BC4909784A
:1056E00030F811004443BD480088B4FBF0F4BC49D5
:1056F0000C80B8480489B848B549097830F81100D9
:105700004443B6480088B4FBF0F4B6490C80B14875
:105710000488B548B549097830F811004443B448C5
:105720000088B4FBF0F4B3490C80AA494888FEF71E
:10573000C4FFB1490870A7498888FEF7BEFFAF498A
:1057400008700020AE490870AE490870AE49087074
:10575000AE490870AE490870AE490880AE4908806D
:105760009948007800B97CBDAC48007806287DD205
:10577000DFE800F00327C4FEFDFC0020A849087004
:10578000A848007858B10520A4490870042082492F
:105790000870FFF752FB0120A149087010E0A248F1
:1057A000007810B9A148007850B105209B490870D5
:1057B000FF2079490870FFF740FB012098490870E5
:1057C000F6E39948007870B99848007858B9954838
:1057D000007840B99648007828B9FFF72EFB0120E1
:1057E0008F49087089E090480078002877D18F4869
:1057F0000078002873D18B48007800286FD18C483E
:10580000007800286BD0FFF71EFB022875D3724882
:105810006F49097830F811004000032190FBF1F046
:105820006F49098888420BDD05207C4908700320F8
:1058300059490870FFF701FB0120794908705CE0C5
:105840007C480078002858D1042074490870FFF77C
:10585000F4FA01207249087077480088401C7649A4
:1058600008800846008842F2107100E0FEE388429A
:1058700002DD0120704908807048008842F21071F2
:10588000884204DA6D480088401C6C4908806C48E6
:105890000088401C6A49088000206A4908606A49FB
:1058A00008706A4908706A496348008800F02FFE52
:1058B00004F0B2FF674908600021674A1160516037
:1058C0000020664908803D4908703D490870012064
:1058D000394908700020624908700EE0FFE751481E
:1058E000007850B105204D49087004202A490870FD
:1058F000FFF7A3FA01204A49087061E75948048A72
:105900004FF4E140444334483149097830F81100FC
:10591000B4FBF0F4C4F38F003E49088042F28A5091
:105920003D490880084600884F49088001203649D3
:1059300008703B48007818B10020394908709EE093
:105940004848008A00EBC0000A2190FBF1F025498D
:105950000988884210DC4348008A00EB400101EBD3
:10596000C0000A2190FBF1F01E4902E0FEE3C1E015
:1059700086E0098888427ADA0520284908700120E3
:1059800005490870FFF759FA01202549087076E0AB
:105990000802002009020020DA0100203002002065
:1059A000070200201D020020700100207E0100205F
:1059B000C8010020CC010020DF010020DE01002012
:1059C000E0010020E401002011020020E501002098
:1059D0000E020020CC0C0020462601080A020020FE
:1059E00044020020420200204E2601080F0200203F
:1059F0000C0200204602002040020020410200204C
:105A0000FB010020FA010020FC010020F801002029
:105A1000F9010020E8010020EA010020D80100205F
:105A2000DC010020F1010020F2010020F301002040
:105A3000F0010020DD0100205E0200206002002055
:105A40006202002064020020D9010020120200201E
:105A5000640F002068020020380200204802002065
:105A600014020020380F0020EC010020FFE7012085
:105A7000F9490870FFF7E1F90120F84908709FE63D
:105A8000F748048A4FF4E1404443F648F649097860
:105A900030F81100B4FBF0F4C4F38F00F349088030
:105AA000EF4844884FF416504443F148F1490978CF
:105AB00030F81100B4FBF0F0EF490880FFF7C3F9AC
:105AC000032809D30120ED490870ED490870ED491C
:105AD0000870ED4908700CE0FFF7B5F948B10120F6
