:102581005553422044454255470055534220524538
:1025910041440010C4EA611A03530069006C0069E8
:1025A1000063006F006E0020004C00610062007348
:1025B1000010035500530042002000410050004923
:1025C100000A0346003300340030000F800100018F
:102783000129000130000135000137000138000143
:102793003600012D00022E0000043100000001016B
:0827A3002AAA012B55012CFFAD
:102101001222EB30B679121E1E1229161227FA7FFF
:10211100007EF81226181229161227FA7FE07E0790
:102121001226181229161227FA7F1F7E001226186E
:102131001229161227FA74FFFFFE12261812291609
:102141001227FAE4FFFE1226181229161227FA7F27
:10215100EF7E7B1226181229161227FAE4F509AF31
:102161000912190F1229161227FA0509E509C39454
:0F2171000140EC12289E1229161227FA022104AF
:01218000223C
:0427FA007FC87E0016
:1027FE00E4FDFCC3ED9FEC9E5014E4FBFA0BBB0012
:0E280E00010AEBF44A70F60DBD00010C80E5E6
:01281C002299
:1029160030B60512069E80F87FF47E011227FE303F
:03292600B6FD22D9
:10069E00780E7C007D007BFF7A2579D07E007F016D
:1006AE00120F48E5307003020869750A01E50A2544
:1006BE00E025E02458F582E43402F583E07029E564
:1006CE000A25E025E02459F582E43402F583E0FEA4
:1006DE00E50A25E025E0245AF582E43402F583E0AC
:1006EE00FDEDFF12295A803BE50A25E025E024584E
:1006FE00F582E43402F583E064017027E50A25E013
:10070E0025E02459F582E43402F583E0FEE50A255E
:10071E00E025E0245AF582E43402F583E0FDEDFF96
:10072E00122834050AE50AC3941040810000000027
:10073E0000000000000000000000000000000000AB
:10074E007BFF7A257981E4F514F515F516F5177406
:10075E00FFF518F519E4FDFC121EBF90025BE020B8
:10076E00E00302084F750A01E50A25E025E024584A
:10077E00F582E43402F583E07054E50A25E025E0C5
:10078E002459F582E43402F583E0FEE50A25E025DE
:10079E00E0245AF582E43402F583E0FDEDFFE50A2C
:1007AE0025E025E0245BF582E43402F583E075F064
:1007BE0024A4FDACF0E50A75F011A4FBAAF07515A2
:1007CE00077516E0E4F517F518121F5A8067E50A4B
:1007DE0025E025E02458F582E43402F583E0640137
:1007EE007053E50A25E025E02459F582E43402F53C
:1007FE0083E0FEE50A25E025E0245AF582E4340282
:10080E00F583E0FDEDFFE50A25E025E0245BF582AA
:10081E00E43402F583E075F024A4FDACF0E50A752E
:10082E00F011A4FBAAF075150075161F74FFF517CD
:10083E00F518121F5A050AE50AC394105003020751
:10084E007600000000000000000000000000000024
:10085E000000000000E4F5300206B1E53670030238
:10086E000928E4F50AE50AC394404003020917C2B9
:10087E0090D2B47458250AF582E43402F583E0FF71
:10088E007459250AF582E43402F583E0FD12297DC0
:10089E00D2907458250AF582E43402F583E0FF0500
:1008AE002FE52FAC2E7002052E142400F582740055
:1008BE003CF583EFF07459250AF582E43402F58392
:1008CE00E0FF052FE52FAC2E7002052E142400F547
:1008DE008274003CF583EFF0E4B52F26E52EB402CA
:1008EE00211229297831121076122181900000E50B
:1008FE002DF07F007E007D007C00122181E4F52E1C
:10090E00F52F050A050A020873E4F536FB7A00791D
:10091E000E7D01FC1215F1020869E5297003020A29
:10092E002390025BE070030209DF750A04E50AC337
:10093E0094244003020A12C290D2B47458250AF5C8
:10094E0082E43402F583E0FF7459250AF582E4341B
:10095E0002F583E0FD12297DD2907458250AF582A6
:10096E00E43402F583E0FF052FE52FAC2E7002056F
:10097E002E142400F58274003CF583EFF074592593
:10098E000AF582E43402F583E0FF052FE52FAC2E45
:10099E007002052E142400F58274003CF583EFF0EE
:1009AE00E4B52F26E52EB402211229297831121032
:1009BE0076122181900000E52DF07F007E007D00F3
:1009CE007C00122181E4F52EF52F050A050A020995
:1009DE003B750A04E50AC394245029C290D2B4741C
:1009EE0058250AF582E43402F583E0FF7459250A8E
:1009FE00F582E43402F583E0FD12297DD290050ADA
:100A0E00050A80D0E4F529FB7A00790E7D01FC12EF
:100A1E0015F1020928E5387003020AD4750A04E5B7
:100A2E000AC394244003020AC37458250AF582E4CB
:100A3E003402F583E070217459250AF582E43402FC
:100A4E00F583E0FE745A250AF582E43402F583E05C
:100A5E00FDEDFF12295A80547458250AF582E434AC
:100A6E0002F583E0B401217459250AF582E43402BB
:100A7E00F583E0FE745A250AF582E43402F583E02C
:100A8E00FDEDFF12283480247458250AF582E434D3
:100A9E0002F583E0641070140000000000000000F6
:100AAE000000000000000000000000007404250A91
:100ABE00F50A020A2DE4F538FB7A00790E7D01FC69
:100ACE001215F1020A23E5357003020C07E4F50A4C
:100ADE007400250AF582E43402F583E4F0050AE594
:100AEE000AB418EC90025FE025E0F50D90025DE08F
:100AFE00FEA3E0FDEEF50BEDF50C90025CE064015B
:100B0E007034AF0CAE0B12295AE4F50AE50AC39500
:100B1E000D502312272A7400250AF582E43402F5BB
:100B2E0083E4F07401250AF582E43402F583EFF0D4
:100B3E00050A050A80D6E4F5357B017A027900E5CF
:100B4E000DFD7C001215F17F647E001227FE7BFFE7
:100B5E007A25798BE4F514F515F516F51774FFF56E
:100B6E0018F519E4FDFC121EBF90025BE020E003B5
:100B7E00020AD4900260E075F024A4FDACF0751565
:100B8E00077516E0E4F517F5187B11FAAF0CAE0BEE
:100B9E00121F5AE4F50AE50AC3950D4003020AD462
:100BAE00900260E075F024A4FDACF0C004C005E531
:100BBE000AC3132402FFE433FE7C007D11120FB42E
:100BCE00AA06AB077400250AF582E43402F583E029
:100BDE00FE7401250AF582E43402F583E0FDEDFF93
:100BEE0075150075161F74FFF517F518D005D0048E
:100BFE00121F5A050A050A809DE5376039E4F50A89
:100C0E007418250AF582E43402F583E4F0050AE54A
:100C1E000AB440EC9002187401F0A37440F0E4A3FF
:100C2E00F0A374F0F0E4F5377B017A0279187D4079
:060C3E00FC1215F180C359
:010C4400228D
:1000030053D9BF75B283E4F5B943B980FF0FBFFF7E
:10001300FC43B9C0E5B930E5FB75A90343EF0275AD
:10002300F1FF75A4FF75A5FF75F2FF75A6FF75AE09
:0D003300FF75F4FF43A71743E10243E240CD
:01004000229D
:10292900E528700D12293B7F0A7E001227FE7528C3
:01293900019C
:01293A00227A
:1022EB0012000312268F902594E493FE740193FF42
:1022FB00902596E493FC740193FD90020774FFF014
:10230B00A37425F0A374B2F0A374FFF0A37425F0AB
:10231B00A374C2F09025CCE49390020DF09025CDE0
:10232B00E49390020EF09025CEE493FB740193900E
:10233B00020FCBF0A3EBF07BFF7A25799812139168
:0C234B001228D375A17075F80F021096CF
:03008300022758F9
:03008B0002170257
:10170200C0E0C0F0C083C082C0D075D000C000C0AD
:0D17120001C002C003C004C005C006C0072E
:10171F0012294C8F08E50830E27C7B017A02795858
:10172F007D40121CC9900258E0FFB52A0FA3E0B507
:10173F002B0AA3E0B52C05753001805AEFB52C119B
:10174F00900259E0B52B0AA3E0B52A057535018043
:10175F0045900258E0B52B0FA3E0B52A0AA3E0B5D8
:10176F002C05753701802F900258E0FFB52A0FA383
:10177F00E0B52C0AA3E0B52B057529018018EFB54C
:10178F002C11900259E0B52A0AA3E0B52B05753844
:10179F00018003753601E50830E703120083E50881
:1017AF0030E603120003E50830E41A15511551A86D
:1017BF0051760108763F7A007B007C007DEF7E003A
:1017CF007F00121B7CE50830E51C052D15511551C6
:1017DF00A851760108763F7A007B007C007DEF7E72
:0617EF00007F00121B7CCC
:1017F500D007D006D005D004D003D002D001D00048
:0B180500D0D0D082D083D0F0D0E032F1
:0C28EC007FFF1228F87FFF1228F87FFF02
:0928F8008FA330FFFDC2FFAFA366
:0129010022B3
:0A29720075A3FF30FFFDC2FFAFA305
:01297C002238
:0223BC00AE076A
:1023BE00E4FB1228EC1228ECC2FAEE4440FF12287D
:1023CE00F8AF21AE20AD1FAC1E781812103C1228AB
:1023DE00F8AF21AE20AD1FAC1E781012103C1228A3
:1023EE00F8AF21AE20AD1FAC1E780812103C12289B
:1023FE00F8AF211228F87F951228F87FFF1228F8DF
:0E240E00BFFF09AE030BEED3946440EFD2FA89
:01241C00229D
:101AB200E4FEFA75A90375A23BE4FD7FFF1228F844
:101AC2000DBD64F7E4F521F520F51FF51EFF122385
:101AD200BCAE070AEAD3940A5003BE01DCE4FAE47E
:101AE200F521F520F51FF51E7F371223BCAE070A3C
:101AF200EAD3946440037F0122BE01E3E4FAF521B4
:101B0200F520F51FF51E7F291223BCAE070AEAD382
:101B1200946440037F0122EE70C5EE601FE4FAE494
:101B2200F521F520F51FF51E7F011223BCAE070A31
:101B3200EAD3946440037F0122EE70E3E4F521F5D9
:101B420020F51FF51E7F3B1223BCAE07E4F521757D
:101B52002002F51FF51E7F101223BC75A201E4F5C9
:021B6200A9FFD9
:011B6400225E
:082181008F128E118D108C0FDE
:10218900E4FA75A903AF12AE11AD10AC0F780912BC
:1021990010638F218E208D1F8C1E7F181223BCAED9
:1021A900070AEAD3940A40037F0122EE70D7C2FAE4
:1021B9007FFF1228F87FFE1228F8FDFC74002DF528
:1021C9008274003CF583E0FF1228F80DBD00010C74
:1021D900E4B505E8ECB402E41228ECAE07EE541FAE
:1021E90064056003D2FA227FFF1228F8EF60F8D263
:0521F900FAE4F5A9FF66
:0121FE0022BE
:082357008F1C8E1B8D1A8C19DE
:10235F00E4FA75A903AF1CAE1BAD1AAC19780912BC
:10236F0010638F218E208D1F8C1E7F111223BC0AAC
:10237F00EAD3940A40037F0122EF70D9C2FA1229DF
:10238F0072BFFEFAE4FDFC12297274002DF58274FF
:10239F00003CF583EFF00DBD00010CE4B505E8EC52
:0C23AF00B402E41228F1D2FAE4F5A9FF10
:0123BB0022FF
:10293B00E4F9121AB2EF600809E9D3940340F322C9
:01294B002269
:10008E00F800F80007E007E0001F001FFFFFFFFF6A
:10009E00000000182442424242424242241800000C
:1000AE00000000107010101010101010107C0000C6
:1000BE000000003C4242420404081020427E000030
:1000CE000000003C42420418040202424438000080
:1000DE00000000040C14242444447E04041E00007A
:1000EE000000007E40404058640202424438000046
:1000FE000000001C24404058644242422418000074
:10010E000000007E4444080810101010101000006B
:10011E000000003C4242422418244242423C00006D
:10012E000000001824424242261A0202243800001F
:10013E000000001010182828243C444242E700001A
:10014E00000000F8444444784442424244F800001F
:10015E000000003E42428080808080424438000091
:10016E00000000F8444242424242424244F800003B
:10017E00000000FC424848784848404242FC0000DB
:10018E00000000FC424848784848404040E00000EB
:10019E000000003C44448080808E8444443800003B
:1001AE00000000E7424242427E42424242E70000E5
:1001BE000000007C1010101010101010107C0000A9
:1001CE000000003E0808080808080808080888F01B
:1001DE00000000EE444850705048484444EE000081
:1001EE00000000E0404040404040404042FE0000E1
:1001FE00000000EE6C6C6C6C5454545454D60000D9
:10020E00000000C7626252524A4A4A4646E2000065
:10021E00000000384482828282828282443800004A
:10022E00000000FC424242427C40404040E0000060
:10023E0000000038448282828282B2CA4C380600A4
:10024E00000000FC4242427C4848444442E3000025
:10025E000000003E4242402018040242427C000050
:10026E00000000FE92101010101010101038000038
:10027E00000000E74242424242424242423C0000FB
:10028E00000000E7424244242428281810100000E1
:10029E00000000D692929292AAAA6C4444440000A6
:1002AE00000000E7422424181818242442E7000016
:1002BE00000000EE444428281010101010380000E2
:1002CE000000007E840408081020204242FC00003A
:1002DE00001E1010101010101010101010101E0014
:1002EE0000004040202010101008080404040202F0
:1002FE0000780808080808080808080808087800A0
:10030E00001C2200000000000000000000000000A1
:10031E00000000000000000000000000000000FFD0
:10032E00006010000000000000000000000000004F
:10033E00000000000000003C421E2242423F00002E
:10034E00000000C0404040586442424264580000E1
:10035E00000000000000001C22404040221C000053
:10036E00000000060202021E22424242261B00002C
:10037E00000000000000003C427E4040423C000075
:10038E000000000F1110107E10101010107C0000D5
:10039E00000000000000003E444438403C42423C15
:1003AE00000000C04040405C6242424242E7000012
:1003BE00000000303000007010101010107C000093
:1003CE000000000C0C00001C040404040404447817
:1003DE00000000C04040404E4850684844EE0000C7
:1003EE00000000701010101010101010107C000083
:1003FE0000000000000000FE4949494949ED000097
:10040E0000000000000000DC6242424242E70000B1
:10041E00000000000000003C42424242423C00000C
:10042E0000000000000000D864424242447840E0E0
:10043E00000000000000001E22424242221E02075F
:10044E0000000000000000EE3220202020F8000006
:10045E00000000000000003E42403C02427C0000D2
:10046E00000000000010107C10101010100C000086
:10047E0000000000000000C642424242463B00001F
:10048E0000000000000000E74224242810100000A5
:10049E0000000000000000D79292AAAA4444000077
:1004AE00000000000000006E2418181824760000CA
:1004BE0000000000000000E742242428181010E07D
:1004CE00000000000000007E44081010227E000094
:1004DE0000030404040404080404040404040300D4
:1004EE00080808080808080808080808080808087E
:1004FE000060101010101008101010101010600076
:10050E00304C43000000000000000000000000001E
:10051E0000000000000000000000000000000000CD
:10052E00000000101010101010100000181800001D
:10053E0000123624480000000000000000000000F9
:10054E00000000242424FE484848FE484848000085
:10055E0000001038545450301814145454381010DD
:10056E0000000044A4A8A8A8541A2A2A2A4400006D
:10057E0000000030484848506EA4948889760000E8
:10058E0000606020C00000000000000000000000BD
:10059E0000020408081010101010100808040200C1
:1005AE00004020101008080808080810102040000D
:1005BE00000000001010D63838D6101000000000D1
:1005CE000000000010101010FE101010100000009F
:1005DE00000000000000000000000000606020C06D
:1005EE0000000000000000007F000000000000007E
:1005FE00000000000000000000000000606000002D
:10060E0000000102020404080810102020404000DF
:10061E00000000000000181800000000181800006C
:10062E00000000000000001000000000001010206C
:10063E0000000002040810204020100804020000F0
:10064E00000000000000FE000000FE0000000000A0
:10065E000000004020100804020408102040000092
:10066E000000003C42426202040808001818000014
:10067E0000000038445AAAAAAAAAB442443800007C
:10068E00FFFFFFFFFFFFFFFFFFFFFFFFFFFFFFFF6C
:0B26FB007FF87E001227067F007EF8AB
:10270600E4FDFCEE30E004D2928002C292EF25E0B6
:10271600FFEE33FEC291D2910DBD00010CED6409AE
:032726004C70E014
:01272900228D
:02004600AD0704
:10004800EEFF7401AB07FAFC900000EA30E004D23E
:10005800928002C292EC30E004D2B48002C2B4EBC7
:1000680025E0FBEA33FAED25E0FDEC33FCC291D242
:0A00780091A3E5826409458370D16D
:01008200225B
:042618008E0A8F0B8C
:10261C00121B65C290E4F50CF50DE4F50EF50FAF49
:10262C000BAE0A120046050FE50F7002050EC3949F
:10263C00F0E50E940040E8050DE50D7002050CC3A5
:08264C009440E50C940140D21A
:012654002263
:0B295A007E00D290C290122706D2909F
:01296500224F
:10281D007E001228347F1C7E001228347F267E0015
:07282D001228347F287E0011
:0A2834007401FEC290122706D29034
:01283E002277
:09297D00C290EFFEEDFF020046DE
:10289E007F287E0012295A7F327E001227FE7F107B
:0C28AE007E0012295A7F967E000227FE51
:10109600D2937F057E001227FEC2937F0A7E00123E
:1010A60027FED2937F327E001227FE7F117E00122A
:1010B600295A7F787E001227FE7F367E0012295A33
:1010C600E4FFFE1228347F3A7E0012295A7F057EFD
:1010D600001228347F357E0012295AE4FFFE1228BA
:1010E600347FE77E0012295A7F107E001228347F53
:1010F600B27E0012295A7F0C7E001228347F0C7EA5
:1011060000122834E4FFFE1228347F337E001228B2
:10111600347F337E001228347FB77E0012295A7F2F
:10112600357E001228347FBB7E0012295A7F1A7E34
:10113600001228347FC07E0012295A7F2C7E0012AE
:1011460028347FC27E0012295A7F017E001228347D
:101156007FC37E0012295A7F0F7E001228347FC477
:101166007E0012295A7F207E001228347FC67E0018
:1011760012295A7F0F7E001228347FD07E00122952
:101186005A7FA47E001228347FA17E001228347F65
:10119600E07E0012295A7FD07E001228347F017E1D
:1011A600001228347F087E001228347F0F7E00123A
:1011B60028347F117E001228347F2A7E00122834BC
:1011C6007F367E001228347F557E001228347F44F5
:1011D6007E001228347F4A7E001228347F2B122884
:1011E6001D7FE17E0012295A7FD07E001228347FAF
:1011F600027E001228347F077E001228347F0A7E82
:10120600001228347F0B7E001228347F187E0012CD
:1012160028347F347E001228347F437E001228341F
:101226007F4A7E001228347F2B7E001228347F1BD3
:0A12360012281D7F297E0002295AAC
:101B650015511551A851760108763F7A007B007C06
:071B7500007DEF7E007F0000
:101B7C0015511551A851A60208A60315511551A8C7
:101B8C0051A60408A60515511551A851A60608A67C
:101B9C00077F2A7E0012295AA951E7FF7E001228DE
:101BAC0034A851E6FE08E6FF122834A8510808A90B
:101BBC0000E7FF7E00122834A8510808E6FE08E66C
:101BCC00FF1228347F2B7E0012295AE5512404F988
:101BDC00E7FF7E00122834E5512404F8E6FE08E6FF
:101BEC00FF122834E5512406F9E7FF7E0012283451
:101BFC00E5512406F8E6FE08E6FF1228347F2C7E19
:0B1C0C000012295AE5512408F551226E
:0426C7008E4F8F5053
:1026CB00121B65C290D2B4900000E54FFF7401FE5F
:1026DB00122706AF507401FE122706A3E58264F0A1
:0F26EB00458370E60BBB00010ABA01DBBB40D888
:0126FA0022BD
:101E1E0078107C007D007BFF7A00798E7E007F102B
:101E2E00120F48121B65C290D2B4E4F50AF50BE40A
:101E3E00F50CF50DE4F50EF50FE50B25E02410F885
:101E4E00E6FE08E6FF120046050FE50F7002050ECE
:101E5E00C394F0E50E940040E0050DE50D7002050B
:101E6E000CC39428E50C940040CA050BE50B7002D8
:101E7E00050AC39408E50A940040B4E4F50CF50D88
:101E8E00C3E50C94005027E4F50EF50FAF1FAE1E00
:101E9E00120046050FE50F7002050EC394F0E50E15
:101EAE00940040E8050DE50D7002050C80D2D2902D
:011EBE002201
:1021FF00121B65C290D2B41226FB7FFF7E001227FE
:10220F00067FFF7E001227060BBB00010AEB64EE70
:10221F004A70E71226FB9000001226FBE4FAFBE45B
:10222F00FFFE122706E4FFFE1227060BBB00010A72
:10223F00EB64EE4A70E91226FBA3E582B43EDAE5C1
:10224F0083B401D51226FBE4FAFB7FFF7E00122731
:10225F00067FFF7E001227060BBB00010AEB64EE20
:08226F004A70E71226FBD29031
:012277002244
:02190F008F0A3D
:1019110012292975A903121B65C290D2B4E4751866
:101921002C751701F516F515AF0AFCFDFEAB18AACB
:1019310017A916A815120FDCEF2401F50EE43EF5E8
:101941000DE43DF50CE43CF50BE50A2401FFE4331D
:10195100FEE4FCFDAB18AA17A916A815120FDCEFBF
:101961002401F512E43EF511E43DF510E43CF50FD8
:10197100AF12AE11AD10AC0FAB0EAA0DA90CA80B96
:10198100C312102B505AAF0EAE0DAD0CAC0B12237F
:1019910057E4F513F514C3E5139402502C74002594
:1019A10014F58274003513F583E0FF74012514F5F5
:1019B1008274003513F583E0FD12297D740225142C
:1019C100F514E43513F51380CDE50E2401F50EE48D
:1019D100350DF50DE4350CF50CE4350BF50B809068
:0319E100E4F5A981
:0119E40022E0
:1028BA00AB07AA06C290D2B4EAFF7E00122706AF7F
:0928CA0003AE02122706D290228F
:10241D00EFC3942050047F5F8050EFC39420400C95
:10242D00EFD3942F5006EF2428FF803EEFC3943056
:10243D00400CEFD39439500674D02FFF802CEFC38E
:10244D00943A400CEFD394405006EF241EFF801AAF
:10245D00EFC39441400CEFD3947E5006EF24C9FF97
:0B246D008008EFD3947E40027F5F22C6
:101D7800FDE43511FC85151F85162085172185186A
:051D880022AB14AA13B8
:061D8D008F1AAF05AE0441
:101D9300EB240FFDE43A15511551A851F608A60599
:101DA300EF2407FDE43EFC121B7CAF1A7E00D3EF49
:101DB300945FEE940040027F5FEFC4F8540FC8684D
:101DC300FFEEC454F048FE7524FF75250075269E6A
:101DD300EF2526F526EE3525F525E4F523AB240579
:101DE30026E526AA257002052514F9120F6EF5279C
:101DF300E4F9E527A801088002C333D8FC30E706DD
:101E0300AF20AE1F8004AF22AE211228BA09B90851
:0A1E1300E10523E523C3941040C34A
:011E1D0022A2
:101EBF008B0F8A1089118C128D13AB0FAA10A911D9
:101ECF00120F6E7003D38001C34066AB0F0511E58F
:101EDF0011AA107002051014F9120F6EFF12241DB3
:101EEF0085161F851720851821851922AB15AA1471
:101EFF00AD13AC12121D8DD3E51394E7E5129400C8
:101F0F004012E4F512F51374102515F515E4351488
:101F1F00F514800B74082513F513E43512F512D35D
:101F2F00E515942FE51494014090E4F514F5158010
:101F3F008915511551A851760108763F7A007B001B
:0B1F4F007C007DEF7E007F00021B7C09
:101F5A008E0F8F108C118D128A138B14D3E5129465
:101F6A00CFE511940040067511007512CFD3E51420
:101F7A00942FE5139401400CE51424EFF514E513AE
:101F8A0034FFF513E50FC4540FFF85151F8516207E
:101F9A00851721851822AB14AA13AD12AC11121D94
:101FAA008DE50F540FFFE5122408121D78E50FC4C2
:101FBA00F854F0C8E510C4540F48540FFFE5122432
:101FCA0010121D78E510540FFFE5122418121D781F
:101FDA0015511551A851760108763F7A007B007C8D
:0A1FEA00007DEF7E007F00021B7CEB
:10272A0075F3FF75F5FF75A0FF75C7FFC290D2B4A8
:10273A007F207E031227FEAFA0ADC7D29075F3FFAC
:0D274A0075A6FF75F5FF75AEFFEFFEEDFF04
:01275700225F
:10208000E4F53FF54015511551A851760108763F0A
:10209000FAFBFC7DEFFEFF121B7CC290D2B4E4F58C
:1020A0003DF53EAE3DAF3E7C087D41120FB48E3F04
:1020B0008F40E4F539F53AE4F53BF53CAF40AE3FEF
:1020C000120046053CE53C7002053BC394F0E53B3D
:1020D000940040E8053AE53A70020539C39440E5BA
:1020E00039940140D21229167FC87E001227FE05BE
:1020F0003EE53E7002053DC39420E53D940040A3BB
:0121000022BC
:10181000121B65C290D2B4E4F54DF54EAE4DAF4EFD
:101820007C207D82120FB48E838F82E4FCFDEF5406
:1018300080FFEE540FFEE4780112104FC004C00583
:10184000C006C007E4FCFDFFE58354E0FEE4780237
:1018500012104FD003D002D001D000EF4BFFEE4A60
:10186000FEED49FDEC48FCA905AA06AB07E582544C
:101870003EFFE4C313FEEF13FFEB4FFFEA4EFE8E75
:10188000838F82E4F549F54AE4F54BF54CE583FF97
:101890007401FE122706AF827401FE122706054C62
:1018A000E54C7002054BC394F0E54B940040DE0517
:1018B0004AE54A70020549C3940AE549940040C8C4
:1018C000054EE54E7002054DC39420E54D94005041
:1018D0000302181CE4F549F54AC3E5499400502E6B
:1018E000E4F54BF54C7FFF7E011227067FFF7E015A
:1018F000122706054CE54C7002054BC394F0E54BEE
:0E190000940040E1054AE54A7002054980CB9B
:01190E0022B6
:1014C800E4F547F54815511551A851760108763FBE
:1014D800FAFBFC7DEFFEFF121B7CC290D2B4E4F550
:1014E80045F546AE45AF46E4FCFD7404FBFAF978D1
:1014F80000120FDC8E478F48E4FCFDFFFE780812CF
:10150800104FAB07AA06A905C004C005C006C0074E
:10151800E4FCFDFFE54754FCFEE4780512103CD0DE
:1015280003D002D001D000EF4BFFEE4AFEED49FD9B
:10153800EC48FCC004C005C006C0077E00E548545E
:10154800F87803CEC313CE13D8F9FFD003D002D056
:1015580001D000EB4FFFEA4EFE8E478F48E4F5417D
:10156800F542E4F543F544E547FF7401FE1227060A
:10157800AF487401FE1227060544E544700205438E
:10158800C394F0E543940040DE0542E5427002054D
:1015980041C3940AE541940040C80546E5467002F7
:1015A8000545C39420E545940050030214EBE4F587
:1015B80041F542C3E5419400502EE4F543F5447FDC
:1015C800FF7E011227067FFF7E011227060544E5EC
:1015D8004470020543C394F0E543940040E105429A
:0815E800E5427002054180CBD1
:0115F00022D8
:102655001201100100000040C4100000000001023A
:1026650003010902200001010080FA0904000002AB
:10267500FF00000007050202400000070582024036
:0A2685000000040309040100000036
:10139100900200EEF0A3EFF0900204EBF0A3EAF06C
:1013A100A3E9F0E4900791F0900791E0FF902655B2
:1013B10093FE74402FF582E43407F583EEF0900735
:1013C10091E004F0E0B412E0E4900791F09007910D
:1013D100E0FF90266793FE74522FF582E43407F5FF
:1013E10083EEF0900791E004F0E0B420E090020079
:1013F100E0FEA3E0900748F0EEA3F0A3EDF0ECA32C
:10140100F090077274FFF0A37426F0A37487F09034
:101411000204E0F9A3E0FAA3E0900775C9F0A3EA9A
:10142100F0A3E9F0900207E0F9A3E0FAA3E0900746
:1014310078C9F0A3EAF0A3E9F090020AE0F9A3E089
:10144100FAA3E090077BC9F0A3EAF0A3E9F09002C8
:101451000DE0FFC394FA500590075AEFF090020E89
:10146100E0900759F090020FE0FEA3E090074CF0E6
:10147100EEA3F0E59620E7FB759601759708E596D2
:1014810020E7FB75960775970FE59620E7FB7596A4
:101491000975970EE59620E7FB75960B759707750D
:1014A100D7E0122966E4900793F0900792F0900735
:1014B10094F0900786F043E602D2AFE59620E7FB71
:0714C10075960175970122E9
:1027AC009007867402F0E59620E7FB759601759705
:1027BC0001E490078EF0A37403F0A3F0E490079368
:0727CC00F090079204F022D7
:100C4500E59620E7FB75960EE4F597E59620E7FB1C
:100C5500759691E59620E7FB90079EE597F0E0FFF6
:100C650030E210E59620E7FB759611E4F5979007BD
:100C75008EF022EF30E410E59620E7FB75961175AE
:100C85009780E490078EF090078EE06003020D7662
:100C950090079EE020E003020D767596204396C0EE
:100CA500E4900791F0E59620E7FB900791E0247E1C
:100CB500F582E43407F583E597F0900791E004F0B9
:100CC500E0B407E1E59620E7FBE4F596900791E0AF
:100CD500247EF582E43407F583E597F0900781E0FB
:100CE500FE900780E07C002400FFEC3E900795F025
:100CF500A3EFF0900785E0FE900784E02400FFEC69
:100D05003E900797F0A3EFF090077FE0B40C0050FA
:100D15005D900D1DF8282873020D41020D46020D48
:100D25004B020D50020D73020D55020D5A020D7343
:100D3500020D5F020D64020D69020D6E12227880AC
:100D4500301224D2802B1219E5802612252A802103
:100D5500122861801C121C1780171225D1801212CF
:100D65002478800D1227D3800812290280031228C7
:100D75008190078EE064016003020E7790079E74F0
:100D850002F0C390078DE0944090078CE0940040FA
:100D950061E59620E7FB759620E4900791F09007B2
:100DA50091E0FFC394405022900787E0FBA3E0FA4F
:100DB500A3E0F98F82758300120F87F597E59620DA
:100DC500E7FB900791E004F080D4900788E475F084
:100DD50040120FC690078DE024C0F090078CE034D8
:100DE500FFF090078BE02440F090078AE03400F094
:100DF5008052E59620E7FB759620E4900791F090E8
:100E05000791E0FFD390078DE09F90078CE0940059
:100E15004026900787E0FBA3E0FAA3E0F99007914D
:100E2500E0F582758300120F87F597E59620E7FBBD
:100E3500900791E004F080C790079EE04408F0E435
:100E450090078EF0900797E0FEA3E0FF90078AE0F9
:100E5500B50611A3E0B5070C90079EE04408F0E441
:100E650090078EF0E59620E7FB75961190079EE0BA
:030E7500F59722CC
:10288100E59620E7FB75960EE4F597E59620E7FBC4
:0D28910075961175972090078E7404F02243
:1022780090077EE0247F600714600624027048807F
:102288002D90078FE0B40309900782E0B402028022
:102298000E900790E0B40316900782E0B4820F9086
:1022A800078774FFF0A37426F0A3748B800D900742
:1022B8008774FFF0A37426F0A3748DF090078CE464
:1022C800F0A37402F0800312288190078EE0640462
:1022D800601012290290078E7401F0E490078AF0CA
:0322E800A3F0223E
:1024D200900780E07041900782E0B4021DE59620EB
:1024E200E7FB75960E759702E59620E7FB75961445
:1024F200759780E490078FF08020E59620E7FB75C2
:10250200960E759702E59620E7FB75961175974032
:10251200E4900790F08003122881E59620E7FB758E
:08252200960EE4F59702290270
:1019E500900796E020E003021A7B900794E030E030
:1019F5000854FEF04402F08007900794E054FDF08F
:101A0500E59620E7FB75960E759702E59620E7FBB0
:101A1500759614759710E59620E7FB7596117597E1
:101A250008E59620E7FB759694E59620E7FB900779
:101A35009DE597F0E020E4E9E59620E7FB7596142F
:101A4500759710E59620E7FB759691E59620E7FBDF
:101A550090079DE597F0E020E3E9E59620E7FB7523
:101A650096117597089007927408F0900794E0FF17
:101A750030E1034401F0900795E0FCA3E0FD30E17F
:101A85000D9007867406F0900792E04410F0ED3053
:101A9500E20D9007867404F0900792E04420F0E58B
:0D1AA5009620E7FB75960EE4F597022902E6
:10252A00900780E07040900782E0B4021BE5962095
:10253A00E7FB75960E759702E59620E7FB759614EC
:10254A0075972090078F8019E59620E7FB75960E00
:10255A00759702E59620E7FB759611759710900717
:10256A00907403F08003122881E59620E7FB7596A4
:07257A000EE4F597022902AF
:10286100E59620E7FBE4F596900780E0FFF597EF0A
:1028710090078660057403F080037402F002290258
:101C1700900781E024FE601B14603B2402706990EA
:101C270007877401F0A37407F0A37440F09007408E
:101C3700E0804A9007877401F0A37407F0A37452F9
:101C4700F0900755E0FE900754E07C002400FFEC7D
:101C57003E90078C802C900780E075F003A42472D7
:101C6700F582E43407F583E0FBA3E0FAA3E0F990FB
:101C77000787EBF0A3EAF0A3E9F0120F6EFF9007D6
:101C87008CE4F0A3EFF0800312288190078CE0FE2C
:101C9700A3E0FF900797E0FCA3E0FDC39FEC9E50F5
:101CA7000890078CECF0A3EDF090078EE0640460D9
:101CB7001012290290078E7401F0E490078AF0A3AE
:021CC700F02209
:1025D100900786E0FFB40414A374FFF0A37426F0FF
:1025E100A3748BF090078CE4F0A304F0EFB403160E
:1025F10090078774FFF0A37426F0A3748DF0900701
:102601008CE4F0A304F012290290078E7401F0E427
:0726110090078AF0A3F022FC
:10247800900780E0D394004042900792E04440F0F7
:102488009007867404F0E490078FF0A3F0E5962097
:10249800E7FB75960E759702E59620E7FB75961291
:1024A800759784E59620E7FB759615759780E596F0
:1024B80020E7FB75960EE4F597800C900786740369
:0A24C800F090078FF0A3F002290244
:1027D30090078774FFF0A37426F0A3748DF090071D
:1027E3008CE4F0A304F012290290078E7401F0E444
:0727F30090078AF0A3F02219
:1029020090078EE06404600BE59620E7FB75961154
:042912007597402253
:0300430002124066
:10124000C0E0C0F0C083C082C0D075D000C000C074
:1012500001C002C003C004C005C006C0079007A1BA
:10126000E596F0E59620E7FB75968EE59620E7FB80
:101270009007A2E597F0E59620E7FB759686E59640
:1012800020E7FB900799E597F0E030E30BE5962027
:10129000E7FB75960B759707900799E030E203120C
:1012A00027AC900799E030E014900786E0FF6404D3
:1012B0006004EFB40607900792E04480F0E59620C2
:1012C000E7FB759682E59620E7FB900799E597F096
:1012D000E030E003120C45900799E030E22AE596F1
:1012E00020E7FB75960E759702E59620E7FB75964D
:1012F00091E59620E7FB90079AE597F0E05403709C
:1013000007900792E04402F0E59620E7FB7596848B
:10131000E59620E7FB900799E597F0E030E229E5B4
:101320009620E7FB75960E759702E59620E7FB750C
:101330009694E59620E7FB90079AE597F0E030E079
:1013400007900792E04404F0E59620E7FB75960EBF
:101350009007A2E0F597E59620E7FB9007A1E596B8
:10136000F0E59620E7FB900794E030E009900792C3
:10137000E0600312283FD007D006D005D004D00388
:10138000D002D001D000D0D0D082D083D0F0D0E035
:01139000322A
:10268F00E5B964E0602E53A90FC0A943B280E5A954
:10269F005407D394014003E4F5A9E4F5B943B98095
:1026AF00E4D5E0FD43B9C0E5B930E5FBD0E0B402B5
:0826BF000343A90253A90F22F5
:1027580053D7BF43C910E5A95402900791F043B27B
:102768008075A910E4F5B943B2200012268F9007AE
:0B27780091E042A953C9EF43D7402273
:0E294C00900792E0FFE4F022900792E0FF2255
:101CC900900786E0B40606EDD3944040037F0022D6
:101CD900E59620E7FB75960E759702E59620E7FBDA
:101CE900759694E59620E7FB90079CE597F0E02030
:101CF900E003021D75E59620E7FB759696E59620AB
:101D0900E7FB900793E597F0E0FFEDC39F5006AE20
:101D190005AF068000900793EFF053E6FDE59620A6
:101D2900E7FB7596E2900793E06025FEEB600630CD
:101D3900E70F7F0022E59620E7FBA79709DEF680EB
:101D49000F89828A83E59620E7FBE597F0A3DEF504
:101D5900E59620E7FBE4F596E59620E7FB759614F2
:0F1D6900E4F59743E602900793E0FF227F002204
:1015F100900786E0B4060DED4C6009D3ED9400EC44
:1016010094104004E4FEFF2253E6FDE490079FF0AE
:10161100A3F090079BF089828A83C083C0829007E0
:101621009BE030E0030216F2E59620E7FB75960E8B
:10163100759702E59620E7FB759691E59620E7FB05
:1016410090079BE597F0E030E020E59620E7FB75F9
:10165100960EE4F597E59620E7FB759691E59620C1
:10166100E7FB90079BE597F080B4C3ED9440EC94C1
:10167100009007A0E0401B2440F090079FE0340059
:10168100F074C02DFD74FF3CFCE490079BF07840A2
:1016910080132DF090079FE03CF090079B7401F0C0
:1016A100A805E4FCFDE59620E7FB759622D082D0E3
:1016B10083E8602BEB601130E71AE59620E7FBE445
:1016C10093F597A3D8F48017E59620E7FB87970950
:1016D100D8F6800BE59620E7FBE0F597A3D8F5C097
:1016E10083C082E59620E7FB759611759701021676
:1016F1001FD082D08343E60290079FE0FEA3E0FF64
:0117010022C5
:1028D300900794E04401F0900792E0600BE59620A6
:0928E300E7FB75960B75970F22B7
:0C296600E59620E7FB75960F7597892217
:10283F00D007D007D007D006D005D004D003D002E0
:10284F00D001D000D0D0D082D083D0F0D0E0020021
:02285F008B22CA
:03000000021FF4E8
:0C1FF400787FE4F6D8FD75815102203B97
:100E7800E709F608DFFA8046E709F208DFFA803E5C
:100E880088828C83E709F0A3DFFA8032E309F60849
:100E9800DFFA8078E309F208DFFA807088828C83B1
:100EA800E309F0A3DFFA806489828A83E0A3F60865
:100EB800DFFA805889828A83E0A3F208DFFA804C3F
:100EC80080D280FA80C680D4806980F28033801016
:100ED80080A680EA809A80A880DA80E280CA80337F
:100EE80089828A83ECFAE493A3C8C582C8CCC583F7
:100EF800CCF0A3C8C582C8CCC583CCDFE9DEE780C7
:100F08000D89828A83E493A3F608DFF9ECFAA9F045
:100F1800EDFB2289828A83ECFAE0A3C8C582C8CC9B
:100F2800C583CCF0A3C8C582C8CCC583CCDFEADEB4
:100F3800E880DB89828A83E493A3F208DFF980CC16
:100F480088F0EF60010E4E60C388F0ED2402B4040F
:100F58000050B9F582EB2402B4040050AF232345B6
:060F68008223900EC87305
:100F6E00BB010689828A83E0225002E722BBFE0281
:090F7E00E32289828A83E49322B4
:100F8700BB010CE58229F582E5833AF583E022501F
:100F970006E92582F8E622BBFE06E92582F8E22269
:0D0FA700E58229F582E5833AF583E4932283
:100FB400EF8DF0A4A8F0CF8CF0A428CE8DF0A42E51
:020FC400FE220B
:100FC600C5F0F8A3E028F0C5F0F8E58215827002B6
:060FD6001583E038F02253
:100FDC00E88FF0A4CC8BF0A42CFCE98EF0A42CFCB4
:100FEC008AF0EDA42CFCEA8EF0A4CDA8F08BF0A432
:100FFC002DCC3825F0FDE98FF0A42CCD35F0FCEB91
:10100C008EF0A4FEA9F0EB8FF0A4CFC5F02ECD3955
:0F101C00FEE43CFCEAA42DCE35F0FDE43CFC22C2
:10102B00EB9FF5F0EA9E42F0E99D42F0E89C45F01B
:01103B002292
:10103C00E8600FECC313FCED13FDEE13FEEF13FF92
:03104C00D8F122B6
:10104F00E86010ECA2E713FCED13FDEE13FEEF13B7
:04105F00FFD8F022A4
:10106300E8600FEFC333FFEE33FEED33FDEC33FCEB
:03107300D8F1228F
:101076007401FF3395E0FEFDFC080808E6CF2FF665
:1010860018E6CE3EF618E6CD3DF618E6CC3CF6223E
:10200000022101E493A3F8E493A34003F68001F2D4
:1020100008DFF48029E493A3F85407240CC8C333E1
:10202000C4540F4420C8834004F456800146F6DFB0
:10203000E4800B0102040810204080902783E47E96
:10204000019360BCA3FF543F30E509541FFEE493A5
:10205000A360010ECF54C025E060A840B8E493A36C
:10206000FAE493A3F8E493A3C8C582C8CAC583CA97
:10207000F0A3C8C582C8CAC583CADFE9DEE780BE4F
:0127AB00002D
:00000001FF
